:020000040800F2
:10000000C0120020A1010008F54D0008D1420008EF
:10001000F14D000891080008755300080000000029
:10002000000000000000000000000000354F000844
:10003000AD08000800000000F94D0008394F000825
:10004000BB010008BB010008BB010008BB010008A0
:10005000BB010008BB010008BB010008BB01000890
:10006000BB010008BB010008BB010008BB01000880
:10007000BB010008BB010008BB010008BB01000870
:10008000BB010008BB010008BB010008BB01000860
:10009000BB010008BB010008BB010008BB01000850
:1000A000BB010008BB010008BB010008BB01000840
:1000B0000D5000081950000825500008BB01000829
:1000C000BB010008BB010008BB010008BB01000820
:1000D000BB01000859530008BB010008BB01000820
:1000E000BB010008BB010008BB010008BB01000800
:1000F000BB010008BB010008BB010008BB010008F0
:10010000BB010008BB0100083D500008BB0100080E
:10011000BB010008BB010008BB010008BB010008CF
:10012000A1080008BB010008BB010008BB010008D2
:10013000BB010008BB010008BB010008BB010008AF
:10014000BB010008BB010008BB010008BB0100089F
:10015000BB010008BB010008BB010008BB0100088F
:10016000BB010008BB010008BB010008BB0100087F
:10017000BB010008BB010008BB0100080000000033
:10018000BB010008BB010008DFF810D000F02CFB19
:1001900000F06EF80048004725740008C0120020E7
:1001A0000648804706480047FEE7FEE7FEE7FEE711
:1001B000FEE7FEE7FEE7FEE7FEE7FEE7F94F000891
:1001C000890100082DE9F05F0546002092469B4614
:1001D00088460646814640241BE02846414647465D
:1001E000224600F04BFA53465A46C01A914110D3AA
:1001F00011461846224600F032FA2D1A67EB010824
:100200004F4622460120002100F029FA17EB000991
:100210004E41201EA4F10104DFDC484631462A4647
:100220004346BDE8F09F40EA01039B0703D009E085
:1002300008C9121F08C0042AFAD203E011F8013BD2
:1002400000F8013B521EF9D27047D2B201E000F82B
:10025000012B491EFBD270470022F6E710B513466A
:100260000A4604461946FFF7F0FF204610BD00007D
:1002700070B5054C054D03E0206820448047241DDF
:10028000AC42F9D170BD000064A3000868A3000867
:100290002DE9FE4F804681EA0300C00F0C46009016
:1002A00021F0004123F00045B8EB0200A94105D23E
:1002B0004046214690461C460B46024623F000402D
:1002C000104347D0270DC7F30A00C3F30A51029029
:1002D000401A019040286BDAC3F3130040F4801BEE
:1002E0000098924620B10023D2EB030A63EB0B0B7C
:1002F00001985946C0F14002504600F0B0F9064658
:100300000D4650465946019A00F0C8F910EB080016
:100310006141002487EA115284EAE7731A4340D00E
:10032000009A62B3019A012A4FEA075215DC001BBA
:1003300061EB02014FF0004202EA0752CDE90042B0
:10034000001C41F5801132462B4600F0FFF903B046
:10035000BDE8F08F40462146F9E7001B61EB020142
:10036000001C41F5801300185B412018A2F500170E
:1003700047EB030140EAD570B6196D4111E06D08F5
:100380004FEA360645EAC0754FEA0752001B61EB9B
:100390000201001C41F5801149084FEA30000019A4
:1003A000514132462B4603B0BDE8F04F00F0BFB9D3
:1003B0000098012240000023D0EB020263EBE073BF
:1003C000009821464FEAE074B8EB000061EB0401AD
:1003D000E9E783F000435BE781F0004158E72DE94E
:1003E000FE4F81EA030404F0004421F00041009430
:1003F0004FF0000B23F0004350EA01045ED052EAB4
:1004000003045BD0C3F30A54C1F30A552C44A4F28D
:10041000F3340194A0FB0254C1F3130141F48011A1
:10042000C3F3130343F4801301FB024400FB034EA8
:10043000840A970A44EA815447EA8357A4FB076871
:1004400002958D0A05FB07854FEA932C04FB0C549B
:100450002705029D4FEA065847EA1637B5EB08050F
:100460006EEB070C870E920E47EA811742EA831261
:10047000A7FB0201B6EB0B0164EB00042B0D43EA72
:100480000C335E1844EB1C50DA465146E7FB020180
:10049000C5F313044FEA0B3343EA14534FEA043213
:1004A000019C43EA0603A4F10C040294009CCDE9EC
:1004B00000B400F04BF903B0BDE8F08F0020014616
:1004C000F9E72DE9F04D81EA030404F0004B21F037
:1004D000004514464FF0000A23F0004150EA05029F
:1004E00020D054EA01021DD0C5F30A570246C5F3D5
:1004F0001303C1F31300C1F30A5640F4801543F40B
:100500008013A7EB0608101BD64608F2FD3873EBE4
:10051000050002D308F1010801E092185B41B8F12F
:10052000000F03DA00200146BDE8F08D00204FF4F3
:100530008011064684460EE0171B73EB050705D3B2
:10054000121B63EB050306434CEA010C49084FEA12
:10055000300092185B4150EA0107EDD152EA0300E6
:1005600012D082EA040083EA0501084305D0101B7B
:10057000AB4106D20122002306E000224FF00043E7
:1005800002E06FF0010253101AEB06004CEB085129
:1005900010EB0A0041EB0B01BDE8F04D00F0C7B8CD
:1005A0000EB5C10F80EAE0700844CA07002140F28E
:1005B00033438DE80E000A460B4600F0C7F803B03F
:1005C00000BD70B5C1F30A5201F000450024C1F32B
:1005D000130140F2FF3341F480119A4201DA002006
:1005E00070BD40F233439A42A2F2334203DC5242DE
:1005F00000F044F800E090402C43F1D0404270BD40
:1006000000F0004230F000400AD0C10D01F56071E9
:10061000C0F3160042EA0151C20840071143704777
:1006200000200146704701F0004330B421F0004142
:1006300050EA010206D00A0DA2F56072C1F313015F
:10064000002A02DC30BC00207047440F44EAC10499
:10065000C100E01830BC00EBC25000F031B8202AD5
:1006600004DB203A00FA02F1002070479140C2F109
:10067000200320FA03F3194390407047202A04DB3B
:10068000203A21FA02F00021704721FA02F3D0400B
:10069000C2F120029140084319467047202A06DB28
:1006A000CB17203A41FA02F043EAE07306E041FA40
:1006B00002F3D040C2F1200291400843194670472E
:1006C0000029A8BF7047401C490008BF20F0010066
:1006D000704710B4B0FA80FC00FA0CF050EA010444
:1006E00004BF10BC704749B1CCF1200421FA04F4D6
:1006F00011FA0CF118BF012121430843A3EB0C01AF
:10070000CB1D4FEA00614FEA102042BF002010BC11
:10071000704700EBC35010440029A4BF10BC7047C1
:10072000401C490008BF20F0010010BC704710B504
:10073000141E73F1000408DA401C41F10001921804
:100740005B411A4301D120F0010010BD2DE9F04DAD
:1007500092469B4611B1B1FA81F202E0B0FA80F202
:1007600020329046FFF77BFF04460F4640EA0A001E
:1007700041EA0B0153465A46084313D0114653EA47
:10078000010019D0C8F140025046FFF777FF054637
:100790000E46504659464246FFF761FF084305D0D2
:1007A000012004E020463946BDE8F08D00200543D5
:1007B00046EAE0762C4337430A986305E40AA0EB47
:1007C00008000022FD0A44EA47540A3002D50020FE
:1007D0000146E9E7010510196941DDE908450019FD
:1007E0006941BDE8F04DA2E7064C074D06E0E06820
:1007F00040F0010394E8070098471034AC42F6D368
:10080000FFF7C6FC44A3000864A300080146806B00
:10081000036C026C13F0500F07D0D20648BF00F0F3
:10082000F5B8806BC26C0846104742F40071016451
:1008300001688A6812F0405F1AD1027E002A18BF50
:1008400000F0CEB8CA6A12F4700F02D08A6852055E
:100850000ED44A6822F020024A60016C21F48071B3
:100860000164016CC9045EBF016C41F001010164C7
:1008700000F0B6B8806B40210164416C41F0040186
:10088000416400F0C3B80000806B00F0BDB8000008
:10089000FEE7000040F22C20C2F2000004F0B2BFDC
:1008A00040F29470C2F2000000F050BD70470000AA
:1008B000EFF3108072B600BFFEE7000070B581B0A4
:1008C0000022009290F83C20012A01D1022184E00C
:1008D000012280F83C20D1F800E01FFA8EFCBEF126
:1008E0000A0F4FEA4C0212FA8EF204D303681E3A42
:1008F00003F10C0402E0036803F1100407252668E5
:10090000954026EA050525608D6805FA02F22568FE
:100910002A4322604A68062A05D802EB820203F1C4
:100920003401053A0BE002EB82040C2A87BF03F185
:100930002C01A4F1410203F13001A4F123021F2490
:100940000D6894400CFA02F225EA04040C600E686B
:1009500032430A6042F20431C4F20101A1F541724E
:10096000934237D1BEF1120F04D10A6842F48002DB
:100970000A602FE02EF00102102A2BD10A68BEF186
:10098000100F42F400020A6024D140F204014DF637
:100990008362C2F20001C4F21B320968A1FB021299
:1009A000910C01EB8101490001E0009901390091AE
:1009B000009979B1009901390091009951B10099DC
:1009C00001390091009929B10099013900910099EC
:1009D0000029EAD1002180F83C10084601B070BD22
:1009E00040F2FC61C2F20001884218BF704740F239
:1009F0002C200121C2F2000080F8081140F23C30A6
:100A0000C2F2000005F0A4BB704700007047000070
:100A10000068C06C70470000002804BF01207047C8
:100A200010B50446006C30B9204600F099F800205B
:100A300084F83C006064206CC00639D4206C41F21C
:100A400002110123C0F6007388430230206442F291
:100A50000430C4F20100016821F440310160616892
:100A60000268114301602068416821F4807141608F
:100A70002169426842EA01214160416821F04071E8
:100A80004160A168426811434160816821F40061BE
:100A90008160E168826811438160A16A826822F006
:100AA000706299428260826804D122F040510AE06B
:100AB000012051E011438160816821F04051816043
:100AC000E16A826811438160816821F002018160DE
:100AD000217E826842EA4101816094F820204168C9
:100AE00082B141F400614EF200024160CFF6FF7224
:100AF000416821F460414160616A02EB4131426822
:100B0000114301E021F4006141600022C16ACFF687
:100B1000F07221F47001C162E16902EB0151C26A15
:100B20001143C162816821F40071816094F8301032
:100B3000826842EA41218160816821F4806181609C
:100B40006169826842EA812101228160002060643B
:100B5000216C62F301012164002184F83C1010BD76
:100B6000F0B587B0002642F2002104460696CDE992
:100B70000466CDE90266C4F201010068884243D0F0
:100B800042F20011C4F20101884200F0858042F275
:100B90000001C4F2010188427CD143F630000026F6
:100BA0000024032702AD0196C4F20200C4F202043D
:100BB000416941F480714161416901F480710191A1
:100BC00001990196016841F001010160016801F09D
:100BD0000101019101990196016841F00201016052
:100BE0002946006800F002000190019804960397DE
:100BF000C0200290204600F095FD0496CDE90277D2
:100C000004F58060294669E043F630000196C4F29D
:100C10000200416941F480614161416901F48061F0
:100C2000019101990196016841F00101016002A959
:100C3000006800F0010001900198049603200390E1
:100C4000082002900020C4F2020000F06BFD40F288
:100C5000947546F210474FF400504FF400614FF482
:100C600080624FF08063C2F20005C4F20207C5E95A
:100C70000866C5E90073C5E90266C5E90421C5E94E
:100C80000606284600F040FC002818BFFFF710FEBB
:100C9000A563AC6307B0F0BD43F6300100200190BE
:100CA000C4F202014A6942F400724A614A6902F4DC
:100CB00000720192019A01900A6842F001020A60F2
:100CC000096801F00101019101990490032003904A
:100CD000042002A902900020C4F2020000F022FDCC
:100CE00007B0F0BDF0B581B0044600680D468168DC
:100CF000490544BF80685FEAC05037D400F0FEFD6C
:100D000006462068016889070ED46F1C4FB12DB1CB
:100D100000F0F4FD811B2068A94202D9016889070F
:100D20002ED501688907F1D56FF012010160216CA1
:100D300041F400712164816811F0405F13D1217E7C
:100D400089B9C16A11F4700F02D0806840050AD4D5
:100D5000206C20F480702064206CC0045EBF206C86
:100D600040F001002064002001B0F0BD002084F8B4
:100D70003C00206C40F020002064012001B0F0BD58
:100D8000002084F83C00206C40F004002064032024
:100D900001B0F0BD81B00021009190F83C10012914
:100DA00002BF022001B07047012180F83C100168A9
:100DB0008A68D20727D18A684DF68363C4F21B3351
:100DC00042F001028A6040F20402C2F2000212689C
:100DD000A2FB03239A0C02EB420201E0009A013AC3
:100DE0000092009A7AB1009A013A0092009A52B1A8
:100DF000009A013A0092009A2AB1009A013A0092B0
:100E0000009A002AEAD18B68026CDB0707D142F016
:100E100010010164416C41F0010141644CE040F279
:100E200001739A4302F5807202644A68520504D540
:100E3000026C012363F30D320264026C0023D204BE
:100E400044BF436C23F00603002280F83C20436437
:100E50006FF02200086042F20430C4F2010003681F
:100E6000A0F54172DB060AD0914225D14FF604521B
:100E7000CFF6FF72805810F0405F1DD118E091420C
:100E800012D042F20022C4F20102914209D042F291
:100E90000012C4F2010291420ED10068C0060BD1CB
:100EA00002E00068C00607D4886810F0405F03D1F4
:100EB000886840F080408860002001B070470000E2
:100EC000B0B582B004460020019094F83C0001289F
:100ED00002BF022002B0B0BD01200D46964684F844
:100EE0003C0021688868C00727D188684DF6836375
:100EF000C4F21B3340F00100886040F20400C2F2EB
:100F000000000068A0FB0303980C00EB400001E028
:100F1000019801380190019878B101980138019049
:100F2000019850B1019801380190019828B10198B9
:100F30000138019001980028EAD18868C00542BFB5
:100F4000886820F4807088608B68206CDB0707D18C
:100F500040F010002064606C40F0010060646FE0BD
:100F600040F20173984300F58070206448684005A2
:100F700004D5206C012363F30D302064206C4FF006
:100F8000000C40F6750340F60D02C0F60003C0F6F3
:100F90000002C0044FF0000044BF606C20F0060067
:100FA00084F83CC06064A06BC36440F68903C0F65B
:100FB0000003C0E90F236FF0220273460A604A68FB
:100FC00042F080624A608A6842F480728A604C31E2
:100FD0002A4600F043FB42F20801C4F20101D1F8B5
:100FE000FC322068A1F10802DB060AD0904227D12A
:100FF000086810F0405F23D1086840F08040086026
:101000001EE0904214D042F20022C4F2010290424B
:101010000AD042F20012C4F20102904210D1D1F87B
:10102000FC12C9060CD103E0D1F8FC12C90607D4A2
:10103000816811F0405F03D1816841F08041816097
:10104000002002B0B0BD000090F83C10012902BFA2
:10105000022108467047012180F83C1001688A6827
:1010600022F001028A608968C90705D1016C41F24A
:101070000112914301310164002180F83C100846BF
:1010800070470000B0B5002804BF0120B0BD044681
:1010900090F8200010B9204600F074F8206801682C
:1010A00041F00101016000F029FC0546206841681B
:1010B000C90705D100F022FC401B0B28F6D310E035
:1010C000016821F00201016000F018FC054600BF34
:1010D0002068416889070DD500F010FC401B0B28E3
:1010E000F6D3606A052140F400306062012084F884
:1010F0002010B0BD217E026822F08003012908BFC4
:1011000042F080030360617E026822F040030129FF
:1011100008BF42F040030360A17E026822F0200372
:10112000012908BF42F020030360E17E026842F01B
:101130001003012908BF22F010030360217F026819
:1011400022F00803012908BF42F008030360617F11
:10115000026822F00403012908BF42F0040303607F
:10116000D4E901C2D4E9033561691A432A43114322
:10117000ACF101021143C16100200121606284F8D9
:101180002010B0BD80B586B0002146F60002059162
:10119000CDE90311CDE90111C4F2000200689042CB
:1011A0003DD046F20041C4F20001884279D140F2BC
:1011B0002820C2F2000001684A1C0029026043F6A0
:1011C0004000C4F202000AD100210091016841F000
:1011D00000710160016801F0007100910099002127
:1011E000009150F8102C42F0010240F8102C50F8F9
:1011F000100C00F0010000900098092005900320D9
:10120000CDE90310022001A902904FF4C0500190D3
:101210000020C4F2020000F085FA06B080BD43F65B
:1012200040000091C4F20200016841F08061016059
:10123000016801F080610091009940F22821C2F21A
:1012400000010A68531C002A0B600AD1002100919A
:10125000016841F000710160016801F000710091C6
:1012600000990021009150F8102C42F0020240F841
:10127000102C50F8100C00F002000090009809208B
:1012800005900320CDE90310022001A902904FF43C
:10129000825001900020C4F2020000F5806000F04E
:1012A00041FA06B080BD000070B5866D044600F0BE
:1012B00025FB054694F83500022824D120680168F2
:1012C00021F016010160416921F080014161216C2A
:1012D00009B9A16C19B1016821F008010160016828
:1012E00021F00101016000E020680068C0070ED015
:1012F00000F004FB401B0528F6D920206065032080
:1013000084F835000CE080206065012008E0E06D85
:101310003F2101FA00F0B060012084F83500002080
:10132000002184F8341070BD90F83510022909D1DD
:10133000052180F835100068016821F00101016085
:10134000002070478021416501207047F0B581B0D1
:101350000446002048F2B5130821009040F2040032
:10136000C1F64E33C2F200000268D4E91660376855
:101370008140A2FB032539420CD0226813685B0729
:1013800008D5136823F004031360B160616D41F068
:101390000101616501218140394208D0226852690A
:1013A000120604D5B160616D41F00201616504214E
:1013B0008140394208D022681268920704D5B16092
:1013C000616D41F00401616510218140394215D001
:1013D00020680268120711D5B160026801685203E3
:1013E00006D4C9055EBF016821F00801016001E073
:1013F000080342D4216C09B120468847E16D2020C2
:1014000000FA01F23A4245D020680368DB0641D574
:10141000B26094F835300268052B1ED122F0160216
:101420000260426922F080024261226C0AB9A26C19
:101430001AB1026822F0080202603F208840B060C2
:10144000002084F83400012084F83500216D002943
:1014500058D02046884701B0F0BD0168520310D42F
:10146000C90513D4016821F010010160002084F83F
:101470003400012084F8350008E0A16C0029BBD1BC
:10148000BCE7080302D4616C11B903E0E16B09B158
:1014900020468847606DA8B3606DC0072ED0052137
:1014A000A80A84F8351021680A6822F001020A604F
:1014B000009A0132824200921AD80A68D20717D0E5
:1014C000009A01328242009212D80A68D2070FD0E5
:1014D000009A0132824200920AD80A68D20707D0E5
:1014E000009A01328242009202D80A68D207DFD104
:1014F000002084F83400012084F83500E16C09B143
:101500002046884701B0F0BD2DE9F041044600F0C7
:10151000F5F9002C04BF0120BDE8F081054600204C
:1015200084F83400022084F835002168086820F02F
:101530000100086001E000BF21680868C00708D00A
:1015400000F0DCF9401B0528F6D9032520230320F1
:1015500062E048F23F020868D4E9013504F10C0862
:10156000CFF2100200EA020C98E8C101D4E9072E7C
:1015700043EA0C032B431843636A30433843042B7C
:1015800040EA080040EA020040EA0E021DD1D4E918
:101590000BE042EA0E02BEF1000F40EA02000860D2
:1015A0004869A26A20F0030040EA020040F0040CFF
:1015B00011D0B8F5005F34D0B8F1000F42D1022A43
:1015C00043D0012A37D032B93FE00A60486920F0A1
:1015D000070040EA030C6FF00F0040F2FF32C1F841
:1015E00014C00023012550FA81F091434AF6AB2242
:1015F000CAF6AA225F2888BF0431A165A0FB0202B7
:10160000100947F63832C0F60002105C3F22E06550
:1016100002FA00F088600020636584F83550BDE868
:10162000F081032AD7D8012540230120DFE802F00A
:10163000020D0203F0E7AEF1C070B0FA80F040098D
:1016400038B9C8E7032A04D3C5D1CEF30060002817
:10165000C1D0012540230120DEE7000010B590F83D
:1016600034C0BCF1010F47D04FF0010CD0F858E066
:1016700080F834C090F835C0BCF1010F39D14FF07B
:10168000020C80F835C04FF0000CC0F854C0D0F800
:1016900000C0DCF8004024F48024CCF80040CCF8F2
:1016A00004308368402B0B4608BF1346CCF8083043
:1016B00008BF0A46CCF80C20C16D3F2202FA01F1A6
:1016C000CEF80810DCF8001041F01601CCF800103C
:1016D000006C00281EBFDCF8000040F00800CCF8C9
:1016E0000000DCF8000040F00100CCF80000002011
:1016F00010BD002180F83410022010BDB0B50446A2
:1017000000F0FCF8054640F21620611CC2F2000011
:10171000007818BF044400BF00F0F0F8401BA0425E
:10172000FAD3B0BD2DE9F04F82B041F60043082254
:101730004FF0010A00264FF00008C4F2020398425D
:1017400000F13E4308BF072203F1FF734FEAB327BE
:10175000072F4FF0000738BF4FEAB322009208E08E
:101760000236043708F10108202E04BF02B0BDE89C
:10177000F08F0A680AFA08F912EA090FF0D0D1F8D6
:1017800004C00CF0030AAAF10102012A16D80322B0
:101790008468CD684FEA480BB2409443B5406FEA85
:1017A000020E25438560CCF30015446805FA08F560
:1017B00024EA0904254345600EE000BF0322BAF184
:1017C000030FB34602FA06F26FEA020E04D1B346E3
:1017D0004FF0030A21E000BFC2688C68BAF1020F23
:1017E00002EA0E0204FA0BF442EA0402C26014D1C7
:1017F00007F01C020F2303FA02F56FF0030303EA5C
:1018000058040444236AAB430D6905FA02F21A43F3
:101810002262D1F804C00CF0030A03680AFA0BF242
:101820001CF4403F4FF0010A03EA0E0342EA0302B0
:10183000026095D0002243F6004C07F00C050F24FF
:10184000019243F64402C4F2010CAC40C4F202021D
:101850001346126842F480421A601A6802F4804209
:10186000019228F00302019B62444FF60843CFF631
:10187000FF739E46D358A343009C04FA05F52B43FF
:1018800042F80E30DCF808204D6842EA0903EC0209
:1018900058BF22EA090343F60C42CCF80830AC02E8
:1018A000C4F201029646126842EA090358BF22EACE
:1018B0000903CEF80030AC03DCF8042042EA090347
:1018C00058BF22EA0903CCF80430ED03DCF800200D
:1018D00042EA090358BF22EA0903CCF800303FE787
:1018E000426902EA0103914341EA03418161704781
:1018F000002A08BF090481617047000040F6B86003
:10190000C2F2000000687047B0B5A8B3044690F872
:101910003D0028B9002084F83C00204600F0C2F8C1
:10192000242084F83D002068016821F00101016055
:10193000016841F400410160016821F40041016047
:1019400000F086FA48F2804140F600120023C0F20F
:101950001E01C0F23D0288424FF0000138BF012154
:10196000904248F2A16238BF01236568C0F20102CB
:10197000954238BF0B460BB10120B0BD4DF68361D7
:10198000C4F21B31A0FB011221684B6823F03F0316
:1019900043EA92434B60930C0A6A22F03F0C48F2F0
:1019A000A062C0F20102954213D85A1C01384CF6CD
:1019B000FF7342EA0C020A626A00B0FBF2F00130E7
:1019C0006FF31F30042898BF0420CA6922EA030C71
:1019D0003FE04FF49672A0F1010E5A4344F6D35300
:1019E000C1F26203A2FB0323012202EB93124CF625
:1019F000FF7342EA0C020A62CA6922EA030CA36876
:101A00009BB1192004226843BEFBF0F0013062F361
:101A10001F30000512D09BB1192004226843BEFB81
:101A2000F0F0013062F31F3011E005EB4500BEFB22
:101A3000F0F001306FF31F300005ECD1012008E019
:101A400005EB4500BEFBF0F001306FF31F3040F4B2
:101A5000004040EA0C00C8610868D4E9072320F080
:101A6000C000104348F2FF32184308608868904372
:101A7000D4E90323184310438860C868D4E90523D8
:101A800020F0FF0010431843C860086840F00100D0
:101A9000086000202021206484F83D10206384F831
:101AA0003E00B0BDB0B586B0002445F600010594F7
:101AB000CDE90344CDE90144C4F200010068884245
:101AC00031D045F20041C4F20001884254D143F6BE
:101AD0003005002401A90094C4F20205286840F0F2
:101AE00002002860286800F002000090009804209E
:101AF00005900320CDE90340122002904FF4C070FE
:101B0000019040F20040C4F20200FFF70BFE009487
:101B1000286940F400102861286900F40010009042
:101B2000009806B0B0BD43F63005009401A9C4F298
:101B30000205286840F002002860286800F00200D2
:101B400000900098042005900320CDE90340122066
:101B500002904FF44060019040F20040C4F2020055
:101B6000FFF7E0FD0094286940F4800028612869AF
:101B700000F480000090009806B0B0BD40F216203E
:101B800040F6B861C2F20000C2F2000100780A68B3
:101B9000104408607047000080B543F60040C4F26E
:101BA0000200016841F400710160016841F4806144
:101BB0000160016841F480710160032000F088F841
:101BC0000F2000F005F800F029F8002080BD00008B
:101BD000B0B5044640F216204FF47A71C2F200000C
:101BE0000078B1FBF0F040F20401C2F20001096894
:101BF000B1FBF0F000F0B8FE01250F2C0CD858B95D
:101C00004FF0FF3021460022002500F033F840F26B
:101C10001820C2F2000004602846B0BD82B043F62E
:101C2000400100200190C4F202014A6842F480425F
:101C30004A604A6802F480420192019A0090086862
:101C400040F080500860086800F0805000900098D4
:101C500002B070470028B8BF704700F01F01012292
:101C6000400902FA01F14EF20012CEF2000242F8EF
:101C70002010704710B500F00F034EF60C5E00F117
:101C8000604CB0F1FF3FA3F10403CEF2000E7344A9
:101C900003F10C04C8BF0CF56444DEF800004FF0FB
:101CA000FF3CC0F30220C31E80F0070038BF0023B2
:101CB000042828BF04200CFA00F021EA00000CFAE6
:101CC00003F1984022EA010108430001207010BD91
:101CD0004EF60C514FF6FF03CEF200010A681A408F
:101CE00060F30A2242F0806040F0FD7008607047A7
:101CF0002DE9F041002800F0A88043F608080446CA
:101D00000D46C4F20208D8F8F80300F00700884234
:101D100008D288F8F853D8F8F80300F00700A84272
:101D200040F093802068810717D5410742BFD8F85B
:101D3000001041F4E051C8F80010010742BFD8F884
:101D4000001041F46041C8F80010D8F80010A268F3
:101D500021F0F0011143C8F80010C00736D06068C8
:101D6000811E022907D258F8081C89015CBF012096
:101D7000BDE8F0810DE0012807D158F8081C89035F
:101D80005CBF0120BDE8F08103E058F8081C89071A
:101D90005BD5D8F8001021F003010843C8F8000013
:101DA000FFF7ACFD064641F2883707E0FFF7A6FDD6
:101DB000801BB84284BF0320BDE8F081D8F8000042
:101DC000616800F00C00B0EB810FEFD1D8F8F80398
:101DD00000F00700A84207D988F8F853D8F8F803AC
:101DE00000F00700A84230D12068410707D5D8F895
:101DF0000010E26821F4E0511143C8F80010000718
:101E000008D5D8F80000216920F4604040EAC100FC
:101E1000C8F8000000F044F8D8F8001047F6FE2299
:101E2000C0F60002C1F30311515CC84040F2040146
:101E3000C2F20001086040F21820C2F200000068FF
:101E4000FFF7C6FE0020BDE8F0810120BDE8F0816B
:101E500040F2040043F6080147F60E32C2F20000D9
:101E6000C4F20201C0F6000200680968C1F38221D1
:101E7000515CC8407047000040F2040043F608017E
:101E800047F60E32C2F20000C4F20201C0F60002B0
:101E900000680968C1F34231515CC84070470000D6
:101EA00010B543F60404C4F20204606800F00C01AB
:101EB00042F20040C0F2F400082907D0042918BFFC
:101EC00010BD41F20020C0F27A0010BD21682368E5
:101ED00001F03F0221685B02C1F3881105D4A1FB28
:101EE00000010023FEF76EF906E041F20020C0F287
:101EF0007A004843B0FBF2F021680222C1F30141AD
:101F000002EB4101B0FBF1F010BD00002DE9F04102
:101F100082B0002800F051810446007843F60006A4
:101F2000C4F20206C00744D0B06800F00C000428D8
:101F300005D1306880033CD56068D0BB3DE1B06816
:101F400000F00C00082802D170684002F1D46768E4
:101F5000B7F5803F06D03068B7F5A02F13D140F415
:101F600080203060306840F480303060FFF7C6FC7D
:101F7000054600BF306880031BD4FFF7BFFC401B41
:101F80006428F7D9B6E020F480303060306820F45F
:101F900080203060FFF7B2FC0546002FEAD13068A0
:101FA000800306D5FFF7AAFC411B03206429F6D95C
:101FB00049E1207880072FD5B06810F00C0F07D0CA
:101FC000B06800F00C0008280AD17068400207D4FD
:101FD0003068800719D5E068012840F0EE8014E0F1
:101FE000E068002800F08A8000200121C4F2472028
:101FF0000160FFF783FC05463068800705D4FFF7D2
:102000007DFC401B0228F7D974E03068216920F07C
:10201000F80040EAC10030602078000723D56169EC
:102020000020C4F2472071B10121C0F8801EFFF7E3
:1020300065FC0546706F800715D4FFF75FFC401BF9
:102040000228F7D956E00021C0F8801EFFF756FCA1
:10205000054600BF706F800705D5FFF74FFC401B9A
:102060000228F7D946E02078400779D5306C4FF048
:102070000008C0000CD4CDF804804FF00108306C8B
:1020800040F080503064306C00F080500190019836
:1020900047F20007C4F200073868C0050FD438685B
:1020A00040F480703860FFF729FC05463868C005A9
:1020B00005D4FFF723FC401B0228F7D91AE0A768D4
:1020C000012F05D0306F052F2BD140F00400306771
:1020D000306F40F001003067FFF710FC054641F219
:1020E000883700BF306F800733D4FFF707FC401BF1
:1020F000B842F7D9032002B0BDE8F08100200021EA
:10210000C4F247200160FFF7F9FB054630688007FD
:102110007FF582AFFFF7F2FB411B03200229F5D9BF
:1021200091E020F001003067306F20F0040030674C
:10213000FFF7E4FB0546002FD1D141F28837306F1D
:10214000800706D5FFF7DAFB411B0320B942F6D919
:1021500079E0B8F1000F1EBF306C20F08050306481
:10216000A769002F6ED0B06800F00C00082828D1B5
:10217000012F22D07068E16900F480028A421CD1EC
:10218000216A00F03F028A4217D147F6C071626AA5
:102190000140B1EB821F10D1A16A4FF6FF72C90353
:1021A000914300F44032A1F580318A4205D1E16AC1
:1021B00000F07060B0EB016F44D0012002B0BDE8C8
:1021C000F08140F200080020C4F24728C8F86000FF
:1021D000FFF794FB0546022F0AD100BF306880014B
:1021E00010D5FFF78BFB411B03200229F6D92AE00B
:1021F0003068800126D5FFF781FB411B03200229AF
:10220000F6D920E004F11C078FCF0843D90340EA38
:1022100082104FF6FF72914340EA0760A1F58031CA
:10222000084370600120C8F86000FFF767FB0446B0
:102230003068800106D4FFF761FB011B03200229EF
:10224000F6D900E0002002B0BDE8F08170B550B1D1
:10225000D0F824C00446BCF1000F07D00021216152
:1022600004F1140108E00125284670BD6168B1F54C
:10227000827F03D004F11C0100220A6000254FF088
:10228000000EA56294F8511041B9204684F85050D0
:1022900000F040F8D4E909C101F4005E022284F89C
:1022A00051202268136823F040031360D4E9013001
:1022B000D4E9031603F4827300F4044001F40061CE
:1022C0001844084406F002010844616901F0010164
:1022D0000844A16901F400731844E36903F038036A
:1022E0001844236A03F08003184340EA0E0010608C
:1022F000042000EA11400CF0100108445060D0693D
:1023000020F40060D0610120656584F85100284602
:1023100070BD00002DE9F04387B0002543F60006AC
:102320000695CDE90455CDE90255C4F200060068D2
:10233000B04202D007B0BDE8F08343F6300001950B
:102340004FF005084FF00309022702ACC4F2020067
:10235000016941F480410161016901F48041019109
:1023600001990195016841F004010160016801F0E3
:102370000401019101990195016841F00201016098
:102380002146006800F0020001900198CDF8188005
:10239000CDE9045903970C20029006F5E830FFF7C9
:1023A000C1F94FF40050CDE90598CDE903752146F8
:1023B000029006F5E630FFF7B5F907B0BDE8F08307
:1023C0002DE9F04381B0044640681D4617460E468D
:1023D000B0F5827F02D1A06800285BD094F850004D
:1023E000012802BF022001B0BDE8F0834FF00109CF
:1023F00084F85090FFF782FA804694F85100012843
:1024000046D1002E4FF0010018BF002F77D00420D6
:1024100084F8510000206065E787A787A663A0863F
:102420002063C4E91000E086A1682068B1F5004F80
:1024300007D1016821F040010160016821F4804169
:102440000160016849065EBF016841F0400101601A
:10245000E18FE2685AB3002944D06E1C01E000BF4E
:1024600020688168C90707D1FFF748FA66B1A0EB79
:102470000800A84208D34AE0C068A16B21F8020B0B
:10248000A163E08F0138E087E08F0028E8D129E0E0
:10249000022034E00420314632463B4684F85100A5
:1024A0002046009500F034F901B0BDE8F083C9B1D1
:1024B0006E1C00E020688168C90707D1FFF71EFA8B
:1024C0006EB1A0EB0800A84209D322E0007BA16B0B
:1024D0000870A06B0130A063E08F0138E087E08FC7
:1024E0000028E7D120462946424602F087FC002812
:1024F0001CBF20206065606D002818BF01200021EE
:1025000084F8501084F8519001B0BDE8F0830320A6
:10251000F5E70320F3E700002DE9F04383B004461C
:1025200090F85000012802BF022003B0BDE8F083FC
:102530004FF001091D4616460F4684F85090FFF7EC
:10254000DDF9804694F8510001285BD1002F4FF04F
:10255000010018BF002E00F0CF80032084F8510046
:1025600000206065E686A6862763A087A063C4E98D
:102570001000E087A1682068B1F5004F07D101681D
:1025800021F040010160016841F48041016001686F
:1025900049065EBF016841F0400101606268711E3A
:1025A000E368B1FA81F1B2FA82F24909B3F5006F3A
:1025B0004FEA521241EA020126D131B137F8021B2B
:1025C000C1602763E18E0139E186E18E00293FD0A9
:1025D0006E1C00E020688168890707D4FFF78EF938
:1025E00066B1A0EB0800A84208D38DE0216B31F85A
:1025F000022BC2602163E08E0138E086E08E002865
:10260000E8D125E0022077E039B139780173206BF9
:1026100001302063E08E0138E086E08EC0B16E1C90
:1026200020688168890707D4FFF768F96EB1A0EBCD
:102630000800A84209D369E0216B09780173206B77
:1026400001302063E08E0138E086E08E0028E7D17B
:1026500040F2040049F68171C2F20000C1F25E61ED
:102660000068A0FB0101480D4FF47A7148430290C5
:102670006068B0F5827F0DD1204680212A4643460E
:1026800002F0F2FB50B3606D40F020006065202046
:10269000606523E0029808B3029801380290206830
:1026A000806800061AD50298C0B1029801380290DD
:1026B00020688068000611D5029878B10298013828
:1026C000029020688068000608D5029830B1029810
:1026D00001380290206880680006DBD4A06838B911
:1026E000002001902068C1680191806801900198E4
:1026F000606D002818BF0120002184F8501084F874
:10270000519003B0BDE8F0830320F5E70320F3E721
:102710002DE9F04383B0044690F85000012802BF31
:10272000022003B0BDE8F08301201E4615460F4687
:1027300084F85000FFF7E2F894F85110814601291F
:102740006CD1002F4FF0010018BF002D00F0038165
:10275000002E00F0008194F85100DDF82880042854
:102760001CBF052084F8510000206065E687A56342
:10277000A6872763C4E91000A686E686206801685C
:1027800049065EBF016841F0400101606268711E48
:10279000E368B1FA81F1B2FA82F24909B3F5006F48
:1027A0004FEA521241EA020147D131B137F8021B18
:1027B000C1602763E08E0138E086012608F101053B
:1027C000E08E10B9E08F002874D0206881688907F6
:1027D0000CD5E18E012E09D141B1216B002631F8D3
:1027E000022BC2602163E18E0139E1868168C9074D
:1027F0000AD0E18F41B1C068A16B012621F8020B1C
:10280000A163E08F0138E087FFF778F8002DD7D07B
:10281000A0EB09004045D3D303209CE06068B0F5ED
:10282000827F08D10220042940F09580A168002908
:102830003FF487AF8FE002208DE039B13978017322
:10284000206B01302063E08E0138E086012608F11C
:10285000010500BFE08E08B9E08F58B32068816899
:1028600089070ED5E18E012E0BD151B1216B0026C7
:1028700009780173216B206801312163E18E0139F0
:10288000E1868168C9070BD0E18F49B1C068A16BAF
:1028900001260870A06B0130A063E08F0138E0874B
:1028A000FFF72CF8002DD5D0A0EB09004045D1D37F
:1028B000032050E040F2040049F68171C2F20000AA
:1028C000C1F25E610068A0FB0101480D4FF47A710E
:1028D000484302906068B0F5827F0ED12046802187
:1028E00042464B4602F0C0FA58B3606D40F02000FB
:1028F00060652020606501202DE0029808B30298F1
:10290000013802902068806800061AD50298C0B18C
:1029100002980138029020688068000611D502985C
:1029200078B102980138029020688068000608D5C6
:10293000029830B102980138029020688068000641
:10294000DBD4A168002031B901902168CA680192E6
:10295000896801910199002184F85010012184F8BF
:10296000511003B0BDE8F083411E0020B0EB116FA1
:102970001CBF012070474EF21002F023CEF200027D
:1029800051604EF62351CEF200010B70072190608A
:1029900011607047704700007047000090F83C20BD
:1029A000012A02BF022108467047B0B501F10805AF
:1029B000D1E900CE3CCDC96923F47C5322F4705296
:1029C0001A432EF4F0431A432CF4E0431A4324F440
:1029D000C0431A432A4322F48042114302685164DF
:1029E000002180F83C10BDE8B04008467047000068
:1029F00090F83C300222012B55D010B580F83D20D4
:102A0000012280F83C200268D2F804E0D2F808C025
:102A10000C682EF070032343536041F2FF73C4F23D
:102A200000039A42BDE810400BDC40F2FF73C4F291
:102A300000039A4213DCB2F1804F29D040F20043E8
:102A400015E040F2FF33C4F201039A4214DC41F670
:102A50000003C4F200039A421AD0002314E040F6A7
:102A60000003C4F200039A4212D040F60043C4F2BD
:102A700000039A420CD010E044F20003C4F20103B8
:102A80009A4205D040F20043C4F201039A4204D1B5
:102A900049682CF08003194391600022012180F8DD
:102AA0003C2080F83D10104670470000002804BF0D
:102AB0000120704710B5044690F83D0028B9002069
:102AC00084F83C00204600F01FF80220211D84F805
:102AD0003D00206802F0B8FA012084F8460084F82E
:102AE0003E0084F83F0084F8400084F8410084F8F8
:102AF000420084F8430084F8440084F8450084F8D8
:102B00003D00002010BD000080B582B04FF6FF717F
:102B10000068C4F2000188421EDD44F20001C4F2E4
:102B20000101884235D040F20041C4F201018842DF
:102B300040D00021C4F20101884239D10020019027
:102B400043F64400C4F20200016841F00101016053
:102B5000006800F001003AE040F60001C4F2000114
:102B6000884238D041F60001C4F2000188421FD1EA
:102B70000020019043F64400C4F2020050F8041C07
:102B800041F0400140F8041C50F8040C00F04000F3
:102B90001DE00020019043F64400C4F202000168E9
:102BA00041F480310160006800F4803001900198A8
:102BB00002B080BD0020019043F64400C4F2020040
:102BC000016841F002010160006800F0020001901C
:102BD000019802B080BD00200022019043F644001D
:102BE000C4F2020050F8041C41F0040140F8041C37
:102BF000002150F8040C00F00400019001981E2000
:102C0000FFF738F81E2002B0BDE88040FFF722B879
:102C100090F83D1001291CBF01207047022180F867
:102C20003D100068C16841F00101C16041F2FF71CF
:102C3000C4F2000188420FDC40F2FF71C4F20001CF
:102C4000884217DCB0F1804F2DD040F20041C4F231
:102C50000001884227D02DE040F2FF31C4F201018B
:102C6000884214DC41F60001C4F2000188421AD007
:102C7000002114E040F60001C4F20001884212D0A5
:102C800040F60041C4F2000188420CD012E044F248
:102C90000001C4F20101884205D040F20041C4F2B3
:102CA0000101884206D1816801F00701062904BFAD
:102CB00000207047016841F0010101600020704769
:102CC00090F83C300222012B00F0C28080B580F8E1
:102CD0003D20012280F83C204FF67772D0F800C0EA
:102CE000DCF8083023EA0202CCF808200B684F2BEE
:102CF00028DC1F2B42DD202B43D0302B41D0402B32
:102D000040F0A880D1F804E0C968DCF82030DCF895
:102D1000202022F00102CCF82020DCF8182022F03C
:102D2000F00242EA0111CCF8181023F00A0141EA3E
:102D30000E01CCF82010DCF8081041F0470121F01A
:102D400030017AE06F2B24DDB3F5005F44D0B3F59A
:102D5000805F74D0702B7DD1D1E90123C9681A43FB
:102D600042EA0121DCF8082022F47F421143CCF82A
:102D70000810DCF8081041F077015EE00BB1102B71
:102D800068D1DCF8081021F07001194341F0070107
:102D900053E0502B32D0602B5CD14A68C968DCF814
:102DA000203023F01003CCF82030DCF8183023F466
:102DB000704343EA0131DCF82030CCF8181023F0DE
:102DC000A00141EA0211CCF82010DCF8081041F013
:102DD000670121F0100130E0D1E90123C9681A43ED
:102DE00042EA0121DCF8082022F47F421143CCF8AA
:102DF0000810DCF8081041F480411EE0D1F804E02E
:102E0000C968DCF82030DCF8202022F00102CCF880
:102E10002020DCF8182022F0F00242EA0111CCF860
:102E2000181023F00A0141EA0E01CCF82010DCF85A
:102E3000081041F0570121F02001CCF808100022C1
:102E4000002180F83C10012180F83D10BDE8804051
:102E5000104670470122F3E7002804BF01207047A5
:102E60002DE9F04F81B0044690F83D000D4628B999
:102E7000002084F83C00204600F048F8022044F28C
:102E8000070284F83D002068816891438160211D1C
:102E900002F0DAF820688168D0F818A0D0F820C0D5
:102EA000D5E9003ED5E902B7D5E90489D5E906267A
:102EB00019432B6A4BEA02224FF6FC4581604FF61C
:102EC000FF71AA432AEA01013943114341EA06216D
:102ED00041EA081141EA033181612CF0AA0141EA7B
:102EE0000E0141EA09110162012084F8460084F8CC
:102EF0003E0084F83F0084F8420084F8430084F8E0
:102F00003D00002001B0BDE8F08F00002DE9F04148
:102F100086B0002140F600420591CDE90311CDE9CC
:102F20000111C4F20002006890424FD040F200410B
:102F3000C4F2000188427AD0B0F1804F74D143F6D8
:102F400030000026002401274FF0020801AD009652
:102F5000C4F20200C4F20204016941F001010161FE
:102F6000016901F00101009100990096016841F0AA
:102F700001010160016801F00101009100990096D2
:102F8000016841F0020101602946006800F002007A
:102F9000009000980597CDE90376CDF808802020B1
:102FA00001902046FEF7BEFB0820CDE90467CDE97D
:102FB00002872946019004F58060FEF7B3FB1C20D0
:102FC00000210022FEF756FE1C205EE043F6300092
:102FD0000091C4F20200026942F008020261026933
:102FE00002F008020092009A0091026842F0010289
:102FF0000260006800F00100009000980220CDE916
:1030000004100121CDE90201032001A90190002053
:10301000C4F20200FEF786FB322000210022FEF7F8
:1030200029FE3220FEF716FE06B0BDE8F08143F619
:10303000300100200090C4F202010A6942F002024D
:103040000A610A6902F002020092009A00900A687E
:1030500042F002020A60096801F002010091009941
:103060000221CDE90401CDE90210302001A901902F
:103070000020C4F2020000F58060FEF753FB1D2023
:1030800000210022FEF7F6FD1D20FEF7E3FD06B04D
:10309000BDE8F08110B590F83E4090F83F3090F8D0
:1030A00042E090F843C0012204290BD0B1B9012CB1
:1030B00008BFBEF1010F42D1022180F83E1080F816
:1030C00042102DE0012B08BFBCF1010F37D10221C6
:1030D00080F83F1080F8431000681DE0012C08BF05
:1030E000012B2CD1BEF1010F29D1BCF1010F26D14A
:1030F0000222002980F83E2080F83F2080F84220FC
:1031000080F843200CD00068016A21F001010162BF
:10311000016A41F00101016210216FF0100203E029
:10312000006801216FF00102036A1A400262026A1C
:10313000114300220162016841F001010160104663
:1031400010BD00007047000010B50446006801691A
:10315000890744BFC1685FEA817138D401694907B2
:1031600044BFC1685FEA41713DD40169090744BFAA
:10317000C1685FEA017143D40169C90644BFC168EF
:103180005FEAC16148D40169C9071CBFC1685FEA31
:10319000C1714ED10169090644BFC1685FEA01618E
:1031A0004FD40169490644BFC1685FEA416150D408
:1031B0000169890646BFC1685FEA816110BD6FF091
:1031C000200101612046BDE81040FFF7E5BB6FF02C
:1031D00002010161012121778069800741D02046E9
:1031E000FFF7B0FF43E06FF0040101610221217796
:1031F000806910F4407F3ED02046FFF7A3FF40E0F7
:103200006FF00801016104212177C06980073CD07B
:103210002046FFF797FF3EE06FF0100101610821A3
:103220002177C06910F4407F39D02046FFF78AFF2C
:103230003BE06FF001010161204600F0DBFA2068FD
:10324000A8E76FF0800101612046FFF7A3FB20682B
:10325000A7E76FF040010161204600F0E5FA206821
:10326000A6E7204600F0EAF8204600F02BFA0020FE
:103270002077206872E7204600F0E0F8204600F052
:1032800021FA0020207720686FE7204600F0D6F86A
:10329000204600F017FA0020207720686CE72046CF
:1032A00000F0CCF8204600F00DFA002020772068CE
:1032B00069E7000080B586B000210591CDE90311D2
:1032C000CDE901114FF6FF710068C4F20001884298
:1032D0002FDD44F20001C4F2010188424DD040F2DA
:1032E0000041C4F20101884269D00021C4F2010109
:1032F000884262D143F6300100200090C4F20201FE
:103300000A6842F010020A60096801F01001009199
:10331000009901210591CDE90300022002904FF4AC
:10332000D440019040F20040C4F2020000F5406039
:103330007FE040F60001C4F2000188425ED041F611
:103340000001C4F20001884237D143F63001002069
:103350000090C4F202010A6842F002020A600968A1
:1033600001F002010091009909210591CDE90300C6
:10337000022002904FF4404056E043F63001002016
:103380000090C4F202010A6842F010020A60096863
:1033900001F010010091009903210591CDE903008E
:1033A000022001A902906020019040F20040C4F286
:1033B000020000F54060FEF7B5F906B080BD43F6A7
:1033C000300100200090C4F202010A6842F00402B9
:1033D0000A60096801F00401009100990321059138
:1033E000CDE90300022002904FF47070019040F28A
:1033F0000040C4F2020000F580601AE043F630019C
:1034000000200090C4F202010A6842F002020A6041
:10341000096801F00201009100990221CDE904013F
:10342000CDE902104FF40070019040F20040C4F268
:10343000020001A9FEF776F906B080BD70470000D2
:1034400090F83C30012B02BF0223184670474FEA28
:10345000B2020123032A80F83C3000F2FE802DE9FD
:10346000F041DFE802F002407FBF03681A6A22F0F1
:1034700001021A621A46D3F820E0D3F804C052F8C9
:10348000187F8C680E682EF0020544EA050E27F0BE
:10349000730443F4806544EA060840F20046C4F22F
:1034A0000106B5420DD1CD68D1E905672CF4407411
:1034B000264346EA070C2EF00C0725F0040646EAE0
:1034C000070EC3F804C0C3F818804F685F63C3F8E1
:1034D00020E09F6947F008079F619F6927F0040774
:1034E0009F610969B3E003681A6A22F010021A6248
:1034F0001A461F6AD3F804C052F8184F8E680D6838
:1035000027F0200724F4E64447EA061E40F200466E
:1035100044EA052843F48065C4F20106B54210D19F
:10352000CD68D1E905672CF4406444EA86066FF063
:10353000400446EA870C04EA05142EF0C00744EA6A
:10354000070EC3F804C0C3F818804F689F63C3F820
:1035500020E09F6947F400679F619F6927F48067B7
:103560009F6172E003681A6A22F480721A621A4636
:103570001F6AD3F804C052F81C4F8E680D6827F4F8
:10358000007724F0730447EA062E40F2004644EA2E
:10359000050843F48065C4F20106B54210D1CD6838
:1035A000D1E905672CF4405444EA06162C0240F297
:1035B000FF4546EA071CAC432EF4406744EA070E79
:1035C000C3F804C0C3F81C804F68DF63C3F820E071
:1035D000DF6947F00807DF61DF6927F00407DF6173
:1035E000096934E003681A6A22F480521A621A46A2
:1035F000D3F820C0D3F8048052F81C6F8F680D6890
:103600002CF4005444EA073C26F4E64743F4806473
:1036100047EA052E40F20045C4F20105AC4202BF64
:103620004C6928F4804545EA8418C3F80480C3F83F
:103630001CE04F681F64C3F820C0DF6947F40067CF
:10364000DF61DF6927F48067DF61096909021368B8
:10365000194300231160BDE8F041002180F83C10BF
:1036600018467047002804BF0120704710B5044673
:1036700090F83D0028B9002084F83C00204600F076
:103680001FF80220211D84F83D00206801F0DCFCB9
:10369000012084F8460084F83E0084F83F0084F856
:1036A000400084F8410084F8420084F8430084F824
:1036B000440084F8450084F83D00002010BD00005F
:1036C000704700007047000041B1082909D0042963
:1036D00014BF00F1410200F13F0204E000F13E029C
:1036E00001E000F140021278012A1CBF012070475E
:1036F000022241B1082909D0042914BF80F84120D1
:1037000080F83F2004E080F83E2001E080F840206F
:10371000006801F01F01012202FA01F1026A8A43E6
:103720000262026A1143016241F2FF71C4F20001B8
:1037300088420FDC40F2FF71C4F20001884217DCBE
:10374000B0F1804F49D040F20041C4F200018842FC
:1037500043D049E040F2FF32C4F20102904214DC4F
:1037600041F60003C4F20003984236D0002314E06F
:1037700040F60001C4F2000188422ED040F600411C
:10378000C4F20001884228D02EE044F20003C4F2C3
:103790000103984221D040F20043C4F20103984251
:1037A00022D1436C884243F400434364C2DD90421B
:1037B00007DC41F60001C4F2000188420DD000216F
:1037C00007E044F20001C4F20101884205D040F252
:1037D0000041C4F20101884206D1816801F007016D
:1037E000062904BF00207047016841F00101016013
:1037F0000020704740F68411C2F2000188420CD0CC
:1038000040F65C21C2F20001884218BF704740F6C2
:103810006040C2F2000002F0B3BF40F6B850C2F2FE
:10382000000002F0ADBF00007047000070470000CC
:103830007047000010B582B0D0F800E00446DEF812
:103840000010DEF80C20DEF814305FEA017C00F096
:10385000C38002F4907003F00103C01800F0FF80F1
:10386000C8071FBF12F48070206C40F00100206474
:10387000480705D5002B1EBF206C40F002002064D5
:10388000880705D5002B1EBF206C40F00400206483
:10389000BCF1000F07D502F02000C0181EBF206C3D
:1038A00040F008002064206C002800F06F8202EADB
:1038B0000100800604D5204601F060FCD4F800E049
:1038C000DEF81400216C00F0400001F008014018FF
:1038D00000F0A0815EE8030F03E000BF206850E81D
:1038E000030F216820F4907041E80302E2B12068E0
:1038F00050E8030F216820F4907041E803029AB168
:10390000206850E8030F216820F4907041E803021A
:1039100052B1206850E8030F216820F4907041E80C
:103920000302002ADAD100BF206850E8050F2168A1
:1039300020F0010041E80502DAB1206850E8050FE7
:10394000216820F0010041E8050292B1206850E8AA
:10395000050F216820F0010041E805024AB1206806
:1039600050E8050F216820F0010041E80502002A17
:10397000DAD1206B012824D1206850E8030F216898
:1039800020F0100041E80302DAB1206850E8030F8C
:10399000216820F0100041E8030292B1206850E84D
:1039A000030F216820F0100041E803024AB12068AB
:1039B00050E8030F216820F0100041E80302002ABC
:1039C000DAD1202084F83E0000202063206841697D
:1039D000490640F119810AE011408A0640D5204687
:1039E00002B0BDE8104001F0C9BB00BF206850E83C
:1039F000050F216820F0400041E80502DAB1206897
:103A000050E8050F216820F0400041E8050292B11E
:103A1000206850E8050F216820F0400041E80502C9
:103A20004AB1206850E8050F216820F0400041E8C5
:103A30000502002ADAD1A06B002800F0E58045F2EB
:103A40007111C0F600010165FDF76EFC002800F061
:103A50009D81A06B016D02B0BDE810400847114088
:103A6000226BC8061CD5012A1AD100200190DEF86D
:103A700000000190DEF8040001900198DEF81400C7
:103A8000400600F19880E18DA28DE08D00281CBFDA
:103A9000511A5FEA014000F079815EE8030F17E0F8
:103AA000080600F19D80480640F17081DEF80C00A8
:103AB00020F04000CEF80C00202084F83D00204685
:103AC00002B0BDE8104000F001BC206850E8030FD0
:103AD000226820F4907042E80303DBB1206850E8CC
:103AE000030F226820F4907042E8030393B120682A
:103AF00050E8030F226820F4907042E803034BB1B2
:103B0000206850E8030F226820F4907042E8030315
:103B1000002BDAD1206850E8050F226820F0010060
:103B200042E80503DBB1206850E8050F226820F069
:103B3000010042E8050393B1206850E8050F2268B0
:103B400020F0010042E805034BB1206850E8050F62
:103B5000226820F0010042E80503002BDAD1202082
:103B600084F83E0000202063206850E8030F22689C
:103B700020F0100042E80303DBB1206850E8030F97
:103B8000226820F0100042E8030393B1206850E857
:103B9000030F226820F0100042E803034BB12068B5
:103BA00050E8030F226820F0100042E80303002BC6
:103BB000DAD189B2D7E0A26B1068436899B20029C4
:103BC00000F0E480B4F82CC0614580F0DF80E3852C
:103BD000D069B0F5807F00F0C2805EE8030F23E07B
:103BE00094F83D00212840F0D180A068B0F5805FB6
:103BF00003D12069002800F0BC80206A411C2162AA
:103C00000078CEF80400BCE0204602B0BDE81040C9
:103C1000FFF70EBE2046FFF70BFE0020206402B027
:103C200010BD206850E8030F216820F4807041E83F
:103C30000302DAB1206850E8030F216820F4807095
:103C400041E8030292B1206850E8030F216820F494
:103C5000807041E803024AB1206850E8030F2168F0
:103C600020F4807041E80302002ADAD1206850E88D
:103C7000050F216820F0010041E80502DAB1206853
:103C800050E8050F216820F0010041E8050292B1DB
:103C9000206850E8050F216820F0010041E8050286
:103CA0004AB1206850E8050F216820F0010041E882
:103CB0000502002ADAD1206850E8050F216820F0BB
:103CC000400041E80502DAB1206850E8050F21689C
:103CD00020F0400041E8050292B1206850E8050F4D
:103CE000216820F0400041E805024AB1206850E810
:103CF000050F216820F0400041E80502002ADAD1D2
:103D0000202084F83E0000202063206850E8030F44
:103D1000216820F0100041E80302DAB1206850E881
:103D2000030F216820F0100041E8030292B12068DF
:103D300050E8030F216820F0100041E803024AB167
:103D4000206850E8030F216820F0100041E80302CA
:103D5000002ADAD1A06BFDF7A7FAB4F82CC0E08DE9
:103D6000ACEB000081B2204602B0BDE81040FFF786
:103D70005DBD206A30F8021B6FF35F21CEF804109E
:103D80002062E08C0138E084000401D002B010BD54
:103D9000DEF80C0020F08000CEF80C00DEF80C00FD
:103DA00040F04000CEF80C0002B010BD002804BF67
:103DB0000120704710B5044690F83D0028B9002056
:103DC00084F83C00204600F021F8242084F83D00CF
:103DD0002068C16821F40051C160204601F04AFA10
:103DE0002068016921F490410161416921F02A01B3
:103DF0004161C16841F40051C1600020202120646C
:103E000084F83D1084F83E1010BD000080B586B0E7
:103E1000002144F200420591CDE90311CDE90111E1
:103E2000C4F200020068904242D044F60001C4F29D
:103E30000001884266D041F20001C4F201018842CB
:103E400040F08A8043F6300100200090C4F2020165
:103E50004A6942F010024A614A6902F01002009277
:103E6000009A00900A6842F001020A60096801F0B5
:103E7000010100910099072105910321CDE903017A
:103E8000022001A902904FF4C060019040F600406A
:103E9000C4F20200A0F54060FDF744FC252000219B
:103EA0000022FDF7E7FE2520FDF7D4FE06B080BD19
:103EB00043F630000091C4F20200026942F400327D
:103EC0000261026902F400320092009A00910268D5
:103ED00042F008020260006800F0080000900098BC
:103EE000072005900320CDE90310022001A90290CC
:103EF0006020019040F60040C4F20200FDF712FC81
:103F000006B080BD43F6300100200090C4F20201EB
:103F10000A6942F480220A610A6902F4802200924E
:103F2000009A00900A6842F008020A60096801F0ED
:103F3000080100910099072105910321CDE90301B2
:103F4000022001A902904FF44070019040F6004019
:103F5000C4F20200FDF7E6FB06B080BD90F83E30EB
:103F6000202B0BD100294FF0010318BF002A01D1EB
:103F70001846704790F83C30012B02D102231846B6
:103F8000704700230363C285036482858162222116
:103F900080F83C30002380F83E100168006900285A
:103FA0001EBFC86840F48070C860486940F00100D6
:103FB0004861C86840F02000C8601846704700009B
:103FC0002DE9F04140F63431C2F20001884256D169
:103FD00040F6B06840F64C66C2F20008C2F2000635
:103FE000B8F800104C1C705CA1B2632988BF002493
:103FF000A8F800400A2808D00D2822D140F6B46065
:104000000121C2F2000001601BE040F6B467C2F279
:1040100000073868012812D140F6D04540F64C61BF
:10402000A2B2C2F20005C2F20001A81CFCF7FBF824
:10403000A5F8CA4000243C60A8F8004001E0002038
:10404000386016FA84F140F634340122C2F20004DA
:104050002046FFF783FF002808BFBDE8F081002756
:10406000202500BF84F83C7084F83E500122B8F847
:10407000000031182046FFF771FF0028F2D1BDE89B
:10408000F08100002DE9F047044690F83D0020281B
:104090000DD10F460120002900F016811646002A96
:1040A00008BFBDE8F08794F83C00012802D1022047
:1040B000BDE8F0874FF0000A01201D46C4F840A07B
:1040C00084F83C00212084F83D00FDF717FCE684CD
:1040D000A6848046A068B0F5805F07D126694FF0BE
:1040E0000009002E0CBFB9463E4602E03E464FF0A6
:1040F000000984F83CA0E28C206801681AB36F1CA8
:10410000090604D50EE000BF016809060AD4002F95
:10411000FAD07DB3FDF7F2FBA0EB0800A84229D846
:104120002068F1E716B116F8011B04E039F8021B0C
:1041300000266FF35F214160E18C0139E184E28C5C
:104140000168002AE1D149060DD46E1C46B1002D4C
:1041500066D0FDF7D3FBA0EB0800A84260D820682A
:1041600001684906F2D5202084F83D000020BDE812
:10417000F08700BF206850E8030F216820F4D0705A
:1041800041E80302E2B1206850E8030F216820F4FF
:10419000D07041E803029AB1206850E8030F21680B
:1041A00020F4D07041E8030252B1206850E8030FB8
:1041B000216820F4D07041E80302002ADAD100BF60
:1041C000206850E8050F216820F0010041E8050251
:1041D000DAB1206850E8050F216820F0010041E8BD
:1041E000050292B1206850E8050F216820F0010017
:1041F00041E805024AB1206850E8050F216820F027
:10420000010041E80502002ADAD12020002184F8CB
:104210003D0084F83C1084F83E000320BDE8F087A0
:10422000206850E8030F216820F4D07041E80302B1
:10423000E2B1206850E8030F216820F4D07041E813
:1042400003029AB1206850E8030F216820F4D0706F
:1042500041E8030252B1206850E8030F216820F4BE
:10426000D07041E80302002ADAD100BF206850E88C
:10427000050F216820F0010041E80502DAB120684D
:1042800050E8050F216820F0010041E8050292B1D5
:10429000206850E8050F216820F0010041E8050280
:1042A0004AB1206850E8050F216820F0010041E87C
:1042B0000502002ADAD12020002184F83D0084F88C
:1042C0003C1084F83E000320BDE8F08770470000F2
:1042D000FEE70000B0B584B040F26C6042F200022C
:1042E000012300244FF480310125C2F20000C4F202
:1042F0000102C0F60073C46280F820400476836235
:1043000080F83040C561C0E90021C0E90244C0E93D
:104310000445CDE90244CDE90044FCF77DFB0028CB
:1043200018BFFCF7C5FA0620CDE901546946009094
:1043300040F26C60C2F20000FCF7C0FA002818BF1F
:10434000FCF7B6FA04B0B0BD10B584B040F2B4606A
:10435000012442F2001300214FF48032C2F2000027
:10436000C0F60074C4F20103C16280F82010017627
:104370008462012480F83010C461C0E90032C0E9D1
:104380000211C0E90414CDE90211CDE90011FCF7D6
:1043900043FB002818BFFCF78BFA07206946CDE9DC
:1043A00001400220009040F2B460C2F20000FCF72D
:1043B00085FA002818BFFCF77BFA04B010BD000096
:1043C000B0B584B040F2FC6042F200224FF0805160
:1043D00000244FF010630125C2F20000C4F2010274
:1043E000C1624FF4803180F820400476836280F807
:1043F0003040C561C0E90021C0E90244C0E904457C
:10440000CDE90244CDE90044FCF706FB002818BFC3
:10441000FCF74EFA0320CDE901546946009040F2C2
:10442000FC60C2F20000FCF749FA002818BFFCF754
:104430003FFA04B0B0BD000080B540F2447046F2CF
:10444000004210210023C2F20000C4F20002838364
:10445000C0E90021C0E90233C0E904338361FCF7FD
:1044600011FE002814BFBDE8804080BDFCF720BAD3
:1044700080B540F26C7046F6000210210023C2F2B3
:104480000000C4F200028383C0E90021C0E90233C6
:10449000C0E904338361FCF7F5FD002814BFBDE8D3
:1044A000804080BDFCF704BA80B582B000200022B5
:1044B000019043F63000C4F20200016841F480012B
:1044C00001600021006800F480000190019838200C
:1044D000FDF7D0FB382002B0BDE88040FDF7BABB45
:1044E0002DE9F04786B043F63000002740F600057E
:1044F000002205970097C4F20200C4F20205016889
:1045000005F5006841F010010160016801F010013B
:10451000009100990097016841F004010160016871
:1045200001F00401009100990097016841F08001B9
:104530000160016801F08001009100990097016815
:1045400041F001010160016801F001010091009951
:104550000097016841F002010160016801F0020169
:10456000009100990097016841F008010160052160
:10457000006800F00800009000984046FDF7B8F988
:1045800028464FF4005100224FF4005AFDF7B0F9CD
:104590002846022101224FF002090124FDF7A8F963
:1045A00001AE04200497CDE9024701904046314610
:1045B000FDF7B8F828463146CDE90377CDE901A4E7
:1045C000FDF7B0F84FF0030A28463146CDE9034A1B
:1045D000CDE90194FDF7A6F84FF40040CDE902744F
:1045E00031460190A5F50060FDF79CF84FF480601E
:1045F000CDE90279314601902846FDF793F840460F
:104600003146CDE9037ACDE90144FDF78BF806B0D8
:10461000BDE8F08780B540F2F47048F2A06345F23F
:1046200000414FF4804C0022C2F20000C0F20103AE
:10463000C4F200010262C0E90013C0E90222C0E92D
:1046400004C2C0E90622FDF75FF9002814BFBDE8E7
:10465000804080BDFCF72CB980B540F6480048F298
:10466000A06345F600014FF4804C0022C2F2000026
:10467000C0F20103C4F200010262C0E90013C0E904
:104680000222C0E904C2C0E90622FDF73DF9002874
:1046900014BFBDE8804080BDFCF70AB980B540F684
:1046A0009C0043F6000200230A214FF4827C4FF065
:1046B000100EC2F20000C4F20002C0E90833C0E9E3
:1046C0000A314FF40071C0E9002CC0E90233C0E99F
:1046D0000433C0E9061EFDF7B9FD002814BFBDE88C
:1046E000804080BDFCF7E4B880B58CB040F63C104B
:1046F00041F60002002142F20F7CA723C2F2000023
:10470000C4F20002CDE90A11CDE908118161C0E9C6
:104710000023C0E9021C01610791CDE90511CDE933
:104720000311CDE90111FEF7C1F9002818BFFCF70C
:10473000BFF84FF4805008A9089040F63C10C2F230
:104740000000FEF7BDFA002818BFFCF7B1F840F6EC
:104750003C10C2F20000FEF785FF002818BFFCF7EE
:10476000A7F8002001A900220590CDE902006020F1
:10477000019040F63C10C2F20000FEF761FE0028F6
:1047800018BFFCF795F840F63C1001A90422C2F2CC
:104790000000FEF755FE002818BFFCF789F840F628
:1047A0003C10C2F20000FEF785FD0CB080BD000099
:1047B00010B596B040F6F4000023002142F20F72CB
:1047C000C2F20000C4F201031591CDE91311CDE945
:1047D0001111CDE90F11CDE90D11CDE90B11CDE985
:1047E0000911C0E90031C0E90212C0E90411816178
:1047F000CDE90711CDE90511CDE90311CDE901118D
:10480000FEF754F9002818BFFCF752F84FF4805017
:1048100012A9129040F6F400C2F20000FEF750FA1E
:10482000002818BFFCF744F840F6F400C2F200007C
:10483000FEF718FF002818BFFCF73AF840F6F4001E
:10484000002410A9C2F20000CDE91044FEF7D0F810
:10485000002818BFFCF72CF86020CDE90E44CDE904
:104860000C44CDE90A4409A90022099040F6F4005D
:10487000C2F20000FEF7E4FD002818BFFCF718F8AC
:1048800040F6F40009A90422C2F20000FEF7D8FDA8
:10489000002818BFFCF70CF840F6F40009A908221C
:1048A000C2F20000FEF7CCFD002818BFFCF700F8AC
:1048B00040F6F40009A90C22C2F20000FEF7C0FD88
:1048C000002818BFFBF7F4FF002001A90590CDE9EF
:1048D0000300CDE9010008904FF40050069040F627
:1048E000F400C2F20000FEF759F8002818BFFBF7E9
:1048F000DFFF40F6F400C2F20000FEF7DBFC16B06A
:1049000010BD000010B58CB040F6841000244FF6A6
:10491000FF714FF08042C2F200008461C0E90024C0
:10492000C0E9024101210461CDE90044CDE90A4416
:10493000CDE90841CDE90644CDE9044103210391C5
:1049400003A9FEF789FA002818BFFBF7B1FF40F66C
:1049500084106946CDE90044C2F20000FEF748F831
:10496000002818BFFBF7A4FF0CB010BD10B58CB029
:1049700040F6CC1040F2004200244FF6FF71C2F224
:104980000000C4F200028461C0E90024C0E90241D1
:1049900001210461CDE90044CDE90A44CDE9084193
:1049A000CDE90644CDE904410321039103A9FEF7B3
:1049B00053FA002818BFFBF77BFF40F6CC1069467E
:1049C000CDE90044C2F20000FEF712F8002818BF3B
:1049D000FBF76EFF0CB010BD10B58EB040F6142082
:1049E00040F60003002140F29F22C2F20000C4F210
:1049F0000003CDE90C11CDE90A11CDE9081181615F
:104A0000C0E90031C0E9021201610791CDE9051149
:104A1000CDE90311CDE90111FEF748F8002818BFD0
:104A2000FBF746FF4FF480500AA90A9040F6142085
:104A3000C2F20000FEF744F9002818BFFBF738FF68
:104A400040F61420C2F20000FEF70CFE002818BF4A
:104A5000FBF72EFF0024702008A90994089040F667
:104A60001420C2F20000FDF7C3FF002818BFFBF7B7
:104A70001FFF4FF4A8700594039401A90C22029023
:104A80006020019040F61420C2F20000FEF7D8FC2E
:104A9000002818BFFBF70CFF40F61420C2F20000FC
:104AA000FEF708FC0EB010BD10B58CB040F65C20CF
:104AB00040F6004200244FF6FF71C2F20000C4F23B
:104AC00000028461C0E90024C0E9024101210461BF
:104AD000CDE90044CDE90A44CDE90841CDE90644D9
:104AE000CDE904410321039103A9FEF7B5F900289C
:104AF00018BFFBF7DDFE40F65C206946CDE90044B7
:104B0000C2F20000FDF774FF002818BFFBF7D0FECB
:104B10000CB010BD10B596B040F6A42040F2004392
:104B2000002142F20F72C2F20000C4F2010315919B
:104B3000CDE91311CDE91111CDE90F11CDE90D1119
:104B4000CDE90B11CDE90911C0E90031C0E902122C
:104B5000C0E904118161CDE90711CDE90511CDE965
:104B60000311CDE90111FDF7A1FF002818BFFBF7E4
:104B70009FFE4FF4805012A9129040F6A420C2F27A
:104B80000000FEF79DF8002818BFFBF791FE40F6E5
:104B9000A420C2F20000FEF765FD002818BFFBF755
:104BA00087FE40F6A420002410A9C2F20000CDE93F
:104BB0001044FDF71DFF002818BFFBF779FE6020A9
:104BC000CDE90E44CDE90C44CDE90A4409A90022FF
:104BD000099040F6A420C2F20000FEF731FC002844
:104BE00018BFFBF765FE40F6A42009A90422C2F213
:104BF0000000FEF725FC002818BFFBF759FE40F621
:104C0000A42009A90822C2F20000FEF719FC00281E
:104C100018BFFBF74DFE40F6A42009A90C22C2F2F2
:104C20000000FEF70DFC002818BFFBF741FE002036
:104C300001A90590CDE90300CDE9010008904FF4EA
:104C40000050069040F6A420C2F20000FDF7A6FE38
:104C5000002818BFFBF72CFE40F6A420C2F200008B
:104C6000FEF728FB16B010BD80B58CB040F6EC20E6
:104C700044F20002002142F20F7C40F24F13C2F2D4
:104C80000000C4F20102CDE90A11CDE908118161E9
:104C9000C0E90023C0E9021C01610791CDE90511BB
:104CA000CDE90311CDE90111FDF700FF002818BF80
:104CB000FBF7FEFD4FF4805008A9089040F6EC2069
:104CC000C2F20000FDF7FCFF002818BFFBF7F0FD63
:104CD00040F6EC20C2F20000FEF7C4FC002818BF2A
:104CE000FBF7E6FD002001A900220590CDE90200B6
:104CF0006020019040F6EC20C2F20000FEF7A0FB1D
:104D0000002818BFFBF7D4FD40F6EC2001A90422CF
:104D1000C2F20000FEF794FB002818BFFBF7C8FDA5
:104D200040F6EC20C2F20000FEF7C4FA0CB080BDE1
:104D300080B540F6343041F2000200214FF00C0CF7
:104D40004FF41653C2F20000C4F20102C0E900237E
:104D5000C0E90211C0E9041CC0E90611FFF726F8FA
:104D6000002814BFBDE8804080BDFBF7A1BD000056
:104D700080B540F6783044F2004200214FF00C0C30
:104D80004FF4E133C2F20000C4F20002C0E9002394
:104D9000C0E90211C0E9041CC0E90611FFF706F8DA
:104DA000002814BFBDE8804080BDFBF781BD000036
:104DB00080B540F6BC3044F6000200214FF00C0CE8
:104DC0004FF4E133C2F20000C4F20002C0E9002354
:104DD000C0E90211C0E9041CC0E90611FEF7E6FFB4
:104DE000002814BFBDE8804080BDFBF761BD000016
:104DF000FEE70000FEE700007047000010B5044623
:104E0000406894460A46B0F5827F18D1A068B0F594
:104E1000004F02D0B0F5806F1DD12168B0F5806FD2
:104E20000B6823F040030B6015D120460121634637
:104E300000F01AF8002804BF002010BD05E020464D
:104E40000121634600F010F860B1606D40F0200071
:104E50006065032010BD20468021634600F004F801
:104E60000028F2D1002010BD2DE9F04381B01E468C
:104E700090460D468146FCF741FD301A00EB0807CD
:104E8000FCF73CFD064640F20400C2F20000006858
:104E9000C0F3CB3078430090D9F8000081682940F6
:104EA000A94214D108F101046CB1FCF727FD801B65
:104EB000B84210D20098009901390028009108BF2B
:104EC0000746D9F8000081682940A942ECD00020AB
:104ED00001B0BDE8F083D9F80000416821F0E0019D
:104EE0004160D9F80410B1F5827F0BD1D9F80810D0
:104EF000B1F5004F02D0B1F5806F03D1016821F008
:104F000040010160D9F82810B1F5005F07D10168B0
:104F100021F400510160016841F40051016000205A
:104F200089F85000012089F85100032001B0BDE844
:104F3000F08300007047000080B5FCF71FFEBDE85D
:104F4000804002F027BB0000B0B592B043F64000AD
:104F500000240225CDE90A44CDE908440594CDE9B1
:104F60000344CDE901440094C4F20200016841F019
:104F700080510160006800F080500090009800941B
:104F800047F20000C4F20000016841F48041016072
:104F9000A821006800F4804000900098042011903F
:104FA0001095CDE90E014FF48000CDE90C504FF47F
:104FB000803007900120069006A8FCF7A7FF20B1DB
:104FC000EFF3108072B600BFFEE74FF4805005216A
:104FD00005904FF4A05004900F20CDE902540190A9
:104FE00001A8FCF785FE002804BF12B0B0BDEFF3A6
:104FF000108072B6FEE700004EF68850CEF2000038
:10500000016841F4700101607047000040F68410AF
:10501000C2F20000FEF798B840F6CC10C2F20000D1
:10502000FEF792B880B5FBF735FC40F61420C2F2CB
:105030000000BDE88040FEF787B8000040F65C2025
:10504000C2F20000FEF780B840F6FF3C0268C4F2EE
:10505000000C60450FDCB0F1804F1DD040F20043E2
:10506000C4F20003984217D040F60003C4F20003D4
:10507000984211D014E040F60043C4F20003984275
:105080000AD040F20043C4F20103984204D0002346
:10509000C4F20103984203D14B6822F070021A4314
:1050A00041F6FF73C4F2000398420DDC60451FDC3B
:1050B000B0F1804F41D040F20043C4F20003984267
:1050C0003BD040F6000321E043F6FF73C4F2010336
:1050D000984220DC42F20003C4F2000398422CD034
:1050E0000023C4F20103984227D040F2004320E09D
:1050F00040F60043C4F2000398421ED041F600037C
:10510000C4F20003984218D041F60043C4F20003F1
:10511000984212D015E044F20003C4F20103984211
:105120000BD044F60003C4F20103984205D044F2C8
:105130000043C4F20103984203D1CB6822F44072C9
:105140001A434B6922F080021A4340F20043026086
:10515000C4F201038A68C2620A68826240F4806213
:105160009A4204BF0969016301214161704700004F
:10517000806B0021C185C184FEF75ABB90F83E10B8
:10518000222918BF70478368B3F5805F05D1016994
:10519000B1B100F128010A680BE00146002B51F87B
:1051A000282F01D1036923B103685B6803F07F03F3
:1051B00001E003685B6813700A6801320A6007E067
:1051C0000168826A49686FF35F2122F8021B8262DC
:1051D000C18D0139C185090400D070470168CA68D2
:1051E00022F02002CA60CA6822F48072CA604A694A
:1051F00022F001024A61202280F83E20026B012A3F
:1052000018BFFEF7DDBE0022026300BF51E8031F96
:10521000026821F0100142E803130168DBB151E894
:10522000031F026821F0100142E80313016893B1E3
:1052300051E8031F026821F0100142E803130168DE
:105240004BB151E8031F026821F0100142E803133B
:105250000168002BDAD10A68D20608D581B0002295
:1052600000920A68009249680091009901B0818D0E
:10527000FEF7DCBAB0B50446006849F20C65016976
:10528000E26821F4405111430161D4F808C0D4E927
:105290000423D4F81CE0C16842EA0C02A9431A4373
:1052A00042EA0E021143C1604169A26921F44071D2
:1052B0001143416141F2004140F48060C4F20101B8
:1052C000884202D1FCF7D8FD01E0FCF7C1FDE2699C
:1052D00019216368A0FB0101B2F5004F1CD15A00EF
:1052E000DB0FFAF76FFF48F21F51C5F2EB11A0FB7D
:1052F00001235A096FF0630302FB0300322303EB1F
:10530000C000A0FB01014FF4F87000EA1110C1F3D6
:10531000421100EB02101AE09A009B0FFAF752FFBD
:1053200048F21F51C5F2EB11A0FB01235A096FF09F
:10533000630302FB0300322303EB0010A0FB010117
:10534000F02000EA5110C1F3431100EB02100843B2
:1053500021688860B0BD000040F64860C2F20000DD
:1053600001680131016040F63430C2F20000FEF7FE
:1053700061BA0000FEE70000F0B581B02DED068BAC
:1053800082B040F6604440F65C21C2F20004C2F2F2
:105390000001204601F024FA40F6B85540F6841189
:1053A000C2F20005C2F20001284601F019FA40F6E7
:1053B000F4069FED3D8A9FED3D9A9FED3DAA009436
:1053C00040F67444042200230027C2F20004C2F213
:1053D000000620463146B0EE480AF0EE490AB0EE2B
:1053E0004A1A01F033FD009540F6CC5531460C22A7
:1053F0000823B0EE480AF0EE490AB0EE4A1AC2F2AB
:105400000005284601F022FD40F22C260A2040F635
:105410003431C2F20006C2F20001C6F80C7186F8FF
:105420000871C6F80471306040F6D040C2F2000046
:1054300000F0A2FC40F600439FED1E0A21462A46DA
:10544000C2F20003C3E90777C3E90977C3E90D771F
:10545000C3E90F77C3E91177DF64009640F23C3669
:10546000C2F20006304601F061F940F214643146A0
:10547000C2F20004204600F02DF940F6A045314666
:10548000C2F20005284600F079F940F6F85031469E
:1054900022462B46C2F2000002B0BDEC068B01B0E2
:1054A000BDE8F04001F0E6BA0060024682758A3C31
:1054B000000000006666E63D70B52DED028B0446E7
:1054C0000079002800F0ED802068C16AA16003EE39
:1054D000101A026B94ED050A94ED062A94ED0B1A4E
:1054E00004EE102AE26070EE430A32EE440A016ACA
:1054F000C4ED090AB4EEC10A84ED0A0AF1EE10FA0D
:1055000021611CDAB1EE412AB4EEC20AF1EE10FAC2
:1055100015DDF4EEC20AF1EE10FA10DDF4EEC10A68
:10552000F1EE10FABFBF0021C4E90F11C0E90D115F
:105530000120BEBF84F84C00BDEC028B70BD002082
:1055400084F84C0002F028F910EE100AFBF758F826
:105550009FED550B53EC102BFAF7B3FF9FED540B57
:1055600053EC102BFAF73BFF054620690E46FBF77C
:1055700047F802460B4628463146FAF72AFFFBF762
:1055800052F89FED4E1A00EE100A2062B4EEC10AE6
:10559000F1EE10FA02DA9FED481A08E09FED491A81
:1055A000B4EEC10AF1EE10FA05DD9FED451A31EEB9
:1055B000000A84ED080A94ED090A94ED0A1A21EE16
:1055C000011A20EE000A30EE018AB0EE480A02F01D
:1055D0002DFAB4EEC00AF1EE10FA03D7B0EE480A85
:1055E00002F024FA94ED082A9FED371A84ED070A99
:1055F000B4EEC12AF1EE10FA06DC9FED341AB4EED7
:10560000C12AF1EE10FA03DAB1EE400A84ED070A7E
:1056100094ED0C3A9FED2E1AB4EEC32AF1EE10FA77
:105620000ADCB1EE433AB4EEC32AF1EE10FAA4BF9D
:1056300094ED0D1A21EE001A84ED0F1A206894EDF6
:105640000E0A90ED053A20EE030A94ED113A22EE8F
:10565000000AB4EEC31A84ED100AF1EE10FA06DC6B
:10566000B1EE433AB4EEC31AF1EE10FA03DAB0EE3B
:10567000431A84ED0F3A94ED122AB4EEC20AF1EE09
:1056800010FA06DCB1EE422AB4EEC20AF1EE10FACC
:1056900003DAB0EE420A84ED102A80ED0D1A80ED97
:1056A0000E0ABDEC028B70BD182D4454FB2109403D
:1056B00000000000008066400000B443000034C3D6
:1056C0000000B4C3000034430000B4420000B4C280
:1056D0000000000080B501224CF6CD4E00234FF0B3
:1056E0007E5C80F84C204DF20A72C3F6CC5EC3F6A5
:1056F000A332C0E90B2CC0E90DCEC0E90F33C0E9DD
:1057000011EEC0E905330371016080BD0179002904
:1057100008BF7047C16890ED063A90ED080A90ED19
:10572000025A90ED052A90ED074A90ED091A91ED85
:10573000006A23EE003A23EE043A35EE465A25EE8F
:10574000022A80ED045A33EE022AB4EEC12A80ED1B
:105750000A2AF1EE10FA06DCB1EE411AB4EEC12AC3
:10576000F1EE10FA03DAB0EE412A80ED0A1A006871
:1057700080ED0D0A80ED0E2A7047000080B54CF6D2
:10578000CD4240F2000C4CF6CD4E00230371016077
:105790004831C3F6CC52CBF6807CC3F60C6EC0E920
:1057A0000231C0E90433C0E906ECC0E9082280BD3B
:1057B00040F614200C21C2F20000FDF785BF000066
:1057C00010B50446FCF79AF82168B0FBF1F202FB31
:1057D000110028B1D4F804010130C4F8040110BD4F
:1057E00040F61420C2F200000068C16841F01001C8
:1057F000C160002084F80801C4F804010120C4F845
:10580000040110BD10B50446D0F80C01012804D0E5
:1058100088B90120C4F80C0110BD41F2000001213B
:105820000122C4F20200FCF763F8D4F80C01013045
:10583000C4F80C0110BD40F614200022C2F2000092
:105840000068C16821F01001C16000200121C4F886
:105850000C0141F20000C4F20200FCF749F840F2EA
:10586000FC60211D8022C2F20000BDE81040FBF761
:1058700027BB0000B0B52DED108B044601F0EAFB0C
:1058800000284FF002014FF00A0008BF03212170E9
:10589000FBF734FF207803284AD19FED278A4FF485
:1058A0007A75B0EE489AB0EE48AAB0EE48BAB0EEBB
:1058B00048CAB0EE48DA00BF204600F047F894ED41
:1058C00001EA94ED02FAD4ED038AD4ED049AD4ED02
:1058D00005AAD4ED06BA0120FBF710FF013D38EE12
:1058E0002B8A39EE2A9A3AEE29AA3BEE28BA3CEEE8
:1058F0000FCA3DEE0EDADFD19FED100A01202070B5
:1059000088EE001A89EE002A8AEE003A8BEE004AF1
:105910008CEE005A8DEE000A84ED0E0A84ED0F5ACB
:1059200084ED104A84ED113A84ED122A84ED131AA5
:10593000BDEC108BB0BD00BF0000000000007A4439
:105940000178012908BF00F001B8704710B504467E
:1059500001F020FB01F04EFB40F6504094ED0D0AA3
:1059600094ED0E3AB7EE004AC2F20000B0F9001012
:1059700040F20C2034EE404AC2F2000002EE101A4F
:1059800090ED001A40F65241B8EEC22A94ED015A49
:1059900094ED026A94ED037AD4ED040AC2F2000198
:1059A00082EE012A32EE432A25EE003A24EE022A44
:1059B00033EE022A84ED012AB1F9001094ED0F2A8A
:1059C00003EE101A40F65441B8EEC33AC2F2000199
:1059D00083EE013A33EE422A20EE063A24EE022A02
:1059E00033EE022A84ED022AB1F9001094ED102A58
:1059F00003EE101A40F65641B8EEC33AC2F2000167
:105A000083EE011A31EE421A20EE072A24EE011A23
:105A100032EE011A84ED031AB1F9001090ED011A6B
:105A200094ED112A40F65840C2F2000003EE101A1D
:105A3000B8EEC33A83EE013A33EE422A20EE203A22
:105A400024EE022A33EE022A84ED042AB0F9000083
:105A500094ED052A94ED123A05EE100A20EE022A82
:105A600040F65A40B8EEC55AC2F2000085EE015A1F
:105A700035EE433A24EE033A32EE032A84ED052A4A
:105A8000B0F9000094ED062A94ED133A05EE100AE1
:105A900020EE020AB8EEC55A85EE011A31EE431A1D
:105AA00024EE011A30EE010A84ED060A10BD000052
:105AB0002DE9F04F81B02DED028B84B00446B0F893
:105AC000CA000E2800F0A2800A2840F0398140F276
:105AD00064622189B4F80290E088A78840F2686681
