:020000040800F2
:10000000980D00202D020008ED420008DD370008A1
:10001000E94200087D0400083147000800000000A4
:10002000000000000000000000000000F542000891
:100030009904000800000000F1420008F94200089D
:10004000470200084702000847020008470200086C
:10005000470200084702000847020008470200085C
:10006000470200084702000847020008470200084C
:10007000470200084702000847020008470200083C
:10008000470200084702000847020008470200082C
:10009000470200084702000847020008470200081C
:1000A0004702000847020008CD4300084702000845
:1000B000D9430008E5430008F1430008470200085F
:1000C00047020008470200084702000847020008EC
:1000D00047020008254700084702000847020008B9
:1000E00047020008470200084702000847020008CC
:1000F00047020008470200084702000847020008BC
:1001000047020008470200080944000847020008A7
:10011000470200084702000847020008470200089B
:100120008D04000847020008470200084702000843
:10013000470200084702000847020008470200087B
:10014000470200084702000847020008470200086B
:10015000470200084702000847020008470200085B
:10016000470200084702000847020008470200084B
:10017000470200084702000847020008000000008C
:10018000470200084702000800F002F800F03EF8BD
:100190000AA090E8000C82448344AAF10107DA45E2
:1001A00001D100F033F8AFF2090EBAE80F0013F0F6
:1001B000010F18BFFB1A43F001031847A8530000B2
:1001C000C8530000103A24BF78C878C1FAD8520743
:1001D00024BF30C830C144BF04680C6070470000C1
:1001E0000023002400250026103A28BF78C1FBD840
:1001F000520728BF30C148BF0B6070471FB505F0DC
:100200008CF900F0ADF81FBD10B510BD00F0BAF8C4
:100210001146FFF7F3FF04F0D5FD00F0D8F803B462
:10022000FFF7F2FF03BC00F0DFF800000948804749
:1002300009480047FEE7FEE7FEE7FEE7FEE7FEE7C8
:10024000FEE7FEE7FEE7FEE704480549054A064BE0
:1002500070470000B9430008890100089807002092
:10026000980D0020980900209809002053EA020CFC
:1002700000F069802DE9F04B4FF00006002B1FBF06
:10028000B3FA83F503FA05F424FA05F65E4012BFCB
:100290001643B2FA82F502FA05F4C5F120051EBF35
:1002A00022FA05FC44EA0C04203556EA044C4FEAD5
:1002B000144418BF641C4FF000084FF0000990422E
:1002C00071EB030C39D3002919BFB1FA81F701FA98
:1002D00007F6B0FA80F700FA07F6C7F120071EBF4D
:1002E00020FA07FC46EA0C062037B6FBF4FCA7EB25
:1002F0000507103F07F01F0BCBF120062CFA06F67E
:100300000CFA0BFB44BFB3460026202FA4BF5E4669
:100310004FF0000B5BEA060C08BF4FF0010B19EB26
:100320000B0948EB0608ABFB027C06FB02CC0BFB7F
:1003300003CCC01B71EB0C01C1E70B4602464146E2
:100340004846BDE8F08B13B54FF000004FF00001B8
:10035000AFF30080BDE81C4070477047704770479E
:1003600070B5064C7C44064D7D4403E02068204473
:100370008047241DAC42F9D170BD00001C52000022
:100380001C520000754600F02BF8AE460500694689
:10039000534620F00700854618B020B5FFF754FFFC
:1003A000BDE820404FF000064FF000074FF0000876
:1003B0004FF0000BAC46ACE8C009ACE8C009ACE8B3
:1003C000C009ACE8C00921F007018D46704710B59F
:1003D0000446AFF300802046BDE81040FFF71FBF82
:1003E000004870471800002001491820ABBEFEE706
:1003F00026000200704700000146806B036C026C0F
:1004000013F0500F07D0D20648BF00F0E3B8806B5E
:10041000C26C0846104742F40071016401688A68A2
:1004200012F0405F1AD1027E002A18BF00F0CEB849
:10043000CA6A12F4700F02D08A6852050ED44A6854
:1004400022F020024A60016C21F480710164016C89
:10045000C9045EBF016C41F00101016400F0B6B84F
:10046000806B40210164416C41F00401416400F063
:10047000B1B80000806B00F0ABB80000FEE70000F0
:1004800040F27C00C2F2000004F0CAB940F2AC2095
:10049000C2F2000000F03EBD70470000EFF3108094
:1004A00072B600BFFEE7000070B581B00022009276
:1004B00090F83C20012A01D1022184E0012280F839
:1004C0003C20D1F800E01FFA8EFCBEF10A0F4FEA83
:1004D0004C0212FA8EF204D303681E3A03F10C04A4
:1004E00002E0036803F1100407252668954026EA18
:1004F000050525608D6805FA02F225682A43226009
:100500004A68062A05D802EB820203F13401053A53
:100510000BE002EB82040C2A87BF03F12C01A4F14B
:10052000410203F13001A4F123021F240D6894401D
:100530000CFA02F225EA04040C600E6832430A60E9
:1005400042F20431C4F20101A1F54172934237D164
:10055000BEF1120F04D10A6842F480020A602FE053
:100560002EF00102102A2BD10A68BEF1100F42F4BE
:1005700000020A6024D140F200014DF68362C2F20B
:100580000001C4F21B320968A1FB0212910C01EBBD
:100590008101490001E0009901390091009979B188
:1005A000009901390091009951B1009901390091E8
:1005B000009929B100990139009100990029EAD1E7
:1005C000002180F83C10084601B070BD7047000063
:1005D00070470000704700000068C06C7047000062
:1005E000002804BF0120704710B50446006C30B9E4
:1005F000204600F099F8002084F83C006064206CEC
:10060000C00639D4206C41F202110123C0F60073F8
:1006100088430230206442F20430C4F201000168D1
:1006200021F4403101606168026811430160206873
:10063000416821F4807141602169426842EA0121E8
:100640004160416821F040714160A16842681143F6
:100650004160816821F400618160E1688268114332
:100660008160A16A826822F0706299428260826829
:1006700004D122F040510AE0012051E01143816091
:10068000816821F040518160E16A82681143816094
:10069000816821F002018160217E826842EA410185
:1006A000816094F82020416882B141F400614EF2EB
:1006B00000024160CFF6FF72416821F46041416061
:1006C000616A02EB41314268114301E021F40061AB
:1006D00041600022C16ACFF6F07221F47001C1625C
:1006E000E16902EB0151C26A1143C162816821F4E0
:1006F0000071816094F83010826842EA4121816083
:10070000816821F4806181606169826842EA8121A7
:100710000122816000206064216C62F30101216488
:10072000002184F83C1010BDF0B587B0002642F2DD
:10073000002104460696CDE90466CDE90266C4F2BE
:1007400001010068884243D042F20011C4F2010165
:10075000884200F0858042F20001C4F20101884223
:100760007CD143F6300000260024032702AD019619
:10077000C4F20200C4F20204416941F48071416193
:10078000416901F48071019101990196016841F07C
:1007900001010160016801F00101019101990196D7
:1007A000016841F0020101602946006800F0020082
:1007B0000190019804960397C0200290204600F013
:1007C00095FD0496CDE9027704F58060294669E03D
:1007D00043F630000196C4F20200416941F48061A1
:1007E0004161416901F480610191019901960168BB
:1007F00041F00101016002A9006800F001000190D0
:100800000198049603200390082002900020C4F26F
:10081000020000F06BFD40F2AC2546F210474FF4A9
:1008200000504FF400614FF480624FF08063C2F2D9
:100830000005C4F20207C5E90866C5E90073C5E909
:100840000266C5E90421C5E90606284600F040FC19
:10085000002818BFFFF722FEA563AC6307B0F0BD08
:1008600043F6300100200190C4F202014A6942F4CB
:1008700000724A614A6902F400720192019A019081
:100880000A6842F001020A60096801F00101019161
:100890000199049003200390042002A902900020F3
:1008A000C4F2020000F022FD07B0F0BDF0B581B047
:1008B000044600680D468168490544BF80685FEAC8
:1008C000C05037D400F0FEFD064620680168890755
:1008D0000ED46F1C4FB12DB100F0F4FD811B2068C8
:1008E000A94202D9016889072ED501688907F1D587
:1008F0006FF012010160216C41F400712164816884
:1009000011F0405F13D1217E89B9C16A11F4700FD3
:1009100002D0806840050AD4206C20F480702064E6
:10092000206CC0045EBF206C40F0010020640020F9
:1009300001B0F0BD002084F83C00206C40F02000A5
:100940002064012001B0F0BD002084F83C00206C40
:1009500040F004002064032001B0F0BD81B000210C
:10096000009190F83C10012902BF022001B07047AD
:10097000012180F83C1001688A68D20727D18A6873
:100980004DF68363C4F21B3342F001028A6040F2E9
:100990000002C2F200021268A2FB03239A0C02EBCF
:1009A000420201E0009A013A0092009A7AB1009A5C
:1009B000013A0092009A52B1009A013A0092009ACC
:1009C0002AB1009A013A0092009A002AEAD18B6873
:1009D000026CDB0707D142F010010164416C41F069
:1009E000010141644CE040F201739A4302F58072C8
:1009F00002644A68520504D5026C012363F30D3288
:100A00000264026C0023D20444BF436C23F006034B
:100A1000002280F83C2043646FF02200086042F21C
:100A20000430C4F201000368A0F54172DB060AD06D
:100A3000914225D14FF60452CFF6FF72805810F044
:100A4000405F1DD118E0914212D042F20022C4F260
:100A50000102914209D042F20012C4F20102914215
:100A60000ED10068C0060BD102E00068C00607D4B2
:100A7000886810F0405F03D1886840F0804088604B
:100A8000002001B070470000B0B582B004460020DD
:100A9000019094F83C00012802BF022002B0B0BDD2
:100AA00001200D46964684F83C0021688868C007FE
:100AB00027D188684DF68363C4F21B3340F00100F0
:100AC000886040F20000C2F200000068A0FB03034F
:100AD000980C00EB400001E001980138019001986A
:100AE00078B1019801380190019850B1019801380E
:100AF0000190019828B101980138019001980028CF
:100B0000EAD18868C00542BF886820F48070886098
:100B10008B68206CDB0707D140F010002064606C0C
:100B200040F0010060646FE040F20173984300F50B
:100B3000807020644868400504D5206C012363F36D
:100B40000D302064206C4FF0000C40F2614340F205
:100B5000F932C0F60003C0F60002C0044FF00000F6
:100B600044BF606C20F0060084F83CC06064A06B59
:100B7000C36440F27543C0F60003C0E90F236FF071
:100B8000220273460A604A6842F080624A608A68BC
:100B900042F480728A604C312A4600F043FB42F2F4
:100BA0000801C4F20101D1F8FC322068A1F1080269
:100BB000DB060AD0904227D1086810F0405F23D1AD
:100BC000086840F0804008601EE0904214D042F275
:100BD0000022C4F2010290420AD042F20012C4F292
:100BE0000102904210D1D1F8FC12C9060CD103E0E9
:100BF000D1F8FC12C90607D4816811F0405F03D117
:100C0000816841F080418160002002B0B0BD0000E9
:100C100090F83C10012902BF0221084670470121CB
:100C200080F83C1001688A6822F001028A608968B5
:100C3000C90705D1016C41F20112914301310164F0
:100C4000002180F83C10084670470000B0B500282D
:100C500004BF0120B0BD044690F8200010B9204622
:100C600000F074F82068016841F00101016000F0B3
:100C700029FC054620684168C90705D100F022FC1F
:100C8000401B0B28F6D310E0016821F0020101603F
:100C900000F018FC054600BF2068416889070DD5A3
:100CA00000F010FC401B0B28F6D3606A052140F4CD
:100CB00000306062012084F82010B0BD217E0268FF
:100CC00022F08003012908BF42F080030360617EA7
:100CD000026822F04003012908BF42F0400303608C
:100CE000A17E026822F02003012908BF42F0200300
:100CF0000360E17E026842F01003012908BF22F080
:100D000010030360217F026822F00803012908BF55
:100D100042F008030360617F026822F004030129A6
:100D200008BF42F004030360D4E901C2D4E90335EB
:100D300061691A432A431143ACF101021143C161B5
:100D400000200121606284F82010B0BD80B586B01B
:100D5000002146F600020591CDE90311CDE901110C
:100D6000C4F20002006890423DD046F20041C4F255
:100D70000001884279D140F27800C2F20000016897
:100D80004A1C0029026043F64000C4F202000AD166
:100D900000210091016841F000710160016801F0DB
:100DA0000071009100990021009150F8102C42F040
:100DB000010240F8102C50F8100C00F001000090D7
:100DC0000098092005900320CDE90310022001A915
:100DD00002904FF4C05001900020C4F2020000F0D5
:100DE00085FA06B080BD43F640000091C4F20200CF
:100DF000016841F080610160016801F0806100914B
:100E0000009940F27801C2F200010A68531C002ADE
:100E10000B600AD100210091016841F0007101606E
:100E2000016801F00071009100990021009150F8D3
:100E3000102C42F0020240F8102C50F8100C00F078
:100E4000020000900098092005900320CDE90310CE
:100E5000022001A902904FF4825001900020C4F2B8
:100E6000020000F5806000F041FA06B080BD00008D
:100E700070B5866D044600F025FB054694F83500F4
:100E8000022824D12068016821F01601016041691F
:100E900021F080014161216C09B9A16C19B101688F
:100EA00021F008010160016821F00101016000E00A
:100EB00020680068C0070ED000F004FB401B052826
:100EC000F6D920206065032084F835000CE08020EE
:100ED0006065012008E0E06D3F2101FA00F0B0609C
:100EE000012084F835000020002184F8341070BD02
:100EF00090F83510022909D1052180F835100068D5
:100F0000016821F0010101600020704780214165E6
:100F100001207047F0B581B00446002048F2B513B7
:100F20000821009040F20000C1F64E33C2F20000EA
:100F30000268D4E9166037688140A2FB0325394274
:100F40000CD0226813685B0708D5136823F00403EC
:100F50001360B160616D41F0010161650121814063
:100F6000394208D022685269120604D5B160616D19
:100F700041F00201616504218140394208D02268B4
:100F80001268920704D5B160616D41F0040161659A
:100F900010218140394215D020680268120711D50E
:100FA000B16002680168520306D4C9055EBF0168DA
:100FB00021F00801016001E0080342D4216C09B16D
:100FC00020468847E16D202000FA01F23A4245D0E0
:100FD00020680368DB0641D5B26094F835300268BA
:100FE000052B1ED122F016020260426922F0800217
:100FF0004261226C0AB9A26C1AB1026822F008029E
:1010000002603F208840B060002084F83400012056
:1010100084F83500216D002958D02046884701B05A
:10102000F0BD0168520310D4C90513D4016821F042
:1010300010010160002084F83400012084F835009C
:1010400008E0A16C0029BBD1BCE7080302D4616CA5
:1010500011B903E0E16B09B120468847606DA8B380
:10106000606DC0072ED00521A80A84F835102168CC
:101070000A6822F001020A60009A0132824200925C
:101080001AD80A68D20717D0009A01328242009219
:1010900012D80A68D2070FD0009A01328242009219
:1010A0000AD80A68D20707D0009A01328242009219
:1010B00002D80A68D207DFD1002084F8340001206A
:1010C00084F83500E16C09B12046884701B0F0BDD5
:1010D0002DE9F041044600F0F5F9002C04BF012091
:1010E000BDE8F0810546002084F83400022084F831
:1010F00035002168086820F00100086001E000BFA9
:1011000021680868C00708D000F0DCF9401B0528FA
:10111000F6D903252023032062E048F23F02086845
:10112000D4E9013504F10C08CFF2100200EA020CF8
:1011300098E8C101D4E9072E43EA0C032B43184376
:10114000636A30433843042B40EA080040EA020057
:1011500040EA0E021DD1D4E90BE042EA0E02BEF1D4
:10116000000F40EA020008604869A26A20F003000C
:1011700040EA020040F0040C11D0B8F5005F34D012
:10118000B8F1000F42D1022A43D0012A37D032B938
:101190003FE00A60486920F0070040EA030C6FF066
:1011A0000F0040F2FF32C1F814C00023012550FAAD
:1011B00081F091434AF6AB22CAF6AA225F2888BF83
:1011C0000431A165A0FB0202100945F25952C0F694
:1011D0000002105C3F22E06502FA00F08860002007
:1011E000636584F83550BDE8F081032AD7D801251E
:1011F00040230120DFE802F0020D0203F0E7AEF128
:10120000C070B0FA80F0400938B9C8E7032A04D3A7
:10121000C5D1CEF300600028C1D0012540230120B4
:10122000DEE7000010B590F834C0BCF1010F47D0E4
:101230004FF0010CD0F858E080F834C090F835C079
:10124000BCF1010F39D14FF0020C80F835C04FF0DE
:10125000000CC0F854C0D0F800C0DCF8004024F402
:101260008024CCF80040CCF804308368402B0B4637
:1012700008BF1346CCF8083008BF0A46CCF80C204B
:10128000C16D3F2202FA01F1CEF80810DCF800101F
:1012900041F01601CCF80010006C00281EBFDCF8ED
:1012A000000040F00800CCF80000DCF8000040F03E
:1012B0000100CCF80000002010BD002180F834109F
:1012C000022010BDB0B5044600F0FCF8054640F21F
:1012D0000400611CC2F20000007818BF044400BF83
:1012E00000F0F0F8401BA042FAD3B0BD2DE9F04F5A
:1012F00082B041F6004308224FF0010A00264FF069
:101300000008C4F20203984200F13E4308BF0722DE
:1013100003F1FF734FEAB327072F4FF0000738BFE1
:101320004FEAB322009208E00236043708F10108C0
:10133000202E04BF02B0BDE8F08F0A680AFA08F94F
:1013400012EA090FF0D0D1F804C00CF0030AAAF198
:101350000102012A16D803228468CD684FEA480B9F
:10136000B2409443B5406FEA020E25438560CCF34A
:101370000015446805FA08F524EA09042543456088
:101380000EE000BF0322BAF1030FB34602FA06F2E1
:101390006FEA020E04D1B3464FF0030A21E000BF0A
:1013A000C2688C68BAF1020F02EA0E0204FA0BF46A
:1013B00042EA0402C26014D107F01C020F2303FAB0
:1013C00002F56FF0030303EA58040444236AAB43B5
:1013D0000D6905FA02F21A432262D1F804C00CF03A
:1013E000030A03680AFA0BF21CF4403F4FF0010AAB
:1013F00003EA0E0342EA0302026095D0002243F69C
:10140000004C07F00C050F24019243F64402C4F28D
:10141000010CAC40C4F202021346126842F480424E
:101420001A601A6802F48042019228F00302019BBC
:1014300062444FF60843CFF6FF739E46D358A3434A
:10144000009C04FA05F52B4342F80E30DCF8082026
:101450004D6842EA0903EC0258BF22EA090343F649
:101460000C42CCF80830AC02C4F201029646126875
:1014700042EA090358BF22EA0903CEF80030AC0360
:10148000DCF8042042EA090358BF22EA0903CCF839
:101490000430ED03DCF8002042EA090358BF22EAD9
:1014A0000903CCF800303FE7426902EA01039143A7
:1014B00041EA034181617047002A08BF0904816144
:1014C0007047000040F29070C2F200000068704760
:1014D000B0B5A8B3044690F83D0028B9002084F8C0
:1014E0003C00204600F0C2F8242084F83D0020682B
:1014F000016821F001010160016841F400410160CF
:10150000016821F40041016000F086FA48F2804150
:1015100040F600120023C0F21E01C0F23D028842D4
:101520004FF0000138BF0121904248F2A16238BF5C
:1015300001236568C0F20102954238BF0B460BB12A
:101540000120B0BD4DF68361C4F21B31A0FB011236
:1015500021684B6823F03F0343EA92434B60930CAE
:101560000A6A22F03F0C48F2A062C0F201029542E2
:1015700013D85A1C01384CF6FF7342EA0C020A6277
:101580006A00B0FBF2F001306FF31F30042898BFFF
:101590000420CA6922EA030C3FE04FF49672A0F1DE
:1015A000010E5A4344F6D353C1F26203A2FB032354
:1015B000012202EB93124CF6FF7342EA0C020A621C
:1015C000CA6922EA030CA3689BB11920042268436C
:1015D000BEFBF0F0013062F31F30000512D09BB16A
:1015E000192004226843BEFBF0F0013062F31F3083
:1015F00011E005EB4500BEFBF0F001306FF31F304A
:101600000005ECD1012008E005EB4500BEFBF0F041
:1016100001306FF31F3040F4004040EA0C00C86115
:101620000868D4E9072320F0C000104348F2FF32D5
:101630001843086088689043D4E903231843104393
:101640008860C868D4E9052320F0FF0010431843E0
:10165000C860086840F00100086000202021206474
:1016600084F83D10206384F83E00B0BDB0B586B06C
:10167000002445F600010594CDE90344CDE9014479
:10168000C4F200010068884231D045F20041C4F242
:101690000001884254D143F63005002401A900948A
:1016A000C4F20205286840F002002860286800F0B3
:1016B000020000900098042005900320CDE903402B
:1016C000122002904FF4C070019040F20040C4F22A
:1016D0000200FFF70BFE0094286940F40010286117
:1016E000286900F400100090009806B0B0BD43F6E1
:1016F0003005009401A9C4F20205286840F00200F8
:101700002860286800F002000090009804200590EE
:101710000320CDE90340122002904FF44060019075
:1017200040F20040C4F20200FFF7E0FD0094286997
:1017300040F480002861286900F48000009000983F
:1017400006B0B0BD40F2040040F29071C2F2000059
:10175000C2F2000100780A68104408607047000077
:1017600080B543F60040C4F20200016841F4007104
:101770000160016841F480610160016841F4807199
:101780000160032000F088F80F2000F005F800F059
:1017900029F8002080BD0000B0B5044640F20400E6
:1017A0004FF47A71C2F200000078B1FBF0F040F221
:1017B0000001C2F200010968B1FBF0F000F0E4FBA7
:1017C00001250F2C0CD858B94FF0FF3021460022CC
:1017D000002500F033F840F20800C2F20000046077
:1017E0002846B0BD82B043F6400100200190C4F20B
:1017F00002014A6842F480424A604A6802F4804228
:101800000192019A0090086840F0805008600868D2
:1018100000F080500090009802B070470028B8BFD8
:10182000704700F01F010122400902FA01F14EF257
:101830000012CEF2000242F82010704710B500F0FE
:101840000F034EF60C5E00F1604CB0F1FF3FA3F1C8
:101850000403CEF2000E734403F10C04C8BF0CF570
:101860006444DEF800004FF0FF3CC0F30220C31ECA
:1018700080F0070038BF0023042828BF04200CFA9A
:1018800000F021EA00000CFA03F1984022EA01017D
:1018900008430001207010BD4EF60C514FF6FF03B7
:1018A000CEF200010A681A4060F30A2242F080601A
:1018B00040F0FD70086070472DE9F041002800F00D
:1018C000A88043F6080804460D46C4F20208D8F87A
:1018D000F80300F00700884208D288F8F853D8F8D7
:1018E000F80300F00700A84240F0938020688107C9
:1018F00017D5410742BFD8F8001041F4E051C8F8AD
:101900000010010742BFD8F8001041F46041C8F848
:101910000010D8F80010A26821F0F0011143C8F8B7
:101920000010C00736D06068811E022907D258F81F
:10193000081C89015CBF0120BDE8F0810DE0012891
:1019400007D158F8081C89035CBF0120BDE8F0816D
:1019500003E058F8081C89075BD5D8F8001021F07F
:1019600003010843C8F80000FFF7ACFD064641F24A
:10197000883707E0FFF7A6FD801BB84284BF03202D
:10198000BDE8F081D8F80000616800F00C00B0EB11
:10199000810FEFD1D8F8F80300F00700A84207D96B
:1019A00088F8F853D8F8F80300F00700A84230D1BF
:1019B0002068410707D5D8F80010E26821F4E0510B
:1019C0001143C8F80010000708D5D8F800002169B5
:1019D00020F4604040EAC100C8F8000000F044F87C
:1019E000D8F8001045F24152C0F60002C1F30311CD
:1019F000515CC84040F20001C2F20001086040F2B0
:101A00000800C2F200000068FFF7C6FE0020BDE833
:101A1000F0810120BDE8F08140F2000043F60801AA
:101A200045F25152C2F20000C4F20201C0F60002B7
:101A300000680968C1F38221515CC840704700000A
:101A400040F2000043F6080145F25152C2F2000094
:101A5000C4F20201C0F6000200680968C1F3423115
:101A6000515CC8407047000010B543F60404C4F24E
:101A70000204606800F00C0142F20040C0F2F40081
:101A8000082907D0042918BF10BD41F20020C0F278
:101A90007A0010BD2168236801F03F0221685B02D3
:101AA000C1F3881105D4A1FB00010023FEF7DEFB82
:101AB00006E041F20020C0F27A004843B0FBF2F0A9
:101AC00021680222C1F3014102EB4101B0FBF1F0B8
:101AD00010BD00002DE9F04182B0002800F05181D6
:101AE0000446007843F60006C4F20206C00744D05C
:101AF000B06800F00C00042805D1306880033CD5A4
:101B00006068D0BB3DE1B06800F00C00082802D14D
:101B100070684002F1D46768B7F5803F06D030683E
:101B2000B7F5A02F13D140F480203060306840F426
:101B300080303060FFF7C6FC054600BF3068800388
:101B40001BD4FFF7BFFC401B6428F7D9B6E020F494
:101B500080303060306820F480203060FFF7B2FCC5
:101B60000546002FEAD13068800306D5FFF7AAFCAE
:101B7000411B03206429F6D949E1207880072FD53D
:101B8000B06810F00C0F07D0B06800F00C00082807
:101B90000AD17068400207D43068800719D5E06820
:101BA000012840F0EE8014E0E068002800F08A8010
:101BB00000200121C4F247200160FFF783FC0546A5
:101BC0003068800705D4FFF77DFC401B0228F7D959
:101BD00074E03068216920F0F80040EAC10030600C
:101BE0002078000723D561690020C4F2472071B135
:101BF0000121C0F8801EFFF765FC0546706F800765
:101C000015D4FFF75FFC401B0228F7D956E00021EE
:101C1000C0F8801EFFF756FC054600BF706F8007B6
:101C200005D5FFF74FFC401B0228F7D946E0207886
:101C3000400779D5306C4FF00008C0000CD4CDF8C7
:101C400004804FF00108306C40F080503064306CFC
:101C500000F080500190019847F20007C4F200079D
:101C60003868C0050FD4386840F480703860FFF7DA
:101C700029FC05463868C00505D4FFF723FC401B46
:101C80000228F7D91AE0A768012F05D0306F052F79
:101C90002BD140F004003067306F40F00100306716
:101CA000FFF710FC054641F2883700BF306F800710
:101CB00033D4FFF707FC401BB842F7D9032002B02A
:101CC000BDE8F08100200021C4F247200160FFF749
:101CD000F9FB0546306880077FF582AFFFF7F2FB1E
:101CE000411B03200229F5D991E020F00100306763
:101CF000306F20F004003067FFF7E4FB0546002F4B
:101D0000D1D141F28837306F800706D5FFF7DAFB73
:101D1000411B0320B942F6D979E0B8F1000F1EBF8C
:101D2000306C20F080503064A769002F6ED0B0680E
:101D300000F00C00082828D1012F22D07068E1693A
:101D400000F480028A421CD1216A00F03F028A42DC
:101D500017D147F6C071626A0140B1EB821F10D102
:101D6000A16A4FF6FF72C903914300F44032A1F516
:101D700080318A4205D1E16A00F07060B0EB016FFA
:101D800044D0012002B0BDE8F08140F200080020FC
:101D9000C4F24728C8F86000FFF794FB0546022FFD
:101DA0000AD100BF3068800110D5FFF78BFB411BC3
:101DB00003200229F6D92AE03068800126D5FFF7F2
:101DC00081FB411B03200229F6D920E004F11C0706
:101DD0008FCF0843D90340EA82104FF6FF72914338
:101DE00040EA0760A1F58031084370600120C8F81F
:101DF0006000FFF767FB04463068800106D4FFF7F8
:101E000061FB011B03200229F6D900E0002002B08B
:101E1000BDE8F08170B550B1D0F824C00446BCF1E3
:101E2000000F07D00021216104F1140108E0012511
:101E3000284670BD6168B1F5827F03D004F11C01B2
:101E400000220A6000254FF0000EA56294F85110A0
:101E500041B9204684F8505000F040F8D4E909C157
:101E600001F4005E022284F851202268136823F0F6
:101E700040031360D4E90130D4E9031603F48273FC
:101E800000F4044001F400611844084406F0020123
:101E90000844616901F001010844A16901F400737B
:101EA0001844E36903F038031844236A03F08003FD
:101EB000184340EA0E001060042000EA11400CF0C4
:101EC000100108445060D06920F40060D061012006
:101ED000656584F85100284670BD00002DE9F04387
:101EE00087B0002543F600060695CDE90455CDE9F7
:101EF0000255C4F200060068B04202D007B0BDE847
:101F0000F08343F6300001954FF005084FF00309C8
:101F1000022702ACC4F20200016941F48041016170
:101F2000016901F48041019101990195016841F035
:101F300004010160016801F004010191019901951A
:101F4000016841F0020101602146006800F00200D2
:101F500001900198CDF81880CDE9045903970C2021
:101F6000029006F5E830FFF7C1F94FF40050CDE9D3
:101F70000598CDE903752146029006F5E630FFF796
:101F8000B5F907B0BDE8F083411E0020B0EB116F3A
:101F90001CBF012070474EF21002F023CEF2000267
:101FA00051604EF62351CEF200010B700721906074
:101FB00011607047704700007047000090F83C20A7
:101FC000012A02BF022108467047B0B501F1080599
:101FD000D1E900CE3CCDC96923F47C5322F4705280
:101FE0001A432EF4F0431A432CF4E0431A4324F42A
:101FF000C0431A432A4322F48042114302685164C9
:10200000002180F83C10BDE8B04008467047000051
:1020100090F83C300222012B55D010B580F83D20BD
:10202000012280F83C200268D2F804E0D2F808C00F
:102030000C682EF070032343536041F2FF73C4F227
:1020400000039A42BDE810400BDC40F2FF73C4F27B
:1020500000039A4213DCB2F1804F29D040F20043D2
:1020600015E040F2FF33C4F201039A4214DC41F65A
:102070000003C4F200039A421AD0002314E040F691
:102080000003C4F200039A4212D040F60043C4F2A7
:1020900000039A420CD010E044F20003C4F20103A2
:1020A0009A4205D040F20043C4F201039A4204D19F
:1020B00049682CF08003194391600022012180F8C7
:1020C0003C2080F83D10104670470000002804BFF7
:1020D0000120704710B5044690F83D0028B9002053
:1020E00084F83C00204600F01FF80220211D84F8EF
:1020F0003D00206802F08EF9012084F8460084F843
:102100003E0084F83F0084F8400084F8410084F8E1
:10211000420084F8430084F8440084F8450084F8C1
:102120003D00002010BD000080B582B04FF6FF7169
:102130000068C4F20001884226DD44F20001C4F2C6
:10214000010188423DD040F20041C4F201018842C1
:1021500048D00021C4F20101884241D10020002270
:10216000019043F64400C4F20200016841F001010D
:1021700001600021006800F00100019001981A2020
:10218000FFF75CFB1A2056E040F60001C4F20001A4
:10219000884238D041F60001C4F2000188421FD1C4
:1021A0000020019043F64400C4F2020050F8041CE1
:1021B00041F0400140F8041C50F8040C00F04000CD
:1021C0001DE00020019043F64400C4F202000168C3
:1021D00041F480310160006800F480300190019882
:1021E00002B080BD0020019043F64400C4F202001A
:1021F000016841F002010160006800F002000190F6
:10220000019802B080BD00200022019043F64400F6
:10221000C4F2020050F8041C41F0040140F8041C10
:10222000002150F8040C00F00400019001981E20D9
:10223000FFF704FB1E2002B0BDE88040FFF7EEBAB6
:1022400090F83D1001291CBF01207047022180F841
:102250003D100068C16841F00101C16041F2FF71A9
:10226000C4F2000188420FDC40F2FF71C4F20001A9
:10227000884217DCB0F1804F2DD040F20041C4F20B
:102280000001884227D02DE040F2FF31C4F2010165
:10229000884214DC41F60001C4F2000188421AD0E1
:1022A000002114E040F60001C4F20001884212D07F
:1022B00040F60041C4F2000188420CD012E044F222
:1022C0000001C4F20101884205D040F20041C4F28D
:1022D0000101884206D1816801F00701062904BF87
:1022E00000207047016841F0010101600020704743
:1022F00090F83C300222012B00F0C28080B580F8BB
:102300003D20012280F83C204FF67772D0F800C0C3
:10231000DCF8083023EA0202CCF808200B684F2BC7
:1023200028DC1F2B42DD202B43D0302B41D0402B0B
:1023300040F0A880D1F804E0C968DCF82030DCF86F
:10234000202022F00102CCF82020DCF8182022F016
:10235000F00242EA0111CCF8181023F00A0141EA18
:102360000E01CCF82010DCF8081041F0470121F0F4
:1023700030017AE06F2B24DDB3F5005F44D0B3F574
:10238000805F74D0702B7DD1D1E90123C9681A43D5
:1023900042EA0121DCF8082022F47F421143CCF804
:1023A0000810DCF8081041F077015EE00BB1102B4B
:1023B00068D1DCF8081021F07001194341F00701E1
:1023C00053E0502B32D0602B5CD14A68C968DCF8EE
:1023D000203023F01003CCF82030DCF8183023F440
:1023E000704343EA0131DCF82030CCF8181023F0B8
:1023F000A00141EA0211CCF82010DCF8081041F0ED
:10240000670121F0100130E0D1E90123C9681A43C6
:1024100042EA0121DCF8082022F47F421143CCF883
:102420000810DCF8081041F480411EE0D1F804E007
:10243000C968DCF82030DCF8202022F00102CCF85A
:102440002020DCF8182022F0F00242EA0111CCF83A
:10245000181023F00A0141EA0E01CCF82010DCF834
:10246000081041F0570121F02001CCF8081000229B
:10247000002180F83C10012180F83D10BDE880402B
:10248000104670470122F3E7002804BF012070477F
:102490002DE9F04F81B0044690F83D000D4628B973
:1024A000002084F83C00204600F048F8022044F266
:1024B000070284F83D002068816891438160211DF6
:1024C00001F0A8FF20688168D0F818A0D0F820C0DB
:1024D000D5E9003ED5E902B7D5E90489D5E9062654
:1024E00019432B6A4BEA02224FF6FC4581604FF6F6
:1024F000FF71AA432AEA01013943114341EA062147
:1025000041EA081141EA033181612CF0AA0141EA54
:102510000E0141EA09110162012084F8460084F8A5
:102520003E0084F83F0084F8420084F8430084F8B9
:102530003D00002001B0BDE8F08F00002DE9F04122
:1025400086B0002140F600420591CDE90311CDE9A6
:102550000111C4F20002006890424FD040F20041E5
:10256000C4F2000188427AD0B0F1804F74D143F6B2
:1025700030000026002401274FF0020801AD00962C
:10258000C4F20200C4F20204016941F001010161D8
:10259000016901F00101009100990096016841F084
:1025A00001010160016801F00101009100990096AC
:1025B000016841F0020101602946006800F0020054
:1025C000009000980597CDE90376CDF8088020208B
:1025D00001902046FEF78AFE0820CDE90467CDE988
:1025E00002872946019004F58060FEF77FFE1C20DB
:1025F00000210022FFF722F91C205EE043F63000A4
:102600000091C4F20200026942F00802026102690C
:1026100002F008020092009A0091026842F0010262
:102620000260006800F00100009000980220CDE9EF
:1026300004100121CDE90201032001A9019000202D
:10264000C4F20200FEF752FE322000210022FFF702
:10265000F5F83220FFF7E2F806B0BDE8F08143F666
:10266000300100200090C4F202010A6942F0020227
:102670000A610A6902F002020092009A00900A6858
:1026800042F002020A60096801F00201009100991B
:102690000221CDE90401CDE90210302001A9019009
:1026A0000020C4F2020000F58060FEF71FFE1D202E
:1026B00000210022FFF7C2F81D20FFF7AFF806B097
:1026C000BDE8F08110B590F83E4090F83F3090F8AA
:1026D00042E090F843C0012204290BD0B1B9012C8B
:1026E00008BFBEF1010F42D1022180F83E1080F8F0
:1026F00042102DE0012B08BFBCF1010F37D10221A0
:1027000080F83F1080F8431000681DE0012C08BFDE
:10271000012B2CD1BEF1010F29D1BCF1010F26D123
:102720000222002980F83E2080F83F2080F84220D5
:1027300080F843200CD00068016A21F00101016299
:10274000016A41F00101016210216FF0100203E003
:10275000006801216FF00102036A1A400262026AF6
:10276000114300220162016841F00101016010463D
:1027700010BD00007047000010B5044600680169F4
:10278000890744BFC1685FEA817138D4016949078C
:1027900044BFC1685FEA41713DD40169090744BF84
:1027A000C1685FEA017143D40169C90644BFC168C9
:1027B0005FEAC16148D40169C9071CBFC1685FEA0B
:1027C000C1714ED10169090644BFC1685FEA016168
:1027D0004FD40169490644BFC1685FEA416150D4E2
:1027E0000169890646BFC1685FEA816110BD6FF06B
:1027F000200101612046BDE81040FFF7DDBB6FF00E
:1028000002010161012121778069800741D02046C2
:10281000FFF7B0FF43E06FF004010161022121776F
:10282000806910F4407F3ED02046FFF7A3FF40E0D0
:102830006FF00801016104212177C06980073CD055
:102840002046FFF797FF3EE06FF01001016108217D
:102850002177C06910F4407F39D02046FFF78AFF06
:102860003BE06FF001010161204600F0DBFA2068D7
:10287000A8E76FF0800101612046FFF79BFB20680D
:10288000A7E76FF040010161204600F0E5FA2068FB
:10289000A6E7204600F0EAF8204600F02BFA0020D8
:1028A0002077206872E7204600F0E0F8204600F02C
:1028B00021FA0020207720686FE7204600F0D6F844
:1028C000204600F017FA0020207720686CE72046A9
:1028D00000F0CCF8204600F00DFA002020772068A8
:1028E00069E7000080B586B000210591CDE90311AC
:1028F000CDE901114FF6FF710068C4F20001884272
:102900002FDD44F20001C4F2010188424DD040F2B3
:102910000041C4F20101884269D00021C4F20101E2
:10292000884262D143F6300100200090C4F20201D7
:102930000A6842F010020A60096801F01001009173
:10294000009901210591CDE90300022002904FF486
:10295000D440019040F20040C4F2020000F5406013
:102960007FE040F60001C4F2000188425ED041F6EB
:102970000001C4F20001884237D143F63001002043
:102980000090C4F202010A6842F002020A6009687B
:1029900001F002010091009909210591CDE90300A0
:1029A000022002904FF4404056E043F630010020F0
:1029B0000090C4F202010A6842F010020A6009683D
:1029C00001F010010091009903210591CDE9030068
:1029D000022001A902906020019040F20040C4F260
:1029E000020000F54060FEF781FC06B080BD43F6B2
:1029F000300100200090C4F202010A6842F0040293
:102A00000A60096801F00401009100990321059111
:102A1000CDE90300022002904FF47070019040F263
:102A20000040C4F2020000F580601AE043F6300175
:102A300000200090C4F202010A6842F002020A601B
:102A4000096801F00201009100990221CDE9040119
:102A5000CDE902104FF40070019040F20040C4F242
:102A6000020001A9FEF742FC06B080BD70470000DD
:102A700090F83C30012B02BF0223184670474FEA02
:102A8000B2020123032A80F83C3000F2FE802DE9D7
:102A9000F041DFE802F002407FBF03681A6A22F0CB
:102AA00001021A621A46D3F820E0D3F804C052F8A3
:102AB000187F8C680E682EF0020544EA050E27F098
:102AC000730443F4806544EA060840F20046C4F209
:102AD0000106B5420DD1CD68D1E905672CF44074EB
:102AE000264346EA070C2EF00C0725F0040646EABA
:102AF000070EC3F804C0C3F818804F685F63C3F8BB
:102B000020E09F6947F008079F619F6927F004074D
:102B10009F610969B3E003681A6A22F010021A6221
:102B20001A461F6AD3F804C052F8184F8E680D6811
:102B300027F0200724F4E64447EA061E40F2004648
:102B400044EA052843F48065C4F20106B54210D179
:102B5000CD68D1E905672CF4406444EA86066FF03D
:102B6000400446EA870C04EA05142EF0C00744EA44
:102B7000070EC3F804C0C3F818804F689F63C3F8FA
:102B800020E09F6947F400679F619F6927F4806791
:102B90009F6172E003681A6A22F480721A621A4610
:102BA0001F6AD3F804C052F81C4F8E680D6827F4D2
:102BB000007724F0730447EA062E40F2004644EA08
:102BC000050843F48065C4F20106B54210D1CD6812
:102BD000D1E905672CF4405444EA06162C0240F271
:102BE000FF4546EA071CAC432EF4406744EA070E53
:102BF000C3F804C0C3F81C804F68DF63C3F820E04B
:102C0000DF6947F00807DF61DF6927F00407DF614C
:102C1000096934E003681A6A22F480521A621A467B
:102C2000D3F820C0D3F8048052F81C6F8F680D6869
:102C30002CF4005444EA073C26F4E64743F480644D
:102C400047EA052E40F20045C4F20105AC4202BF3E
:102C50004C6928F4804545EA8418C3F80480C3F819
:102C60001CE04F681F64C3F820C0DF6947F40067A9
:102C7000DF61DF6927F48067DF6109690902136892
:102C8000194300231160BDE8F041002180F83C1099
:102C900018467047002804BF0120704710B504464D
:102CA00090F83D0028B9002084F83C00204600F050
:102CB0001FF80220211D84F83D00206801F0AAFBC6
:102CC000012084F8460084F83E0084F83F0084F830
:102CD000400084F8410084F8420084F8430084F8FE
:102CE000440084F8450084F83D00002010BD000039
:102CF000704700007047000041B1082909D004293D
:102D000014BF00F1410200F13F0204E000F13E0275
:102D100001E000F140021278012A1CBF0120704737
:102D2000022241B1082909D0042914BF80F84120AA
:102D300080F83F2004E080F83E2001E080F8402049
:102D4000006801F01F01012202FA01F1026A8A43C0
:102D50000262026A1143016241F2FF71C4F2000192
:102D600088420FDC40F2FF71C4F20001884217DC98
:102D7000B0F1804F49D040F20041C4F200018842D6
:102D800043D049E040F2FF32C4F20102904214DC29
:102D900041F60003C4F20003984236D0002314E049
:102DA00040F60001C4F2000188422ED040F60041F6
:102DB000C4F20001884228D02EE044F20003C4F29D
:102DC0000103984221D040F20043C4F2010398422B
:102DD00022D1436C884243F400434364C2DD9042F5
:102DE00007DC41F60001C4F2000188420DD0002149
:102DF00007E044F20001C4F20101884205D040F22C
:102E00000041C4F20101884206D1816801F0070146
:102E1000062904BF00207047016841F001010160EC
:102E20000020704740F29C41C2F2000188420CD061
:102E300040F27451C2F20001884218BF704740F25C
:102E40001870C2F2000001F023BD40F25470C2F2CB
:102E5000000001F01DBD0000704700007047000039
:102E60007047000010B582B0D0F800E00446DEF8EC
:102E70000010DEF80C20DEF814305FEA017C00F070
:102E8000C38002F4907003F00103C01800F0FF80CB
:102E9000C8071FBF12F48070206C40F0010020644E
:102EA000480705D5002B1EBF206C40F002002064AF
:102EB000880705D5002B1EBF206C40F0040020645D
:102EC000BCF1000F07D502F02000C0181EBF206C17
:102ED00040F008002064206C002800F06F8202EAB5
:102EE0000100800604D5204601F02EFBD4F800E056
:102EF000DEF81400216C00F0400001F008014018D9
:102F000000F0A0815EE8030F03E000BF206850E8F6
:102F1000030F216820F4907041E80302E2B12068B9
:102F200050E8030F216820F4907041E803029AB141
:102F3000206850E8030F216820F4907041E80302F4
:102F400052B1206850E8030F216820F4907041E8E6
:102F50000302002ADAD100BF206850E8050F21687B
:102F600020F0010041E80502DAB1206850E8050FC1
:102F7000216820F0010041E8050292B1206850E884
:102F8000050F216820F0010041E805024AB12068E0
:102F900050E8050F216820F0010041E80502002AF1
:102FA000DAD1206B012824D1206850E8030F216872
:102FB00020F0100041E80302DAB1206850E8030F66
:102FC000216820F0100041E8030292B1206850E827
:102FD000030F216820F0100041E803024AB1206885
:102FE00050E8030F216820F0100041E80302002A96
:102FF000DAD1202084F83E00002020632068416957
:10300000490640F119810AE011408A0640D5204660
:1030100002B0BDE8104001F097BA00BF206850E848
:10302000050F216820F0400041E80502DAB1206870
:1030300050E8050F216820F0400041E8050292B1F8
:10304000206850E8050F216820F0400041E80502A3
:103050004AB1206850E8050F216820F0400041E89F
:103060000502002ADAD1A06B002800F0E58044F2C6
:103070003D51C0F600010165FDF73AFF002800F060
:103080009D81A06B016D02B0BDE810400847114062
:10309000226BC8061CD5012A1AD100200190DEF847
:1030A00000000190DEF8040001900198DEF81400A1
:1030B000400600F19880E18DA28DE08D00281CBFB4
:1030C000511A5FEA014000F079815EE8030F17E0D2
:1030D000080600F19D80480640F17081DEF80C0082
:1030E00020F04000CEF80C00202084F83D0020465F
:1030F00002B0BDE8104000F06FBB206850E8030F3D
:10310000226820F4907042E80303DBB1206850E8A5
:10311000030F226820F4907042E8030393B1206803
:1031200050E8030F226820F4907042E803034BB18B
:10313000206850E8030F226820F4907042E80303EF
:10314000002BDAD1206850E8050F226820F001003A
:1031500042E80503DBB1206850E8050F226820F043
:10316000010042E8050393B1206850E8050F22688A
:1031700020F0010042E805034BB1206850E8050F3C
:10318000226820F0010042E80503002BDAD120205C
:1031900084F83E0000202063206850E8030F226876
:1031A00020F0100042E80303DBB1206850E8030F71
:1031B000226820F0100042E8030393B1206850E831
:1031C000030F226820F0100042E803034BB120688F
:1031D00050E8030F226820F0100042E80303002BA0
:1031E000DAD189B2D7E0A26B1068436899B200299E
:1031F00000F0E480B4F82CC0614580F0DF80E38506
:10320000D069B0F5807F00F0C2805EE8030F23E054
:1032100094F83D00212840F0D180A068B0F5805F8F
:1032200003D12069002800F0BC80206A411C216283
:103230000078CEF80400BCE0204602B0BDE81040A3
:10324000FFF70EBE2046FFF70BFE0020206402B001
:1032500010BD206850E8030F216820F4807041E819
:103260000302DAB1206850E8030F216820F480706F
:1032700041E8030292B1206850E8030F216820F46E
:10328000807041E803024AB1206850E8030F2168CA
:1032900020F4807041E80302002ADAD1206850E867
:1032A000050F216820F0010041E80502DAB120682D
:1032B00050E8050F216820F0010041E8050292B1B5
:1032C000206850E8050F216820F0010041E8050260
:1032D0004AB1206850E8050F216820F0010041E85C
:1032E0000502002ADAD1206850E8050F216820F095
:1032F000400041E80502DAB1206850E8050F216876
:1033000020F0400041E8050292B1206850E8050F26
:10331000216820F0400041E805024AB1206850E8E9
:10332000050F216820F0400041E80502002ADAD1AB
:10333000202084F83E0000202063206850E8030F1E
:10334000216820F0100041E80302DAB1206850E85B
:10335000030F216820F0100041E8030292B12068B9
:1033600050E8030F216820F0100041E803024AB141
:10337000206850E8030F216820F0100041E80302A4
:10338000002ADAD1A06BFDF773FDB4F82CC0E08DF4
:10339000ACEB000081B2204602B0BDE81040FFF760
:1033A0005DBD206A30F8021B6FF35F21CEF8041078
:1033B0002062E08C0138E084000401D002B010BD2E
:1033C000DEF80C0020F08000CEF80C00DEF80C00D7
:1033D00040F04000CEF80C0002B010BD002804BF41
:1033E0000120704710B5044690F83D0028B9002030
:1033F00084F83C00204600F021F8242084F83D00A9
:103400002068C16821F40051C160204601F018F91C
:103410002068016921F490410161416921F02A018C
:103420004161C16841F40051C16000202021206445
:1034300084F83D1084F83E1010BD000080B586B0C1
:10344000002144F200420591CDE90311CDE90111BB
:10345000C4F200020068904242D044F60001C4F277
:103460000001884266D041F20001C4F201018842A5
:1034700040F08A8043F6300100200090C4F202013F
:103480004A6942F010024A614A6902F01002009251
:10349000009A00900A6842F001020A60096801F08F
:1034A000010100910099072105910321CDE9030154
:1034B000022001A902904FF4C060019040F6004044
:1034C000C4F20200A0F54060FDF710FF25200021A6
:1034D0000022FEF7B3F92520FEF7A0F906B080BD63
:1034E00043F630000091C4F20200026942F4003257
:1034F0000261026902F400320092009A00910268AF
:1035000042F008020260006800F008000090009895
:10351000072005900320CDE90310022001A90290A5
:103520006020019040F60040C4F20200FDF7DEFE8C
:1035300006B080BD43F6300100200090C4F20201C5
:103540000A6942F480220A610A6902F48022009228
:10355000009A00900A6842F008020A60096801F0C7
:10356000080100910099072105910321CDE903018C
:10357000022001A902904FF44070019040F60040F3
:10358000C4F20200FDF7B2FE06B080BD7047000035
:103590002DE9F047044690F83D0020280DD10F4654
:1035A0000120002900F016811646002A08BFBDE858
:1035B000F08794F83C00012802D10220BDE8F08792
:1035C0004FF0000A01201D46C4F840A084F83C00DA
:1035D000212084F83D00FDF775FFE684A68480462F
:1035E000A068B0F5805F07D126694FF00009002E72
:1035F0000CBFB9463E4602E03E464FF0000984F853
:103600003CA0E28C206801681AB36F1C090604D53F
:103610000EE000BF016809060AD4002FFAD07DB37E
:10362000FDF750FFA0EB0800A84229D82068F1E779
:1036300016B116F8011B04E039F8021B00266FF3DF
:103640005F214160E18C0139E184E28C0168002A4C
:10365000E1D149060DD46E1C46B1002D66D0FDF7B0
:1036600031FFA0EB0800A84260D820680168490635
:10367000F2D5202084F83D000020BDE8F08700BF8F
:10368000206850E8030F216820F4D07041E803025D
:10369000E2B1206850E8030F216820F4D07041E8BF
:1036A00003029AB1206850E8030F216820F4D0701B
:1036B00041E8030252B1206850E8030F216820F46A
:1036C000D07041E80302002ADAD100BF206850E838
:1036D000050F216820F0010041E80502DAB12068F9
:1036E00050E8050F216820F0010041E8050292B181
:1036F000206850E8050F216820F0010041E805022C
:103700004AB1206850E8050F216820F0010041E827
:103710000502002ADAD12020002184F83D0084F837
:103720003C1084F83E000320BDE8F087206850E894
:10373000030F216820F4D07041E80302E2B1206851
:1037400050E8030F216820F4D07041E803029AB1D9
:10375000206850E8030F216820F4D07041E803028C
:1037600052B1206850E8030F216820F4D07041E87E
:103770000302002ADAD100BF206850E8050F216853
:1037800020F0010041E80502DAB1206850E8050F99
:10379000216820F0010041E8050292B1206850E85C
:1037A000050F216820F0010041E805024AB12068B8
:1037B00050E8050F216820F0010041E80502002AC9
:1037C000DAD12020002184F83D0084F83C1084F8F0
:1037D0003E000320BDE8F08770470000FEE70000D0
:1037E000B0B584B040F2841042F2000201230024FC
:1037F0004FF480310125C2F20000C4F20102C0F68C
:103800000073C46280F820400476836280F8304000
:10381000C561C0E90021C0E90244C0E90445CDE921
:103820000244CDE90044FCF7DBFE002818BFFCF79A
:1038300035FE0620CDE901546946009040F284101F
:10384000C2F20000FCF730FE002818BFFCF726FE8D
:1038500004B0B0BD10B584B040F2CC10012442F2E7
:10386000001300214FF48032C2F20000C0F6007451
:10387000C4F20103C16280F8201001768462012441
:1038800080F83010C461C0E90032C0E90211C0E91B
:103890000414CDE90211CDE90011FCF7A1FE0028C6
:1038A00018BFFCF7FBFD07206946CDE90140022067
:1038B000009040F2CC10C2F20000FCF7F5FD0028A9
:1038C00018BFFCF7EBFD04B010BD0000B0B584B02C
:1038D00040F2142042F200224FF0805100244FF0B9
:1038E00010630125C2F20000C4F20102C1624FF46C
:1038F000803180F820400476836280F83040C561D2
:10390000C0E90021C0E90244C0E90445CDE9024410
:10391000CDE90044FCF764FE002818BFFCF7BEFDAB
:103920000320CDE901546946009040F21420C2F210
:103930000000FCF7B9FD002818BFFCF7AFFD04B08C
:10394000B0BD000080B540F25C2046F2004210217C
:103950000023C2F20000C4F200028383C0E9002108
:10396000C0E90233C0E904338361FDF76FF9002831
:1039700014BFBDE8804080BDFCF790BD80B540F22B
:10398000842046F6000210210023C2F20000C4F297
:1039900000028383C0E90021C0E90233C0E9043397
:1039A0008361FDF753F9002814BFBDE8804080BD56
:1039B000FCF774BD80B582B000200022019043F670
:1039C0003000C4F20200016841F48001016000216E
:1039D000006800F48000019001983820FDF72EFF68
:1039E000382002B0BDE88040FDF718BF2DE9F04750
:1039F00086B043F63000002740F600080022059705
:103A00000097C4F20200C4F20208016808F50064DD
:103A100041F010010160016801F01001009100996E
:103A20000097016841F004010160016801F00401A0
:103A3000009100990097016841F0800101600168E0
:103A400001F08001009100990097016841F00101A7
:103A50000160016801F0010100910099009701687F
:103A600041F002010160016801F00201009100993A
:103A70000097016841F0080101600521006800F02D
:103A80000800009000982046FDF716FD40464FF4D0
:103A9000005100224FF4005AFDF70EFD404602216E
:103AA00001224FF002090125FDF706FD01AE0420B9
:103AB0000497CDE90257019020463146FDF716FCE8
:103AC00040463146CDE90377CDE901A5FDF70EFC6F
:103AD0004FF0030A40463146CDE9035ACDE901953E
:103AE000FDF704FC4FF40040CDE90275314601902A
:103AF000A8F50060FDF7FAFB20463146CDE9037AD0
:103B0000CDE90155FDF7F2FB06B0BDE8F0870000F6
:103B100080B540F20C3048F2A06345F200414FF40A
:103B2000804C0022C2F20000C0F20103C4F2000186
:103B30000262C0E90013C0E90222C0E904C2C0E980
:103B40000622FDF7C5FC002814BFBDE8804080BDFB
:103B5000FCF7A4BC80B540F2603048F2A06345F6A3
:103B600000014FF4804C0022C2F20000C0F20103B9
:103B7000C4F200010262C0E90013C0E90222C0E9F8
:103B800004C2C0E90622FDF7A3FC002814BFBDE86B
:103B9000804080BDFCF782BC80B540F2B43043F673
:103BA00000024FF4827100234FF4007CC2F2000047
:103BB000C4F20002C0E900210A21C0E90233C0E9D1
:103BC0000433C0E906C3C0E90833C0E90A31FEF78F
:103BD00021F9002814BFBDE8804080BDFCF75EBC21
:103BE00080B58CB040F2544041F60002002142F210
:103BF0000F7CA723C2F20000C4F20002CDE90A1133
:103C0000CDE908118161C0E90023C0E9021C01610E
:103C10000791CDE90511CDE90311CDE90111FEF7B9
:103C200055FA002818BFFCF739FC4FF4805008A95A
:103C3000089040F25440C2F20000FEF759FB002801
:103C400018BFFCF72BFC40F25440C2F20000FFF713
:103C500021F8002818BFFCF721FC002001A9002250
:103C60000590CDE902006020019040F25440C2F27C
:103C70000000FEF7FDFE002818BFFCF70FFC40F225
:103C8000544001A90422C2F20000FEF7F1FE002810
:103C900018BFFCF703FC40F25440C2F20000FEF7EC
:103CA00021FE0CB080BD000010B596B040F20C4073
:103CB0000023002142F20F72C2F20000C4F201039D
:103CC0001591CDE91311CDE91111CDE90F11CDE910
:103CD0000D11CDE90B11CDE90911C0E90031C0E9A1
:103CE0000212C0E904118161CDE90711CDE9051186
:103CF000CDE90311CDE90111FEF7E8F9002818BF5D
:103D0000FCF7CCFB4FF4805012A9129040F20C400B
:103D1000C2F20000FEF7ECFA002818BFFCF7BEFB69
:103D200040F20C40C2F20000FEF7B4FF002818BFBA
:103D3000FCF7B4FB40F20C40002410A9C2F20000D2
:103D4000CDE91044FEF764F9002818BFFCF7A6FB84
:103D50006020CDE90E44CDE90C44CDE90A4409A91F
:103D60000022099040F20C40C2F20000FEF780FEF3
:103D7000002818BFFCF792FB40F20C4009A904226E
:103D8000C2F20000FEF774FE002818BFFCF786FBA5
:103D900040F20C4009A90822C2F20000FEF768FEBA
:103DA000002818BFFCF77AFB40F20C4009A90C224E
:103DB000C2F20000FEF75CFE002818BFFCF76EFBA5
:103DC000002001A90590CDE90300CDE9010008908C
:103DD0004FF40050069040F20C40C2F20000FEF793
:103DE000EDF8002818BFFCF759FB40F20C40C2F276
:103DF0000000FEF777FD16B010BD000010B58CB0C6
:103E000040F29C4000244FF6FF714FF08042C2F216
:103E100000008461C0E90024C0E90241012104617D
:103E2000CDE90044CDE90A44CDE90841CDE9064495
:103E3000CDE904410321039103A9FEF725FB0028E6
:103E400018BFFCF72BFB40F29C406946CDE90044CB
:103E5000C2F20000FEF7DCF8002818BFFCF71EFBDA
:103E60000CB010BD10B58CB040F2E44040F20042FE
:103E700000244FF6FF71C2F20000C4F20002846118
:103E8000C0E90024C0E9024101210461CDE90044F8
:103E9000CDE90A44CDE90841CDE90644CDE9044124
:103EA0000321039103A9FEF7EFFA002818BFFCF7DE
:103EB000F5FA40F2E4406946CDE90044C2F2000060
:103EC000FEF7A6F8002818BFFCF7E8FA0CB010BD02
:103ED00010B58EB040F22C5040F60003002140F2A5
:103EE0009F22C2F20000C4F20003CDE90C11CDE91B
:103EF0000A11CDE908118161C0E90031C0E902125F
:103F000001610791CDE90511CDE90311CDE9011159
:103F1000FEF7DCF8002818BFFCF7C0FA4FF4805019
:103F20000AA90A9040F22C50C2F20000FEF7E0F914
:103F3000002818BFFCF7B2FA40F22C50C2F2000081
:103F4000FEF7A8FE002818BFFCF7A8FA002470208E
:103F500008A90994089040F22C50C2F20000FEF724
:103F600057F8002818BFFCF799FA4FF4A870059489
:103F7000039401A90C2202906020019040F22C5081
:103F8000C2F20000FEF774FD002818BFFCF786FAA5
:103F900040F22C50C2F20000FEF7A4FC0EB010BD9F
:103FA00010B58CB040F2745040F6004200244FF639
:103FB000FF71C2F20000C4F200028461C0E9002473
:103FC000C0E9024101210461CDE90044CDE90A4480
:103FD000CDE90841CDE90644CDE90441032103912F
:103FE00003A9FEF751FA002818BFFCF757FA40F270
:103FF00074506946CDE90044C2F20000FEF708F8AB
:10400000002818BFFCF74AFA0CB010BD10B596B0E6
:1040100040F2BC5040F20043002142F20F72C2F263
:104020000000C4F201031591CDE91311CDE911117E
:10403000CDE90F11CDE90D11CDE90B11CDE9091134
:10404000C0E90031C0E90212C0E904118161CDE983
:104050000711CDE90511CDE90311CDE90111FEF7F5
:1040600035F8002818BFFCF719FA4FF4805012A950
:10407000129040F2BC50C2F20000FEF739F900285D
:1040800018BFFCF70BFA40F2BC50C2F20000FEF77A
:1040900001FE002818BFFCF701FA40F2BC500024D2
:1040A00010A9C2F20000CDE91044FDF7B1FF0028CD
:1040B00018BFFCF7F3F96020CDE90E44CDE90C44BC
:1040C000CDE90A4409A90022099040F2BC50C2F28D
:1040D0000000FEF7CDFC002818BFFCF7DFF940F226
:1040E000BC5009A90422C2F20000FEF7C1FC00285E
:1040F00018BFFCF7D3F940F2BC5009A90822C2F25C
:104100000000FEF7B5FC002818BFFCF7C7F940F225
:10411000BC5009A90C22C2F20000FEF7A9FC00283D
:1041200018BFFCF7BBF9002001A90590CDE90300F9
:10413000CDE9010008904FF40050069040F2BC50C9
:10414000C2F20000FDF73AFF002818BFFCF7A6F9FD
:1041500040F2BC50C2F20000FEF7C4FB16B010BD26
:1041600080B58CB040F2046044F20002002142F2BB
:104170000F7C40F24F13C2F20000C4F20102CDE9FD
:104180000A11CDE908118161C0E90023C0E9021CD0
:1041900001610791CDE90511CDE90311CDE90111C7
:1041A000FDF794FF002818BFFCF778F94FF4805012
:1041B00008A9089040F20460C2F20000FEF798F8E7
:1041C000002818BFFCF76AF940F20460C2F2000050
:1041D000FEF760FD002818BFFCF760F9002001A978
:1041E00000220590CDE902006020019040F20460B9
:1041F000C2F20000FEF73CFC002818BFFCF74EF9A5
:1042000040F2046001A90422C2F20000FEF730FC73
:10421000002818BFFCF742F940F20460C2F2000027
:10422000FEF760FB0CB080BD80B540F24C6041F2FF
:10423000000200214FF00C0C4FF41653C2F20000A4
:10424000C4F20102C0E90023C0E90211C0E9041C64
:10425000C0E90611FFF7C2F8002814BFBDE880408E
:1042600080BDFCF71BB9000080B540F2906044F2BD
:10427000004200214FF00C0C4FF4E133C2F2000079
:10428000C4F20002C0E90023C0E90211C0E9041C25
:10429000C0E90611FFF7A2F8002814BFBDE880406E
:1042A00080BDFCF7FBB8000080B540F2D46044F656
:1042B000000200214FF00C0C4FF4E133C2F2000079
:1042C000C4F20002C0E90023C0E90211C0E9041CE5
:1042D000C0E90611FFF782F8002814BFBDE880404E
:1042E00080BDFCF7DBB80000FEE70000FEE7000041
:1042F000704700007047000080B5FDF723FABDE865
:10430000804000F0B5BD0000B0B592B043F640006B
:1043100000240225CDE90A44CDE908440594CDE9FD
:104320000344CDE901440094C4F20200016841F065
:1043300080510160006800F0805000900098009467
:1043400047F20000C4F20000016841F480410160BE
:10435000A821006800F4804000900098042011908B
:104360001095CDE90E014FF48000CDE90C504FF4CB
:10437000803007900120069006A8FDF7ABFB20B126
:10438000EFF3108072B600BFFEE74FF480500521B6
:1043900005904FF4A05004900F20CDE902540190F5
:1043A00001A8FDF789FA002804BF12B0B0BDEFF3F1
:1043B000108072B6FEE700004EF68850CEF2000084
:1043C000016841F4700101607047000040F20C4048
:1043D000C2F20000FEF7D0B940F29C40C2F20000E9
:1043E000FEF7CAB940F2E440C2F20000FEF7C4B9D9
:1043F00080B5FCF745F840F22C50C2F20000BDE851
:104400008040FEF7B9B9000040F27450C2F20000DB
:10441000FEF7B2B940F6FF3C0268C4F2000C6045FA
:104420000FDCB0F1804F1DD040F20043C4F2000316
:10443000984217D040F60003C4F20003984211D00E
:1044400014E040F60043C4F2000398420AD040F260
:104450000043C4F20103984204D00023C4F20103D4
:10446000984203D14B6822F070021A4341F6FF7361
:10447000C4F2000398420DDC60451FDCB0F1804FB0
:1044800041D040F20043C4F2000398423BD040F6D2
:10449000000321E043F6FF73C4F20103984220DCDD
:1044A00042F20003C4F2000398422CD00023C4F26D
:1044B0000103984227D040F2004320E040F6004339
:1044C000C4F2000398421ED041F60003C4F2000378
:1044D000984218D041F60043C4F20003984212D02B
:1044E00015E044F20003C4F2010398420BD044F6F5
:1044F0000003C4F20103984205D044F20043C4F221
:104500000103984203D1CB6822F440721A434B69ED
:1045100022F080021A4340F200430260C4F2010319
:104520008A68C2620A68826240F480629A4204BF6A
:10453000096901630121416170470000806B00211E
:10454000C185C184FEF78CBC90F83E10222918BFAB
:1045500070478368B3F5805F05D10169B1B100F19F
:1045600028010A680BE00146002B51F8282F01D1E1
:10457000036923B103685B6803F07F0301E003680C
:104580005B6813700A6801320A6007E00168826A9A
:1045900049686FF35F2122F8021B8262C18D0139E5
:1045A000C185090400D070470168CA6822F0200262
:1045B000CA60CA6822F48072CA604A6922F00102A5
:1045C0004A61202280F83E20026B012A18BFFEF7C4
:1045D000DDBF0022026300BF51E8031F026821F023
:1045E000100142E803130168DBB151E8031F0268C0
:1045F00021F0100142E80313016893B151E8031F51
:10460000026821F0100142E8031301684BB151E840
:10461000031F026821F0100142E803130168002B18
:10462000DAD10A68D20608D581B0002200920A6861
:10463000009249680091009901B0818DFEF70EBC8F
:10464000B0B50446006849F20C650169E26821F4DE
:10465000405111430161D4F808C0D4E90423D4F8CF
:104660001CE0C16842EA0C02A9431A4342EA0E0266
:104670001143C1604169A26921F440711143416154
:1046800041F2004140F48060C4F20101884202D14D
:10469000FDF7D6F901E0FDF7BFF9E269192163687A
:1046A000A0FB0101B2F5004F1CD15A00DB0FFBF754
:1046B000DDFD48F21F51C5F2EB11A0FB01235A09A1
:1046C0006FF0630302FB0300322303EBC000A0FB87
:1046D00001014FF4F87000EA1110C1F3421100EB30
:1046E00002101AE09A009B0FFBF7C0FD48F21F5121
:1046F000C5F2EB11A0FB01235A096FF0630302FB23
:104700000300322303EB0010A0FB0101F02000EABC
:104710005110C1F3431100EB021008432168886077
:10472000B0BD000040F24C60C2F20000FEF79ABB40
:10473000FEE70000F0B581B02DED068B82B040F2AF
:10474000187440F27451C2F20004C2F20001204613
:1047500000F0CEF840F2547540F29C41C2F20005E0
:10476000C2F20001284600F0C3F840F20C469FED6B
:104770001B8A9FED1B9A40F26870B7EE00AA0022D8
:10478000042300270094C2F20006C2F20000F0EEFB
:104790004A0A3146B0EE480AB0EE491A00F07AFAF9
:1047A00040F22C70314608220C23B0EE480AF0EE9D
:1047B0004A0AB0EE491A0095C2F2000000F06AFA07
:1047C00040F27C003221C2F20000C0F804710160A6
:1047D00002B0BDEC068B01B0F0BD00BF0060024628
:1047E0000000000040F22C500C21C2F20000FEF745
:1047F00083BA000010B50446FCF764FE2168B0FBE4
:10480000F1F202FB1100002818BF10BD40F22C503D
:10481000C2F200000068C16841F01001C16010BD23
:1048200010B50446D0F80401012804D088B901204D
:10483000C4F8040110BD41F2000001210122C4F2BC
:104840000200FCF739FED4F804010130C4F8040179
:1048500010BD40F22C500022C2F200000068C16876
:1048600021F01001C16000200121C4F8040141F2CF
:104870000000C4F20200FCF71FFE40F21420211DCC
:104880008022C2F20000BDE81040FCF7FDB8000035
:10489000017C59B1D0E9012100231268526AB3EBBF
:1048A000D23F0CBF01310139816070470121017491
:1048B0007047000010B5044640683C21FDF702FF38
:1048C0006068BDE81040FDF7BBBC000010B5D0E942
:1048D00000C2D0E902E100241268536A8460591AC8
:1048E00001EB0E4161440160516AC16010BD0000DE
:1048F00000220274C0E90021C0E9022270470000D2
:10490000B0F9021042F21072914209DC4DF6EF024A
:10491000CFF6FF72914205DC4DF6F002CFF6FF7242
:10492000114642800278022A14D0012A22D0002A9D
:1049300040F0FC8000214180016A4FEAB101032967
:1049400000F25D80DFE801F0024D5155C169096850
:10495000343151E000214180016A4FEAB10103295D
:1049600000F26480DFE801F00255595DC169096811
:10497000343159E0026AB1F1FF3F0CDD4FEAB20277
:10498000032A00F27F80DFE802F0026F7377C269CA
:104990001268343273E049429FED6E0A90ED061AB8
:1049A0004FEAB20202EE101A032AB8EEC22A82EED1
:1049B000002A30EE410A22EE000A31EE000ABDEE76
:1049C000C00A00F2A48010EE101A42F21073591AB5
:1049D000DFE802F0028F9499C26989B212685163CC
:1049E00095E0C1690968383106E0C16909683C3160
:1049F00002E0C1690968403142F20F720A60416AFF
:104A00004FEAB101032900F29180DFE801F08990BB
:104A1000969CC1690968383106E0C16909683C3172
:104A200002E0C1690968403100220A60416A4FEA28
:104A3000B101032988BF7047DFE801F002070C11BC
:104A4000C0690021006841637047C06900210068A7
:104A500081637047C06900210068C1637047C06905
:104A600000210068016461E0C2691268383206E022
:104A7000C26912683C3202E0C2691268403242F2F6
:104A80000F731360002948BF49429FED320A90ED31
:104A9000061A02EE101AB8EEC22A82EE002A30EE92
:104AA000410A22EE000A31EE000ABDEEC00A416A58
:104AB0004FEAB102032A39D810EE101A42F21073ED
:104AC000591ADFE802F002070C11C06989B20068C8
:104AD00041637047C06989B2006881637047C069EB
:104AE00089B20068C1637047C06989B20068016417
:104AF0007047C26989B21268916308E0C26989B2DD
:104B00001268D16303E0C26989B212681164416A14
:104B10004FEAB101032909D8DFE801F002090F15B6
:104B2000C06942F20F710068416370477047C06905
:104B300042F20F71006881637047C06942F20F71E1
:104B40000068C1637047C06942F20F710068016478
:104B5000704700BF00401C4670B52DED068B044623
:104B6000C068002194ED049A90ED000AB8EEC0AA46
:104B70000160A06800F060FC9FED310B9FED388A6A
:104B80008AEE091A53EC102B21EE089A00F06CFA09
:104B90009FED340A05460E4689EE000A10EE100A13
:104BA00000F04AFC9FED280B53EC102B00F05CFA50
:104BB0009FED270B53EC102B00F056FA9FED260BC0
:104BC00053EC102B00F050FA02460B4628463146B3
:104BD00000F0A2F994ED010A39EE009A84ED019AF1
:104BE00000F068F9B4EEC89AA060F1EE10FA10DA9D
:104BF000B5EEC09AF1EE10FA1CDA89EE080A4FF40D
:104C0000B471BDEEC00A10EE100A4843A0F5B470AE
:104C100008E089EE080A4FF4B471BDEEC00A10EE48
:104C2000100A484300EE100AB8EEC00A39EE400AF6
:104C300084ED010ABDEC068B70BD00BF00BF00BF54
:104C40005C8FC2F5285CEF3F182D4454FB210940CE
:104C5000000000000088B3407B14AE47E17A943F27
:104C60000000B4430000344310B50446C069216A13
:104C7000FEF742F8E069616ABDE81040FEF73CB813
:104C800010B50446FFF768FF2046BDE81040FFF767
:104C900037BE000000F11C0C8CE80E000021C0E9BA
:104CA00001114180017000F1100181EC030A0099AB
:104CB000C16070470000000070B541F200044FF47D
:104CC0000051C4F20204A4F50060FCF7EDFB4FF4C0
:104CD000FA70FCF7F7FA40F27C0040F24C654FF4B2
:104CE0008072FF23C2F20000C2F20005011D2846B7
:104CF000FEF74EFC45F23E5128460222FF23C0F645
:104D00000001FEF745FC40F2CC15C2F20005284632
:104D1000FBF724FE28464FF47A71FBF7C7FD2846BF
:104D2000FBF75AFC06462846FBF772FF01EE106AB5
:104D30009FED230AB8EEC11A21EE000A10EE100A08
:104D400000F07AFB9FED1A0B53EC102B00F08CF95E
:104D50009FED190B53EC102B00F086F900F0AAF828
:104D600040F2100200EE100A40F20C01C2F2000202
:104D7000C2F2000192ED001A0860B4EEC01AF1EE22
:104D800010FA0DDDB0EE081AB4EEC10AF1EE10FA19
:104D900006DD204604210122BDE87040FCF78CBBF3
:104DA000204604210022BDE87040FCF785BB00BF0F
:104DB0006666666666660A400000000000002040E5
:104DC00000008039FCF7CCFCFFF79EFAFEF70EFEE0
:104DD000FEF7F0FDFEF704FDFEF73CFDFEF776FD65
:104DE000FEF7B0FDFEF7CAFDFEF792FEFEF7D4FE19
:104DF000FEF75AFFFFF702F8FFF734F8FFF768F8FD
:104E0000FFF7CEF8FFF702F9FFF7AAF9FEF7E8FE81
:104E1000FFF70AFAFFF728FAFFF746FAFEF79AFEBD
:104E200000F004F8FFF748FFFCE7000080B540F20F
:104E30001870C2F20000FFF73DFD40F25470C2F25C
:104E40000000FFF737FD40F22C70C2F20000FFF7C0
:104E50000BFF40F26870C2F20000FFF705FF40F25E
:104E60007C00C2F20000BDE88040FFF7BBBC000040
:104E700080B540F21870C2F20000FFF727FD40F243
:104E80005470C2F20000FFF721FD40F22C70C2F214
:104E90000000FFF7F5FE40F26870C2F20000FFF775
:104EA000EFFE40F27C00C2F20000BDE88040FFF758
:104EB000A1BC000021F0004201F00043A2F16052C9
:104EC000B2F5801F28BFD2F17F6C0BD95FEA001CBE
:104ED00043EAC20242EB507018BF704728BF20F06F
:104EE00001007047B2F5801FBCBF184670474FEAFB
:104EF000410C1CF5001F02D2084600F01BBB70B528
:104F000000F05CF900000089FFF7F6BF4FF00040A9
:104F1000A0F580007047000010B591EA030F48BF6C
:104F200083F0004300F1A681841A71EB030C05D2D3
:104F3000121943EB0C03001B61EB0C014FEA1154F7
:104F4000A4EB135CDFF81CE11EEA430F18BF9EEAD6
:104F5000445F73D021EA045123EA0E0343F4801323
:104F6000DCF1200E32D322FA0CFE10EB0E0023FAF5
:104F70000CFE41EB0E01CCF1200E03FA0EFE10EBFD
:104F80000E00CCF1200E51F10001B1F5801F32D29C
:104F900001EB045112FA0EF2BDE8104058BF704701
:104FA000401C38BF5FEA420218BF7047002814BF98
:104FB00020F0010041F100014FEA410313F5001F09
:104FC00038BF7047A1F1C04100F046B9012A43EB58
:104FD0000302ACF1200CDCF11F0E32BF4FF0000ECB
:104FE00023FA0CF310EB030041EB0451B4EB115F17
:104FF000D0D0A1EB045101F58011490801EB045117
:105000005FEA30000ED350F1000038BF12FA0EFEF6
:1050100008D1BDE81040C9E7401C38BF5FEA420232
:10502000CAD1C3E7BDE810404FEA410313F5001FA2
:1050300038BF7047A1F1C04100F00EB99EEA445F4D
:1050400008D011EA5E0FBDE8104004BF01F0004136
:1050500000207047BDE8104070B500F0AFF800BF09
:1050600064FBBE3E0000E0FF70B5DFF848C11CEAFB
:10507000111E1EBF1CEA13159EEA0C0F95EA0C0FB9
:1050800000F06F8081EA03044EEAD47EAE4421EA48
:105090004C1123EA4C1341F4801143F48013AEF118
:1050A0007F7EA1FB024CA0FB0365361955EB0C0576
:1050B000A1FB034C4CF10003A0FB021C16EB0C06F9
:1050C000654153F10003094218BF46F0010613F48D
:1050D000007F0BD14FEA03314FEA053041EA155109
:1050E00040EA165034036FF003020AE04FEAC3218E
:1050F0004FEAC52041EA555140EA5650F4026FF09C
:10510000020202EB2E4201EB025585EACE710AD073
:105110005FEA440C18BF24F0004450F1000041F154
:10512000000120EAD47040F2FE7C624500D270BDDE
:10513000A84214BF4FF080444FF04044002E08BFF7
:105140000024BEF1806FA8BFA1F1C041BDE870404E
:1051500080F2828001F1C04101F000414FF0000077
:1051600070470CEA13159EEA0C0F18BF95EA0C0F56
:1051700006D081EA030E4FF000000EF0004170BD32
:1051800000F01CF88900013E00F007B800F009B8F3
:105190004FEA430C5FEA5C5C08D081EA030100F04F
:1051A0005BB84FEA410C5FEA5C5CF6D102494FF014
:1051B000000070470000FF070000F87F0EF1020EAC
:1051C0002EF0030E5EF8046B364205D4012A43EB41
:1051D000030515F5001F12D8012841EB010C1CF541
:1051E000001F0CD80ED14FEAD17C0CEB4C0C0CF10B
:1051F000020C15F5001F08BF4CEBD37C04E04FF008
:10520000080C01E04FEAD37C0CEB4C0526FA05F6BE
:1052100006F00706B6F1040C06D20EEB860CBDE8CC
:1052200070404CF0010C6047DFE80CF0090B020203
:105230004FF00041A1F500214FF0000070BD19466C
:105240001046012851EB010418BFD4F5001484BFA7
:10525000002001F0004170BD0808A0F500114FEAE0
:105260003101704710B591EA030F48BF83F0004346
:105270003FF55AAE841A71EB030C07D28CF0004C48
:10528000121943EB0C03001B61EB0C014FEA1154A4
:10529000A4EB135CDFF89CE11EEA430F18BF9EEA03
:1052A000445F00F0B08021EA045123EA6E035242C9
:1052B000C3EB6E0338BF5B1EDCF1200E25D322FA50
:1052C0000CFE10EB0E0043FA0CFE41EB0E01CCF18C
:1052D000200E03FA0EFE10EB0E00CCF1200E51F161
:1052E000000129D401EB045112FA0EF2BDE810407E
:1052F00058BF7047401C1CBFB2F1004F70470028D8
:105300000CBF491C20F00100704712EB020E43EB6A
:10531000030218BF4FF0010E4EEA4202ACF1200C1E
:10532000DCF11E0E54D943FA0CFE10EB0E00CCF14A
:105330001E0E51F1FF31D5D50EF1010E12FA0EFEFF
:10534000404141EB010101EB445C5FEA5C5C10D938
:1053500001EB045110EBDE7038BFBEF1004FBDE829
:10536000104018BF704700280CBF491C20F00100F6
:10537000704730D24FEAD42C24F4006411F50011A8
:105380001BD0B1FA81F20B3AA41AA41ED2F1200369
:10539000914030FA03F31943904001EBCC7101EBDB
:1053A0000451002CBDE81040A8BF704701F1C04176
:1053B00001F000414FF000007047B0FA80F310FA9E
:1053C00003F100D110BDE41A173C4805C90AE4E70F
:1053D00001EB045110BD49104FEA300001EB0451BC
:1053E000BDE8104002E04FF0000170474A0008BFDE
:1053F0000042F8D0B2F5001F28BF704701F000410D
:105400004FF0000070479EEA445F07D011EA5E0F3C
:10541000BDE8104004BF002100207047BDE81040E7
:1054200070B5FFF7CBFE00BF40DFF63E104683F0BD
:10543000004170470000E0FF43004FEAD30C4FEA01
:105440003C0C43401FBF40070CF1605113F0FE4F6E
:1054500070471CF0006F03D10CF000410020704732
:105460000CF0004343EA507040EACC0010B500F065
:105470000EF800BF000000924FEA0001FFF7ECBEFB
:105480004FF00041A1F500214FF0000070470EF1F0
:10549000020E2EF0030E5EF8044B244204D44FEAB1
:1054A0004102B2F17F4F11D84FEA4003B3F17F4F71
:1054B0000CD80ED14FEAD07C0CEB4C0C0CF1020C4A
:1054C000B2F17F4F08BF4CEBD17C04E04FF0080CE9
:1054D00001E04FEAD17C0CEB4C0324FA03F404F016
:1054E0000704B4F1040C06D20EEB840CBDE81040A6
:1054F0004CF0010C6047DFE80CF0070802024FF0A7
:105500000040A0F5800010BD0846420018BFD2F14F
:10551000807288BF00F0004010BDF1EE100A4FF617
:10552000FF71C0F2C03120EA010040F04070E1EEAE
:10553000100A7047FF2141EAD050C00570470000B3
:10554000000000000000000000010203040607083C
:1055500009000000000102030400061016000610F6
:105560001600000088550008000000201800000008
:10557000C4010008A055000818000020800D00009C
:10558000E0010008B1F1FFFF0024F4000100000079
:105590001000000000004041000010410000000029
:040000050800018965
:00000001FF
