:020000040800F2
:100000000000022091350008252A0008272A000850
:10001000292A00082B2A00082D2A000800000000C9
:100020000000000000000000000000002F2A00086F
:10003000312A000800000000332A0008352A000891
:10004000E1350008E1350008E1350008E135000838
:10005000E1350008E1350008E1350008E135000828
:10006000E1350008E1350008E1350008E135000818
:10007000E1350008E1350008E1350008E135000808
:10008000E1350008E1350008E1350008E1350008F8
:10009000E1350008E1350008E1350008E1350008E8
:1000A000E1350008E1350008412A0008E135000883
:1000B000512A0008612A0008712A0008E135000869
:1000C000E1350008E1350008E1350008E1350008B8
:1000D000E1350008812A0008E1350008E135000813
:1000E000E1350008E1350008E1350008E135000898
:1000F000E1350008E1350008E1350008E135000888
:10010000E1350008E1350008912A0008E1350008D2
:10011000E1350008E1350008E1350008E135000867
:10012000A12A0008E1350008E1350008E1350008A2
:10013000E1350008E1350008E1350008E135000847
:10014000E1350008E1350008E1350008E135000837
:10015000E1350008E1350008E1350008E135000827
:10016000E1350008E1350008E1350008E135000817
:10017000E1350008E1350008E13500080000000025
:08018000E1350008E13500083B
:1001880010B5054C237833B9044B13B10448AFF3C9
:1001980000800123237010BD3C04002000000000F3
:1001A8005865000808B5034B1BB103490348AFF372
:1001B800008008BD000000004004002058650008C9
:1001C80070B54FF0FF0C4CF4E06C1CEA11541DBFE5
:1001D8001CEA135594EA0C0F95EA0C0F00F0DEF8B0
:1001E8002C4481EA030621EA4C5123EA4C5350EA95
:1001F800013518BF52EA033541F4801143F48013E6
:1002080038D0A0FB02CE4FF00005E1FB02E506F076
:100218000042E0FB03E54FF00006E1FB03569CF0CB
:10022800000F18BF4EF0010EA4F1FF04B6F5007FD1
:1002380064F5407404D25FEA4E0E6D4146EB060643
:1002480042EAC62141EA55514FEAC52040EA5E50CC
:100258004FEACE2EB4F1FD0C88BFBCF5E06F1ED876
:10026800BEF1004F08BF5FEA500E50F1000041EBAD
:10027800045170BD06F0004646EA010140EA02005A
:1002880081EA0301B4EB5C04C2BFD4EB0C0541EA7C
:10029800045170BD41F480114FF0000E013C00F391
:1002A800AB8014F1360FDEBF002001F0004170BDB5
:1002B800C4F10004203C35DA0C341BDC04F11404CE
:1002C800C4F1200500FA05F320FA04F001FA05F25A
:1002D80040EA020001F0004221F0004110EBD37027
:1002E80021FA04F642EB06015EEA430E08BF20EA53
:1002F800D37070BDC4F10C04C4F1200500FA04F3F6
:1003080020FA05F001FA04F240EA020001F0004187
:1003180010EBD37041F100015EEA430E08BF20EAFA
:10032800D37070BDC4F1200500FA05F24EEA020E42
:1003380020FA04F301FA05F243EA020321FA04F071
:1003480001F0004121FA04F220EA020000EBD37028
:100358005EEA430E08BF20EAD37070BD94F0000F28
:100368000FD101F00046400041EB010111F4801F5C
:1003780008BF013CF7D041EA060195F0000F18BF0D
:10038800704703F00046520043EB030313F4801F49
:1003980008BF013DF7D043EA0603704794EA0C0F03
:1003A8000CEA135518BF95EA0C0F0CD050EA410619
:1003B80018BF52EA4306D1D181EA030101F0004196
:1003C8004FF0000070BD50EA410606BF10461946BE
:1003D80052EA430619D094EA0C0F02D150EA0136CA
:1003E80013D195EA0C0F05D152EA03361CBF10460B
:1003F80019460AD181EA030101F0004141F0FE41AA
:1004080041F470014FF0000070BD41F0FE4141F42D
:10041800780170BD81F0004102E000BF83F0004325
:1004280030B54FEA41044FEA430594EA050F08BF87
:1004380090EA020F1FBF54EA000C55EA020C7FEA4B
:10044800645C7FEA655C00F0E2804FEA5454D4EBC8
:100458005555B8BF6D420CDD2C4480EA020281EA92
:10046800030382EA000083EA010180EA020281EACA
:100478000303362D88BF30BD11F0004F4FEA01311C
:100488004FF4801C4CEA113102D0404261EB41012B
:1004980013F0004F4FEA03334CEA133302D05242B1
:1004A80063EB430394EA050F00F0A780A4F101046D
:1004B800D5F1200E0DDB02FA0EFC22FA05F28018A7
:1004C80041F1000103FA0EF2801843FA05F359418D
:1004D8000EE0A5F120050EF1200E012A03FA0EFC0C
:1004E80028BF4CF0020C43FA05F3C01851EBE37136
:1004F80001F0004507D54FF0000EDCF1000C7EEB53
:1005080000006EEB0101B1F5801F1BD3B1F5001F90
:100518000CD349085FEA30004FEA3C0C04F10104AF
:100528004FEA445212F5800F80F09A80BCF1004FD8
:1005380008BF5FEA500C50F1000041EB045141EA5A
:10054800050130BD5FEA4C0C404141EB0101013C23
:1005580028BFB1F5801FE9D291F0000F04BF014612
:100568000020B1FA81F308BF2033A3F10B03B3F1E4
:1005780020020CDA0C3208DD02F1140CC2F10C0274
:1005880001FA0CF021FA02F10CE002F11402D8BFD2
:10059800C2F1200C01FA02F120FA0CFCDCBF41EA9E
:1005A8000C019040E41AA2BF01EB0451294330BD6D
:1005B8006FEA04041F3C1CDA0C340EDC04F114044A
:1005C800C4F1200220FA04F001FA02F340EA030021
:1005D80021FA04F345EA030130BDC4F10C04C4F167
:1005E800200220FA02F001FA04F340EA0300294647
:1005F80030BD21FA04F0294630BD94F0000F83F491
:10060800801306BF81F480110134013D4EE77FEA73
:10061800645C18BF7FEA655C29D094EA050F08BFBF
:1006280090EA020F05D054EA000C04BF19461046A0
:1006380030BD91EA030F1EBF0021002030BD5FEAE4
:10064800545C05D14000494128BF41F0004130BD0C
:1006580014F580043CBF01F5801130BD01F0004560
:1006680045F0FE4141F470014FF0000030BD7FEAD3
:10067800645C1ABF194610467FEA655C1CBF0B46CE
:10068800024650EA013406BF52EA033591EA030FE5
:1006980041F4002130BD00BF90F0000F04BF0021DD
:1006A800704730B54FF4806404F132044FF0000510
:1006B8004FF0000150E700BF90F0000F04BF002189
:1006C800704730B54FF4806404F1320410F00045EF
:1006D80048BF40424FF000013EE700BF42004FEAEA
:1006E800E2014FEA31014FEA02701FBF12F07F4367
:1006F80093F07F4F81F06051704732F07F4208BF1E
:10070800704793F07F4F04BF41F40021704730B524
:100718004FF4607401F0004521F000411CE700BF70
:1007280050EA010208BF704730B54FF000050AE0F3
:1007380050EA010208BF704730B511F0004502D5F4
:10074800404261EB41014FF4806404F132045FEAF6
:10075800915C3FF4D8AE4FF003025FEADC0C18BF9F
:1007680003325FEADC0C18BF033202EBDC02C2F191
:10077800200300FA03FC20FA02F001FA03FE40EA23
:100788000E0021FA02F11444BDE600BF4FEA41020F
:10079800B2F1E04324BFB3F5001CDCF1FE5C0DD9D7
:1007A80001F0004C4FEAC0024CEA5070B2F1004F21
:1007B80040EB830008BF20F00100704711F0804F24
:1007C80021D113F13872BCBF01F00040704741F4E9
:1007D80080114FEA5252C2F11802C2F1200C10FAED
:1007E8000CF320FA02F018BF40F001004FEAC123D1
:1007F8004FEAD32303FA0CFC40EA0C0023FA02F375
:100808004FEA4303CCE77FEA625307D150EA01334A
:100818001EBF4FF0FE4040F44000704701F000401A
:1008280040F0FE4040F40000704700BF80F00040F8
:1008380002E000BF81F0004142001FBF5FEA4103B0
:1008480092EA030F7FEA226C7FEA236C6AD04FEAB0
:100858001262D2EB1363C1BFD218414048404140F5
:10086800B8BF5B42192B88BF704710F0004F40F4A7
:10087800000020F07F4018BF404211F0004F41F4C3
:10088800000121F07F4118BF494292EA030F3FD08F
:10089800A2F1010241FA03FC10EB0C00C3F12003A2
:1008A80001FA03F100F0004302D5494260EB400031
:1008B800B0F5000F13D3B0F1807F06D340084FEA9C
:1008C800310102F10102FE2A51D2B1F1004F40EB91
:1008D800C25008BF20F0010040EA030070474900F9
:1008E80040EB0000013A28BFB0F5000FEDD2B0FA96
:1008F80080FCACF1080CB2EB0C0200FA0CF0AABFB9
:1009080000EBC25052421843BCBFD0401843704756
:1009180092F0000F81F4000106BF80F4000001325C
:10092800013BB5E74FEA41037FEA226C18BF7FEA33
:10093800236C21D092EA030F04D092F0000F08BF75
:100948000846704790EA010F1CBF0020704712F05C
:100958007F4F04D1400028BF40F00040704712F19B
:1009680000723CBF00F50000704700F0004343F000
:10097800FE4040F4000070477FEA226216BF084636
:100988007FEA23630146420206BF5FEA412390EAF9
:10099800010F40F4800070474FF0000304E000BFEF
:1009A80010F0004348BF40425FEA000C08BF7047A0
:1009B80043F0964301464FF000001CE050EA010264
:1009C80008BF70474FF000030AE000BF50EA010279
:1009D80008BF704711F0004302D5404261EB410166
:1009E8005FEA010C02BF84460146002043F0B6438B
:1009F80008BFA3F18053A3F50003BCFA8CF2083AB0
:100A0800A3EBC25310DB01FA02FC634400FA02FCB8
:100A1800C2F12002BCF1004F20FA02F243EB0200BF
:100A280008BF20F00100704702F1200201FA02FC21
:100A3800C2F1200250EA4C0021FA02F243EB020014
:100A480008BF20EADC7070474FF0FF0C1CEAD05258
:100A58001EBF1CEAD15392EA0C0F93EA0C0F6FD019
:100A68001A4480EA010C400218BF5FEA41211ED0F7
:100A78004FF0006343EA501043EA5111A0FB0131E3
:100A88000CF00040B1F5000F3EBF490041EAD371B8
:100A98005B0040EA010062F17F02FD2A1DD8B3F134
:100AA800004F40EBC25008BF20F00100704790F0A3
:100AB800000F0CF0004C08BF49024CEA502040EAF5
:100AC80051207F3AC2BFD2F1FF0340EAC2507047BB
:100AD80040F400004FF00003013A5DDC12F1190FF9
:100AE800DCBF00F000407047C2F10002410021FA6B
:100AF80002F1C2F1200200FA02FC5FEA310040F183
:100B0800000053EA4C0308BF20EADC70704792F0FB
:100B1800000F00F0004C02BF400010F4000F013A33
:100B2800F9D040EA0C0093F0000F01F0004C02BF2E
:100B3800490011F4000F013BF9D041EA0C018FE79D
:100B48000CEAD15392EA0C0F18BF93EA0C0F0AD0A3
:100B580030F0004C18BF31F0004CD8D180EA0100C9
:100B680000F00040704790F0000F17BF90F0004F62
:100B7800084691F0000F91F0004F14D092EA0C0F44
:100B880001D142020FD193EA0C0F03D14B0218BFD7
:100B9800084608D180EA010000F0004040F0FE401D
:100BA80040F40000704740F0FE4040F440007047B9
:100BB8004FF0FF0C1CEAD0521EBF1CEAD15392EA38
:100BC8000C0F93EA0C0F69D0A2EB030280EA010C28
:100BD80049024FEA402037D04FF0805343EA1111C1
:100BE80043EA10130CF000408B4238BF5B0042F11F
:100BF8007D024FF4000C8B4224BF5B1A40EA0C00C4
:100C0800B3EB510F24BFA3EB510340EA5C00B3EBF5
:100C1800910F24BFA3EB910340EA9C00B3EBD10FE3
:100C280024BFA3EBD10340EADC001B0118BF5FEA35
:100C38001C1CE0D1FD2A3FF650AF8B4240EBC2505E
:100C480008BF20F0010070470CF0004C4CEA50201F
:100C58007F32C2BFD2F1FF0340EAC250704740F46E
:100C680000004FF00003013A37E792F0000F00F060
:100C7800004C02BF400010F4000F013AF9D040EADE
:100C88000C0093F0000F01F0004C02BF490011F472
:100C9800000F013BF9D041EA0C0195E70CEAD1536A
:100CA80092EA0C0F08D142027FF47DAF93EA0C0F51
:100CB8007FF470AF084676E793EA0C0F04D14B0235
:100CC8003FF44CAF08466EE730F0004C18BF31F0E7
:100CD800004CCAD130F000427FF45CAF31F00043E1
:100CE8007FF43CAF5FE700BF4FF0FF3C06E000BF7A
:100CF8004FF0010C02E000BF4FF0010C4DF804CD9D
:100D08004FEA40024FEA41037FEA226C18BF7FEAAC
:100D1800236C11D001B052EA530C18BF90EA010FAE
:100D280058BFB2EB030088BFC81738BF6FEAE1703D
:100D380018BF40F0010070477FEA226C02D15FEAD9
:100D4800402C05D17FEA236CE4D15FEA412CE1D045
:100D58005DF8040B704700BF844608466146FFE70C
:100D68000FB5FFF7C9FF002848BF10F1000F0FBDEE
:100D78004DF808EDFFF7F4FF0CBF012000205DF8E7
:100D880008FB00BF4DF808EDFFF7EAFF34BF01206C
:100D980000205DF808FB00BF4DF808EDFFF7E0FF05
:100DA80094BF012000205DF808FB00BF4DF808ED56
:100DB800FFF7D2FF94BF012000205DF808FB00BFB9
:100DC8004DF808EDFFF7C8FF34BF012000205DF89B
:100DD80008FB00BF4FEA4002B2F1FE4F0FD34FF0BD
:100DE8009E03B3EB12620DD94FEA002343F0004390
:100DF80010F0004F23FA02F018BF404270474FF03E
:100E08000000704712F1610F01D1420205D110F0C4
:100E1800004008BF6FF0004070474FF00000704777
:100E280053B94AB9002908BF00281CBF4FF0FF3149
:100E38004FF0FF3001F0DEB8ADF1080C6DE904CEDB
:100E480000F006F8DDF804E0DDE9022304B070479D
:100E58002DE9F047089E0D4604468846002B4DD1E3
:100E68008A42944668D9B2FA82F252B101FA02F380
:100E7800C2F1200120FA01F10CFA02FC41EA030850
:100E880094404FEA1C45210CB8FBF5FE1FFA8CF77D
:100E980005FB1E8341EA03430EFB07F199420BD978
:100EA8001CEB03030EF1FF3080F01E81994240F2E3
:100EB8001B81AEF1020E63445B1AA4B2B3FBF5F0DA
:100EC80005FB103344EA034400FB07F7A7420AD99D
:100ED8001CEB040400F1FF3380F00881A74240F2C4
:100EE800058164440238E41B40EA0E4000211EB12B
:100EF800D4400023C6E90043BDE8F0878B4208D9F7
:100F0800002E00F0EE800021C6E900050846BDE885
:100F1800F087B3FA83F100294AD1AB4202D3824267
:100F280000F2F980841A65EB030301209846002E2D
:100F3800E2D0C6E90048DFE702B9FFDEB2FA82F282
:100F4800002A40F09180A1EB0C054FEA1C471FFADC
:100F58008CFE0121B5FBF7F307FB1350250C45EA7E
:100F680000450EFB03F0A84208D91CEB050503F168
:100F7800FF3802D2A84200F2CB8043462D1AA4B211
:100F8800B5FBF7F007FB105544EA05440EFB00FEDD
:100F9800A64508D91CEB040400F1FF3502D2A6458A
:100FA80000F2BB802846A4EB0E0440EA03409EE70B
:100FB800C1F120078B4022FA07FC4CEA030C20FA07
:100FC80007F405FA01F31C43FD404FEA1C4900FAF7
:100FD80001F3B5FBF9F8200C1FFA8CFE09FB185534
:100FE80040EA054508FB0EF0A84202FA01F20BD9C7
:100FF8001CEB050508F1FF3A80F08880A84240F212
:101008008580A8F1020865442D1AA4B2B5FBF9F051
:1010180009FB105544EA054500FB0EFEAE4508D90C
:101028001CEB050500F1FF346CD2AE456AD90238D5
:10103800654440EA0840A0FB0294A5EB0E05A542D2
:10104800C846A64656D353D05EB1B3EB080265EB4B
:101058000E0505FA07F722FA01F3CD401F43C6E94A
:1010680000750021BDE8F087C2F1200320FA03F1E2
:101078000CFA02FC25FA03F395400D434FEA1C478E
:101088001FFA8CFEB3FBF7F107FB11302B0C43EA78
:10109800004301FB0EF0984204FA02F408D91CEB55
:1010A800030301F1FF382FD298422DD90239634446
:1010B8001B1AADB2B3FBF7F007FB103345EA034543
:1010C80000FB0EF3AB4208D91CEB050500F1FF3815
:1010D80016D2AB4214D902386544ED1A40EA0141F0
:1010E80038E73146304607E78646E5E61846FAE629
:1010F8004B45A9D2B9EB020864EB0C0E0138A3E703
:101108004046EAE7204694E74146D1E7D0467BE7E8
:10111800023B654432E7084609E76444023842E77F
:1011280003685A004CBF43F0004323F000431844BF
:10113800704700BF2DE9F84329B34F1E04461546F2
:101148003E464FF0000808EB060101EBD17149104B
:1011580004EBC1094846FFF7E3FF0346C80008301F
:101168008F42204409D0AB4209D8FFF7D9FF013894
:10117800A8420AD201F10108E5E7AB4205D9884542
:1011880001D04E1EDFE74FF000094846BDE8F8835E
:10119800012807D0022807D0044B00280CBF1846A6
:1011A80000207047024870470248704771180008CD
:1011B800751800087918000830B5234B83B0044629
:1011C8008D1E3BB301A92846AFF30080E8B1019911
:1011D8002A46FFF7AFFF0146B8B1FFF7A1FF4B68FA
:1011E800A064012B2CD0002B01F1040024DBFFF7B5
:1011F80097FF0023C4E913030368002B11DBFFF7F3
:101208008FFF2061002003B030BD00230920236137
:1012180003B030BD0D4B0E49C91AC91018460191CB
:10122800D6E7C3F30360FFF7B3FF0028206114BFBC
:101238000020092003B030BD0123C4E91303DBE714
:10124800002323610520DEE700000000DC650008BC
:10125800D46600080368DA0710B5044606D49B076D
:1012680000F1480009D500F05BFC2368590709D54F
:101278001A070ED5DB0613D510BD00F049FC23680C
:101288005907F5D404F1D00000F052FC23681A077E
:10129800F0D404F5A87000F053FC2368DB06EBD407
:1012A80004F5E870BDE8104000F08EBC09207047D6
:1012B8000346006800B11844704700BF704700BF7C
:1012C80070B504460E46316C2046FFF775FF05469B
:1012D80088B9326C626123693246214601209847F9
:1012E8000828F0D0072806D12846316CFFF7E6FF1A
:1012F800301D00F001FC04F0F1FF00BF2DE9F047BC
:101308000D1DD0F80C80D0F81890074614460FCD64
:10131800ADF5727D0DF10C0CACE80F000FCDACE80B
:101328000F000FCDACE80F0095E80F0002AE4FF0AC
:10133800000E8CE80F00C6F800E020E0336C7B61FB
:101348004FF4F07231467AA800F056FE3B697AAA4B
:10135800394650469847889B73642146CDE9006911
:1013680005463B463A460120C0470446E0B94FF4DB
:10137800F0727AA9304600F03FFE082D1AD1316C80
:101388003846FFF719FF09345FFA84FA0546002842
:10139800D4D0B36B73643A46CDE900693B464AF052
:1013A80010010120C04700B1092528460DF5727DBE
:1013B800BDE8F087072DF7D12046316CFFF77EFF97
:1013C80003A800F099FB00BF406C7047F0B5CB6BE9
:1013D8000B6401F1040C0E460546BCE80F00F9B099
:1013E80001AC0FC4BCE80F000FC4BCE80F000FC469
:1013F8009CE80F004FF0FF3784E80F00009706E0E5
:101408002B696A46294698470828044608D1109946
:101418002846FFF7D1FE0028F2D0092079B0F0BDA8
:101428006846FFF717FF062CF7D131462846FFF725
:1014380047FF00BFC160D96B826119640022194659
:101448005CE700BF70B5C66843690B64AEB9036951
:101458000A4604460D46014602209847072805D04B
:1014680008280FD129462046FFF72AFF3046296C65
:10147800FFF724FF281D00F03FFB0122FFF73EFF86
:1014880004F02CFF04F02AFFC2681AB1CA6B0A6480
:10149800002233E79AE700BF704700BF8368014620
:1014A8000BB1012018477047012912D009D873B928
:1014B8000F2A0CD800EB820218465368009A136072
:1014C80070470339012994BF012002207047022088
:1014D80070470846704700BF00B585B00A4600232C
:1014E80003A900911946FFF7DFFF039805B05DF8DF
:1014F80004FB00BF012912D009D873B90F2A0CD8F0
:1015080000EB8200009A126842601846704703395F
:10151800012994BF01200220704702207047084625
:10152800704700BF10B584B0002303AC0392009449
:101538000A461946FFF7DEFF04B010BD70B5D36B3D
:10154800136402F1040C05460C46BCE80F00ADF527
:101558000E7D0DF15C0EAEE80F00BCE80F00AEE8A2
:101568000F00BCE80F00AEE80F009CE80F004FF03A
:10157800FF368EE80F00169610E0FFF7D3FF2146DE
:1015880016A8A847034616AA6946082083B9049BEB
:101598009847052806460CD0092809D02699684698
:1015A800FFF70AFE03466A460C2116A8002BE4D072
:1015B800092616A8FFF74EFE30460DF50E7D70BDC4
:1015C8002DE9F04FCC6C89B01E4654F8043B0694C4
:1015D8000D46174600F00308002E79D01A0C1B049C
:1015E80005938DF81D200223D2B204EB82048DF8F6
:1015F8001C302B6DB8F1020F08BFAC6B13F0010360
:101608000CD005A9384600F079FB18B9082009B0B4
:10161800BDE8F08F092009B0BDE8F08FD4F800A02C
:10162800BAF1000FEDD0019300F008030293022EE7
:101638004AD0B4F800A0B4F802900434AB6C29F096
:10164800010B0F2138469B44FFF746FF834539D8E5
:101658002AF001039B44834594BF002001204FEAF0
:10166800490303F002030AF0010A43EA0A03012BC3
:1016780049D0022B32D0002BCCD1B8F1000F02D0C8
:10168800002840F0CD800434D4F800A0BAF1000F4F
:10169800CDD105A9384600F031FB0028BAD1019B0D
:1016A800002BB3D00F213846FFF716FF0E21024654
:1016B8003846FFF737FF38466A4A0F21FFF732FFEF
:1016C8000720A8E70020CAE7D4F804900834B5E753
:1016D8001B0205930323ADF81C308AE7236823F027
:1016E800004BB8F1000F45D128B1029A002A5CD00E
:1016F800BBF1000F74D0002B00DA04340BF1010B9E
:1017080004EB8B04C0E7B8F1000F19D1B0B16368DE
:101718002268991C4FEAD2723FF47CAF05F1580158
:101728000133049100F09080201DFFF7C1FD04AB48
:1017380001462846AFF3008000285BD10834A3E7B0
:101748000D213846D5F82090FFF7C6FE8145F5D122
:10175800AB6A9C42F2D12046FFF7E2FC0F21024619
:101768003846FFF7DFFE38462A460021FFF7DAFE43
:10177800072050E70D213846D5F82090FFF7ACFE3A
:10178800814501D02368B6E7AB6A9C42FAD10423AD
:101798000022C5E90B23E318C5F828B06B6323685A
:1017A800002B59DB01230193A8E705F15803CDF875
:1017B8000C8004F1040AB04691461E460EE05046DD
:1017C8000496FFF775FD0022014604AB284609F18F
:1017D80001090AF1040AAFF30080E0B9D945EED156
:1017E8000D213846FFF778FE049BAC62C5E9080373
:1017F800062010E781460D213846FFF76DFEB9F146
:10180800020F286225D12B46049A43F82C2F6B62CD
:10181800AC620620FFE646462368DDF80C806AE7DE
:101828002046FFF77DFC04340246AC632846144684
:10183800AFF3008000283FF4EDAE384622460F2172
:10184800FFF770FE0720E6E60D213846FFF744FE55
:101858002862049B6B62DBE70BF1010004EB80005C
:101868007AE700BF000000000023A9E60123A7E6ED
:101878000223A5E62DE9F0430646C3B015461C46EB
:10188800042900F2BF80DFE801F09E57BD2D030058
:10189800002C40F0B780102A00F2B4800368D80604
:1018A80000F1F98020AF384600F098F9B46B39465A
:1018B80000234FF0010C0CFA03F22A42204603F1F0
:1018C800010303D050F8042B0A600446042B01F1ED
:1018D8000401F0D13846B46300F076F9002043B033
:1018E800BDE8F083032C40F08D8094B204EB1243E2
:1018F800102B4FEA124500F2858003681F0700F19C
:10190800D28020AF384600F03DF9B26B07EBC50135
:1019180054B10B46D01A01EBC401E4001D5843F83A
:10192800045B8B42FAD122443846B26300F008F9CE
:10193800002043B0BDE8F083012C4FEA124895B26D
:101948005CD0052C5ED108EB0509B9F1200F59D8F8
:10195800B8F10F0F79D9A946002D40F08A80B36BF2
:101968006DB320AF4FF0000907EBC807043F03EB46
:10197800C50553F8041B47F8041FAB42F9D1B9F168
:10198800000F0FD06F464146102938BF102107EBD2
:10199800C101843903EBC90553F8040B41F8040F5E
:1019A800AB42F9D1012C00F08680B8F10F0FB56376
:1019B80047D9B9F1000F02D0684600F0B9F8002005
:1019C80043B0BDE8F083ECB9806B23461FFA82FC74
:1019D8000124371D04FA03F212EA0C0F014604D061
:1019E80051F8042B47F8232008460133102BF1D176
:1019F80015F40055E3D1B063284604E008EB05036D
:101A0800102B03D9022043B0BDE8F083B8F10F0FC3
:101A1800F8D83368DA0706D5304623F0030340F8D0
:101A2800483B00F079F820AF384600F075F8B36B02
:101A3800002D97D11D460435B563384600F068F887
:101A4800BDE720A800F06CF8B3E7B9F1100F40D952
:101A5800A9F110093368D90708D523F001033046E6
:101A680043F0020340F8483B00F05EF8B9F1000F7C
:101A780032D033685A0720D4B8F10F0F25D96F46F2
:101A88003846C8F1100500F057F8002DB36B7FF702
:101A98007AAF20AF68E723F01003336006F5E870EB
:101AA80000F09CF8FEE623F00803036000F5A87038
:101AB80000F068F825E720AFBDE7304623F00403BF
:101AC80040F8D03B00F038F8D6E720A800F02CF812
:101AD800D5E74FF00009BDE7B8F10F0F3FF63FAF6C
:101AE80020AF384600F020F8B36B002D7FF43AAFF2
:101AF800384600F015F862E700F1340191E8380043
:101B08009C46A6464CF8045D90E8FF0FE54600BDEC
:101B180090EC210B704700BF80EC210B704700BF91
:101B280090EC200B704700BF80EC200B704700BF83
:101B3800D0EC200B704700BFC0EC200B704700BFF3
:101B4800F0EC0201F0EC0211F0EC0221F0EC0231B1
:101B5800F0EC0241F0EC0251F0EC0261F0EC0271A1
:101B6800F0EC0281F0EC0291F0EC02A1F0EC02B191
:101B7800F0EC02C1F0EC02D1F0EC02E1F0EC02F181
:101B8800704700BFE0EC0201E0EC0211E0EC02213A
:101B9800E0EC0231E0EC0241E0EC0251E0EC0261E1
:101BA800E0EC0271E0EC0281E0EC0291E0EC02A1D1
:101BB800E0EC02B1E0EC02C1E0EC02D1E0EC02E1C1
:101BC800E0EC02F1704700BFB0FC0181B0FC01916C
:101BD800B0FC01A1B0FC01B1704700BFA0FC0181BD
:101BE800A0FC0191A0FC01A1A0FC01B1704700BFBD
:101BF800EC4600B52DE900502DE9FF1F4FF000031A
:101C08002DE90C0001A9FFF7E1FBDDF840E012B077
:101C1800704700BFEC4600B52DE900502DE9FF1FC5
:101C28004FF000032DE90C0001A9FFF70BFCDDF8CC
:101C380040E012B0704700BFEC4600B52DE90050F7
:101C48002DE9FF1F4FF000032DE90C0001A9FFF754
:101C58001BFCDDF840E012B0704700BFEC4600B551
:101C68002DE900502DE9FF1F4FF000032DE90C006E
:101C780001ABFFF7DFFBDDF840E012B0704700BFB3
:101C8800EC4600B52DE900502DE9FF1F4FF0000389
:101C98002DE90C0001AAFFF751FCDDF840E012B075
:101CA800704700BF027A03467AB9427AA2B1416806
:101CB800013A10B44272086803220C1D1A7202021B
:101CC8005C60000E10BC1A6070470068013A1A7216
:101CD80002021A60000E7047B020704700B585B048
:101CE800002303AA009219460C22FFF7DDFB039894
:101CF80005B05DF804FB00BFF0E700BF2DE9F04335
:101D0800054685B00E464FF000083046FFF7CAFF7B
:101D1800B028044600F0BA80070620D500F0F0038A
:101D2800802B4DD0902B36D0A02B60D0B02B74D008
:101D3800C02B00F08B8000F0F803D02B0BD100F003
:101D480007020132052342F4002201212846FFF749
:101D580091FD0028D9D0092005B0BDE8F0838300A3
:101D6800DBB21F1D0DF10C0900231946CDF80090B8
:101D78000D222846FFF798FB039BCDF800906006DC
:101D88004CBFDF1BFF1800230D2219462846039776
:101D9800FFF7B0FBB9E700F00D030D2BDBD003AF65
:101DA800002300F00F02194600972846FFF77CFB36
:101DB800002300970D2219462846FFF79BFBA4E74E
:101DC8003046FFF76FFF24022043B0F5004FC2D022
:101DD80004010023A2B219462846FFF74BFD00284C
:101DE800B9D114F4004F18BF4FF001088DE7C24372
:101DF80002F007034FF47F621A41010702F47F6281
:101E08004FF0000348BF42F4804219462846FFF7C6
:101E180031FD00283FF479AF9DE7B1283BD0B228C7
:101E280000F09380B32841D000F0FC03B42B92D08B
:101E380000F007020132012342F400221946284625
:101E4800FFF718FD00283FF460AF84E7C6284AD0A2
:101E5800C72854D000F0F803C02B63D0C82868D036
:101E6800C9287FF478AF3046FFF71CFF020300F063
:101E78000F0002F470220130024301210523284695
:101E8800FFF7F8FC00283FF440AF64E7B8F1000F13
:101E980018D0002060E73046FFF704FF024600280C
:101EA8003FF459AF10F0F003C8D054E73046FFF7BD
:101EB800F9FE020300F00F03013302F470221A4303
:101EC8000123BBE703AC43460E2241460094284653
:101ED800FFF7EAFA009443460F2241462846FFF7E7
:101EE80009FB404638E73046FFF7DCFE020300F006
:101EF8000F03013302F470221A4303239EE730468E
:101F0800FFF7D0FE024600283FF425AF10F0F0039B
:101F18007FF421AF04212846FFF7ACFC00283FF4EA
:101F2800F4AE18E700F00F020132032342F4202236
:101F380084E73046FFF7B6FE00F0F00200F00F032A
:101F48001032013343EA023297E700230DF10C09FE
:101F58000D221946CDF800902846FFF7A5FA30461D
:101F6800FFF7A0FE02064FF002040CD5039B00F019
:101F78007F00A040184403903046FFF793FE030605
:101F880004F10704F2D4039BCDF8009000F07F021F
:101F9800A24003F501731A440023039219460D2247
:101FA8002846FFF7A7FAB0E610B5C26C536884B0AC
:101FB8004FF0030C08321C0208461B0E01A90194BD
:101FC80002928DF80CC08DF80D30FFF797FE04B023
:101FD80010BD00BF08B5FFF78FFE806C08BD00BFBD
:101FE80008B5FFF789FEC06CC379023300EB8300A4
:101FF80008BD00BF704700BF844641EA000313F0E4
:1020080003036DD1403A41D351F8043B40F8043BF7
:1020180051F8043B40F8043B51F8043B40F8043BBA
:1020280051F8043B40F8043B51F8043B40F8043BAA
:1020380051F8043B40F8043B51F8043B40F8043B9A
:1020480051F8043B40F8043B51F8043B40F8043B8A
:1020580051F8043B40F8043B51F8043B40F8043B7A
:1020680051F8043B40F8043B51F8043B40F8043B6A
:1020780051F8043B40F8043B51F8043B40F8043B5A
:1020880051F8043B40F8043B403ABDD2303211D3FA
:1020980051F8043B40F8043B51F8043B40F8043B3A
:1020A80051F8043B40F8043B51F8043B40F8043B2A
:1020B800103AEDD20C3205D351F8043B40F8043BFA
:1020C800043AF9D2043208D0D2071CBF11F8013BF8
:1020D80000F8013B01D30B8803806046704700BFBE
:1020E800082A13D38B078DD010F003038AD0C3F1CD
:1020F8000403D21ADB071CBF11F8013B00F8013BAF
:1021080080D331F8023B20F8023B7BE7043AD9D36D
:10211800013A11F8013B00F8013BF9D20B78037042
:102128004B7843708B7883706046704700B585B0F4
:10213800002300930193029303931548154A026004
:102148004FF48032426083600361037680F8203068
:10215800C362114A8262C3600122C26180F83030D2
:10216800426101F03BFB68B9062300930123019308
:10217800002302936946064801F076FC28B905B0A9
:102188005DF804FB00F036FBEEE700F033FBF6E702
:1021980058040020002001400100000F00B585B060
:1021A800002300930193029303931548154A026094
:1021B8004FF48032426083600361037680F82030F8
:1021C800C362114A8262C3600122C26180F8303062
:1021D800426101F003FB68B90223009301230193D4
:1021E800072302936946064801F03EFC28B905B06A
:1021F8005DF804FB00F0FEFAEEE700F0FBFAF6E704
:10220800A0040020002101400100000F00B585B0A6
:10221800002300930193029303931748174A02601F
:102228004FF48032426083600361037680F8203087
:102238004FF08052C2624FF010628262C360012286
:10224800C26180F83030426101F0C8FA68B90323EE
:10225800009301230193002302936946064801F085
:1022680003FC28B905B05DF804FB00F0C3FAEEE7FB
:1022780000F0C0FAF6E700BFE804002000220140A1
:1022880030B58DB000230793089309930A930B93F5
:1022980003684B4A934208D004464A4A934234D0D2
:1022A800494A934250D00DB030BD00240094474BAA
:1022B8005A6C42F480725A645A6C02F4807200922A
:1022C800009A01941A6B42F001021A631A6B02F029
:1022D80001020192019A02941A6B42F002021A63F7
:1022E8001B6B03F002030293029BC0230793032591
:1022F800089507A9364801F0F9FF0795089509944C
:1023080007A9344801F0F2FFCDE7002103912F4BD4
:102318005A6C42F400725A645A6C02F400720392C6
:10232800039A04911A6B42F001021A631B6B03F0C3
:1023380001030493049B042307930323089307A929
:10234800234801F0D3FFAEE7002505951F4B5A6CD3
:1023580042F480625A645A6C02F480620592059ACB
:1023680006951A6B42F001021A631B6B03F0010316
:102378000693069B082307930323089307A9144889
:1023880001F0B4FF1448154B03604FF080634360BD
:102398008560C5604FF4806303614FF40063436157
:1023A8004FF400538361C5610562456201F0B8FDD1
:1023B80018B9094BA3639C6375E700F01BFAF8E7AB
:1023C8000020014000210140002201400038024065
:1023D8000000024000040240300500201064024062
:1023E80008B50B480B4B0360102343600023836040
:1023F800C36003614361037643768376C3760377CC
:10240800437701F0FDFB00B908BD00F0F3F9FBE7E5
:10241800940500200064004008B50B480B4B03608E
:102428001023436000238360C36003614361037624
:1024380043768376C3760377437701F0E1FB00B9EF
:1024480008BD00F0D7F9FBE7BC0500200068004094
:1024580000B58BB00023059306930793089309935F
:102468000368374A934205D0364A93422FD00BB0BF
:102478005DF804FB344A136801331360012B19D04B
:1024880000230193314B1A6B42F001021A631B6B54
:1024980003F001030193019B4FF4C05305930223FA
:1024A8000693032308930923099305A9284801F0F3
:1024B8001DFFDCE700230093244B1A6C42F00072E6
:1024C8001A641B6C03F000730093009BD8E7002389
:1024D80002931E4B1A6C42F080621A641B6C03F064
:1024E80080630293029B184A136801331360012B1F
:1024F80019D000230493154B1A6B42F002021A6399
:102508001B6B03F002030493049B4FF4825305935F
:1025180002230693032308930923099305A90D4869
:1025280001F0E4FEA3E700230393084B1A6C42F082
:1025380000721A641B6C03F000730393039BD8E7C3
:102548000064004000680040900500200038024008
:10255800000002400004024000B583B00021019150
:10256800094B1A6B42F480021A631B6B03F4800355
:102578000193019B0A46382001F0FAFB382001F04C
:102588002FFC03B05DF804FB003802402DE9F04150
:102598008CB000240794089409940A940B9401942D
:1025A800414B1A6B42F010021A631A6B02F01002C8
:1025B8000192019A02941A6B42F004021A631A6B90
:1025C80002F004020292029A03941A6B42F080020B
:1025D8001A631A6B02F080020392039A04941A6B2E
:1025E80042F001021A631A6B02F001020492049A83
:1025F80005941A6B42F002021A631A6B02F0020287
:102608000592059A06941A6B42F008021A631B6B2E
:1026180003F008030693069B244F224605213846FB
:1026280001F056FF224E22464FF40051304601F089
:102638004FFF01220221304601F04AFF042307938D
:102648000125089509940A9407A9384601F04EFE19
:102658004FF400530793089509940A9407A9304644
:1026680001F044FE02230793089509954FF00308EB
:10267800CDF8288007A9304601F038FE4FF4004312
:1026880007930894099507A90A4801F02FFE0795B2
:1026980008950994CDF8288007A9384601F026FE48
:1026A8000CB0BDE8F08100BF0038024000100240C5
:1026B800000802400000024008B50B480B4B0360BD
:1026C8000B4B436000238360C3604FF48042026178
:1026D80043618361C361036201F00AFF00B908BD69
:1026E80000F088F8FBE700BFE40500200054004034
:1026F800A086010008B50B480B4B03600B4B4360E9
:1027080000238360C3604FF48042026143618361A8
:10271800C361036201F0ECFE00B908BD00F06AF87D
:10272800FBE700BF3806002000580040A0860100E3
:1027380030B58BB00023059306930793089309934C
:102748000368284A934204D0274A934225D00BB005
:1027580030BD00250195254C236B43F0020323630C
:10276800236B03F002030193019B4FF4C07305939D
:1027780012230693032308930423099305A91C48ED
:1027880001F0B4FD0295236C43F400132364236C19
:1027980003F400130293029BD9E700250395134C19
:1027A800236B43F002032363236B03F002030393B9
:1027B800039B4FF440630593122306930323089366
:1027C8000423099305A90A4801F090FD0495236C98
:1027D80043F480032364236C03F480030493049B71
:1027E800B5E700BF005400400058004000380240E0
:1027F8000004024072B6FEE700B595B03022002111
:1028080008A803F09DFD0023039304930593069302
:1028180007930193204A116C41F080511164126CA6
:1028280002F080520192019A02931C4B1A6842F4FA
:1028380080421A601B6803F480430293029B0123C1
:1028480008934FF48033099302220E924FF48003C9
:102858000F9304231093A82111911292139308A89F
:1028680001F024FF98B90F23039302230493002354
:1028780005934FF4A05306934FF480530793052113
:1028880003A802F079F920B915B05DF804FBFFF749
:10289800B1FFFFF7AFFF00BF0038024000700040F3
:1028A80008B500F0C1FEFFF7A7FFFFF76FFEFFF7BF
:1028B8003DFCFFF773FCFFF793FDFFF7ADFDFFF756
:1028C800FBFE00F021F800F05DFB00F0FFF800F0DF
:1028D8002FF900F0E7FB00F05DF900F03BFC00F099
:1028E800C9FC00F01BFD00F06DFD00F085FDFFF751
:1028F8008DFCFFF731FE00F099FDFFF7FBFE03F0BA
:1029080067FC03F077FCFCE708B50D480D4B036046
:102918004FF48273436000238360C36003614361A3
:102928004FF400728261C3610362436283620A23C7
:10293800C36202F0F7F900B908BDFFF75BFFFBE7D8
:102948008C06002000380040F0B589B000230393BE
:10295800049305930693079302681F4B9A4201D08C
:1029680009B0F0BD0024009403F500331A6C42F45A
:1029780080421A641A6C02F480420092009A019410
:102988001A6B42F004021A631A6B02F004020192F5
:10299800019A02941A6B42F002021A631B6B03F04D
:1029A80002030293029B0C23039302270497032636
:1029B8000696052507950DEB0301084801F096FCDE
:1029C8004FF400530393049705940696079503A9BB
:1029D800034801F08BFCC3E70038004000080240C0
:1029E8000004024082B0002100910B4B5A6C42F463
:1029F80080425A645A6C02F480420092009A019113
:102A08001A6C42F080521A641B6C03F080530193D5
:102A1800019B02B0704700BF00380240FEE7FEE7A6
:102A2800FEE7FEE7FEE770477047704708B500F01D
:102A380015FE03F0EDFB08BD08B5024802F0DCFA0C
:102A480008BD00BFE406002008B5024802F0D4FA29
:102A580008BD00BF7407002008B5024802F0CCFA90
:102A680008BD00BFBC07002008B5024802F0C4FA40
:102A780008BD00BF0408002008B5024803F0CCF8E0
:102A880008BD00BF2409002008B5024802F0B4FAC6
:102A980008BD00BF4C08002008B5024801F038FB0B
:102AA80008BD00BF300500200120704708B503F0BD
:102AB8001DFC162303604FF0FF3008BD08B54FF02A
:102AC800FF31FFF7F3FFFEE77047000000B58DB058
:102AD8002422002103A803F033FC0023019302936E
:102AE80012484FF080420260436083604FF6FF72E5
:102AF800C260036183610323039301230593099350
:102B080003A902F0F3FB50B900230193029301A932
:102B1800064802F06FFE28B90DB05DF804FBFFF718
:102B280069FEF1E7FFF766FEF6E700BF74070020CD
:102B380000B58DB02422002103A803F001FC002376
:102B4800019302931148124A0260436083604FF672
:102B5800FF72C2600361836103230393012305931A
:102B6800099303A902F0C2FB50B900230193029311
:102B780001A9064802F03EFE28B90DB05DF804FB35
:102B8800FFF738FEF1E7FFF735FEF6E7BC07002050
:102B98000004004000B58DB02422002103A803F0F2
:102BA800CFFB0023019302931148124A026043604D
:102BB80083604FF6FF72C26003618361032303934E
:102BC80001230593099303A902F090FB50B9002350
:102BD8000193029301A9064802F00CFE28B90DB032
:102BE8005DF804FBFFF706FEF1E7FFF703FEF6E7E3
:102BF8004C080020000C004000B587B00368304A3C
:102C080093420ED02F4A93421FD02F4A934230D07E
:102C18002E4A93423AD02E4A934244D007B05DF8E8
:102C280004FB002101912B4B5A6C42F001025A64BB
:102C38005B6C03F001030193019B0A461A2001F023
:102C480097F81A2001F0CCF8E8E700210291214B0F
:102C58001A6C42F004021A641B6C03F0040302931A
:102C6800029B0A461E2001F083F81E2001F0B8F8E6
:102C7800D4E700230393174B5A6C42F002025A64BC
:102C88005B6C03F002030393039BC7E700230493E1
:102C9800104B5A6C42F480325A645B6C03F48033F4
:102CA8000493049BBAE7002305930A4B1A6C42F07D
:102CB80040021A641B6C03F040030593059BADE7C3
:102CC80000000140000800400004014000400140AD
:102CD800001800400038024070B58CB000230793FC
:102CE800089309930A930B930368B3F1804F07D0B5
:102CF8004C4A934243D04C4A934268D00CB070BDC2
:102D08000024009403F50E331A6C42F001021A6491
:102D18001A6C02F001020092009A01941A6B42F0B8
:102D280001021A631A6B02F001020192019A0294DD
:102D38001A6B42F002021A631B6B03F00203029340
:102D4800029B2023079302260896012509950B95D7
:102D580007A9364801F0CAFA082307930896099587
:102D68000A940B9507A9324801F0C0FA2246214679
:102D78001C2000F0FDFF1C2001F032F8BEE7002403
:102D880003942C4B1A6C42F002021A641A6C02F07B
:102D980002020392039A04941A6B42F002021A6325
:102DA8001B6B03F002030493049B30230793022355
:102DB80008930B9307A91E4801F098FA224621466A
:102DC8001D2000F0D5FF1D2001F00AF896E7002429
:102DD8000594184B1A6C42F008021A641A6C02F037
:102DE80008020592059A06941A6B42F001021A63CA
:102DF8001B6B03F001030693069B0323079302232F
:102E08000893012209920B9307A9084801F06EFA6A
:102E180022462146322000F0ABFF322000F0E0FFCE
:102E28006CE700BF00040040000C004000000240B6
:102E3800000402400038024000B58BB0002305931F
:102E480006930793089309930368444A93420ED064
:102E5800434A934223D0434A934237D0424A93424B
:102E68004CD0424A934260D00BB05DF804FB00237B
:102E780000933F4B1A6B42F010021A631B6B03F06E
:102E880010030093009B4FF4D44305930223069349
:102E98000123099305A9374801F028FAE4E700233C
:102EA8000193334B1A6B42F008021A631B6B03F051
:102EB80008030193019B4FF40043059302230693F3
:102EC800099305A92C4801F011FACDE700230293D4
:102ED800274B1A6B42F004021A631B6B03F00403BE
:102EE8000293029B4FF47073059302230693032306
:102EF800099305A9214801F0F9F9B5E700230393DF
:102F08001B4B1A6B42F010021A631B6B03F0100381
:102F18000393039B602305930223069303230993DA
:102F280005A9144801F0E2F99EE700230493104B29
:102F38001A6B42F002021A631B6B03F0020304933C
:102F4800049B4FF4404305930223069309230993F6
:102F580005A90B4801F0CAF986E700BF0000014047
:102F680000080040000401400040014000180040F3
:102F78000038024000100240000C024000080240E5
:102F88000004024010B596B00024129413941494CF
:102F980015941094119409940A940B940C940D941C
:102FA8000E940F942022214601A803F0C9F93B484A
:102FB8003B4B03604460846042F20F73C36004615A
:102FC8004461846102F03AF900284BD14FF48053F0
:102FD800129312A9314802F097FA002845D12F48D8
:102FE80002F058F9002843D100231093119310A937
:102FF8002A4802F0FFFB00283DD1602309930022F4
:103008000A920B920C920D920E920F9209A92348E4
:1030180002F000FA002831D1042209A91F4802F061
:10302800F9F970BB082209A91C4802F0F3F958BB4A
:103038000C2209A9194802F0EDF940BB00230193BD
:1030480002930393049305934FF400520692089356
:1030580001A9124802F014FCE0B91048FFF7ECFE91
:1030680016B010BDFFF7C6FBB0E7FFF7C3FBB6E726
:10307800FFF7C0FBB8E7FFF7BDFBBEE7FFF7BAFBFA
:10308800CAE7FFF7B7FBCDE7FFF7B4FBD0E7FFF7D9
:10309800B1FBD3E7FFF7AEFBDFE700BFE406002094
:1030A8000000014000B58FB000230A930B930C93E6
:1030B8000D93089309930193029303930493059343
:1030C800069307932148224A026043608360A7223F
:1030D800C2600361836102F0B1F838BB4FF48053DA
:1030E8000A930AA9194802F00FFA10BB174802F010
:1030F800D1F808BB702308930023099308A9134843
:1031080002F078FBD8B9602301935423029300237B
:10311800039305930C2201A90C4802F07BF988B9A6
:103128000A48FFF789FE0FB05DF804FBFFF762FB62
:10313800D4E7FFF75FFBD9E7FFF75CFBDAE7FFF7B8
:1031480059FBE0E7FFF756FBEAE700BF0408002059
:103158000008004010B596B00024129413941494FB
:1031680015941094119409940A940B940C940D944A
:103178000E940F942022214601A803F0E1F83B4861
:103188003B4B03604460846042F20F73C360046188
:103198004461846102F052F800284BD14FF4805307
:1031A800129312A9314802F0AFF9002845D12F48EF
:1031B80002F070F8002843D100231093119310A94E
:1031C8002A4802F017FB00283DD16023099300220A
:1031D8000A920B920C920D920E920F9209A9234813
:1031E80002F018F9002831D1042209A91F4802F079
:1031F80011F970BB082209A91C4802F00BF958BB49
:103208000C2209A9194802F005F940BB00230193D3
:1032180002930393049305934FF400520692089384
:1032280001A9124802F02CFBE0B91048FFF704FE90
:1032380016B010BDFFF7DEFAB0E7FFF7DBFAB6E726
:10324800FFF7D8FAB8E7FFF7D5FABEE7FFF7D2FAE3
:10325800CAE7FFF7CFFACDE7FFF7CCFAD0E7FFF7D9
:10326800C9FAD3E7FFF7C6FADFE700BF94080020E2
:103278000004014000B58DB00023089309930A9318
:103288000B93019302930393049305930693079377
:103298002048214A026040F24F124260836042F2A5
:1032A8000F72C2600361836101F0C8FF18BB4FF45D
:1032B8008053089308A9174802F026F9F0B9154871
:1032C80001F0E8FFE8B9602301930022029203921B
:1032D800059201A90F4802F09DF8A8B904220DEB48
:1032E80002010C4802F096F888B90A48FFF7A4FDD5
:1032F8000DB05DF804FBFFF77DFAD8E7FFF77AFA1F
:10330800DDE7FFF777FADEE7FFF774FAE6E7FFF79E
:1033180071FAEAE7DC0800200040014000B58DB0F2
:103328000023089309930A930B9301930293039341
:1033380004930593069307932048214A0260A72225
:103348004260836042F20F72C2600361836101F0E0
:1033580075FF18BB4FF48053089308A9174802F06B
:10336800D3F8F0B9154801F095FFE8B96023019347
:10337800002202920392059201A9104802F04AF82D
:10338800A8B904220DEB02010C4802F043F888B9F1
:103398000A48FFF751FD0DB05DF804FBFFF72AFA64
:1033A800D8E7FFF727FADDE7FFF724FADEE7FFF7AC
:1033B80021FAE6E7FFF71EFAEAE700BF2C0700202C
:1033C8000018004008B50A480A4B03604FF4E1337F
:1033D800436000238360C36003610C224261836100
:1033E800C36102F05FFB00B908BDFFF703FAFBE712
:1033F800240900200010014008B50A480A4B036060
:103408004FF4E133436000238360C36003610C22FF
:1034180042618361C36102F045FB00B908BDFFF753
:10342800E9F9FBE7680900200044004008B50A48AC
:103438000A4B03604FF4E133436000238360C360A9
:1034480003610C2242618361C36102F02BFB00B966
:1034580008BDFFF7CFF9FBE7AC09002000480040A2
:1034680010B58CB000230793089309930A930B9324
:1034780003683F4A934207D03E4A934230D03E4ABF
:10348800934250D00CB010BD002401943B4B5A6CB1
:1034980042F010025A645A6C02F010020192019A2A
:1034A80002941A6B42F001021A631B6B03F00103CA
:1034B8000293029B4FF4C0630793022308930323EC
:1034C8000A9307230B9307A92D4800F00FFF224604
:1034D8002146252000F04CFC252000F081FCD1E796
:1034E80000210391254B1A6C42F400321A641A6CBD
:1034F80002F400320392039A04911A6B42F0080214
:103508001A631B6B03F008030493049B602307935F
:103518000223089303230A9307230B9307A9194847
:1035280000F0E4FEAEE700210591144B1A6C42F45A
:1035380080221A641A6C02F480220592059A069178
:103548001A6B42F008021A631B6B03F00803069318
:10355800069B4FF4407307930223089303230A93AF
:1035680007230B9307A9074800F0C0FE8AE700BFAE
:10357800001001400044004000480040003802406C
:1035880000000240000C0240DFF834D00D480E491C
:103598000E4A002302E0D458C4500433C4188C42A5
:1035A800F9D30B4A0B4C002301E013600432A2420A
:1035B800FBD3FFF789FA02F09FFEFFF771F9704716
:1035C80000000220000000203C040020E4660008FF
:1035D8003C040020700B0020FEE7000010B50446F4
:1035E8000E4B18784FF47A73B3FBF0F30C4A10685B
:1035F800B0FBF3F000F002FC68B90F2C01D90120F0
:103608000AE0002221464FF0FF3000F0B1FB054BE5
:103618001C60002000E0012010BD00BF0400002055
:10362800000000200800002008B50B4B1A6842F47F
:1036380000721A601A6842F480621A601A6842F4CA
:1036480080721A60032000F081FB0F20FFF7C6FF8D
:10365800FFF7C8F9002008BD003C0240034A116882
:10366800034B1B780B441360704700BFF009002020
:1036780004000020014B1868704700BFF0090020C3
:1036880038B50446FFF7F6FF0546B4F1FF3F02D010
:10369800044B1B781C44FFF7EDFF401BA042FAD3F4
:1036A80038BD00BF040000204A4B5A6822F440325B
:1036B8005A605A6841680A435A600268536823F49A
:1036C8008073536002685368016943EA01235360B9
:1036D8000268536823F04073536002685368816836
:1036E8000B4353600268936823F400639360026895
:1036F8009368C1680B439360826A374B9A4257D0EC
:103708000268936823F07063936002689368816A23
:103718000B4393600268936823F0405393600268F8
:103728009368C16A0B4393600268936823F00203AD
:10373800936002689368017E43EA4103936090F8BE
:103748002030002B3FD00268536843F40063536075
:103758000268536823F46043536001684B68426A07
:10376800013A43EA42334B600268D36A23F4700398
:10377800D3620168CB6AC269013A43EA0253CB6259
:103788000268936823F4007393600268936890F862
:10379800301043EA412393600268936823F48063FE
:1037A800936002689368416943EA81239360704794
:1037B8000268936823F0706393600268936823F04B
:1037C80040539360B0E70268536823F40063536082
:1037D800CAE700BF002301400100000F38B310B54D
:1037E8000446036C43B1236C13F0100F0BD0012077
:1037F800002384F83C3010BDFEF742FD00236364CB
:1038080084F83C30EFE7236C23F4885323F0020359
:1038180043F0020323642046FFF746FF002060645C
:10382800236C23F0030343F001032364E0E7012042
:103838007047000010B582B013460022019290F83C
:103848003C20012A00F0AE800446012280F83C208A
:103858000268906810F0010F13D1906840F00100E1
:103868009060534A1068534AA2FB0020800C00EB7A
:103878004000019002E00198013801900198002869
:10388800F9D12268906810F4807F03D0906820F402
:10389800807090602268906810F0010F77D0206CDB
:1038A80020F4E06020F0010040F480702064526849
:1038B80012F4806F05D0226C22F4405242F48052F8
:1038C8002264226C12F4805F36D0626C22F0060209
:1038D8006264002284F83C20A26B3748D063A26B54
:1038E80036481064A26B3648D06422686FF0220014
:1038F80010602068426842F08062426020688268F6
:1039080042F48072826020680A4600F14C01A06B84
:1039180000F06CFB2B4B5B6813F01F0F27D123685B
:10392800294A934211D002F58072934207D0274A60
:10393800934214D0002033E000226264C9E702F504
:103948000072526812F01F0FF1D19A6812F0405FAE
:103958002AD19A6842F080429A60002020E002F55D
:103968008072526812F0100FEFD0002018E0236820
:10397800154A934201D0002012E09A6812F0405F85
:1039880014D19A6842F080429A60002008E0236CC3
:1039980043F010032364636C43F001036364002065
:1039A80002B010BD0220FBE70020F9E70020F7E78E
:1039B8000000002083DE1B43FF390008DD390008C2
:1039C800E93900080023014000200140002201409D
:1039D8007047704708B5806BFFF7FBFF08BD70475D
:1039E80008B5806B40230364436C43F004034364CD
:1039F800FFF7F5FF08BD08B50346806B026C12F0AF
:103A0800500F25D1036C43F40073036403689A686C
:103A180012F0405F19D1027EBAB9DA6A12F4700F57
:103A280003D09A6812F4806F0FD15A6822F02002EE
:103A38005A60036C23F480730364036C13F4805F8F
:103A480003D1036C43F001030364FFF7C1FF08BD12
:103A5800026C12F0100F04D1826BD26C184690479A
:103A6800F5E7FFF7BCFFF2E730B482B0002301931B
:103A780090F83C30012B00F0BB80012380F83C30EB
:103A88000B68092B41D90468E2689BB203EB430336
:103A98001E3B4FF0070C0CFA03F322EA0303E36022
:103AA8000468E2680B8803EB43031E3B8D6805FA44
:103AB80003F31343E3604B68062B3DD80468626B3D
:103AC80003EB8303053B4FF01F0C0CFA03F322EAC8
:103AD800030363630468626B4B6803EB8303053B72
:103AE800B1F800C00CFA03F3134363630268414B57
:103AF8009A4251D002683F4B9A4256D0002380F830
:103B08003C30184602B030BC7047046822699BB24A
:103B180003EB43034FF0070C0CFA03F322EA030309
:103B28002361046822690B8803EB43038D6805FA57
:103B380003F313432361BEE70C2B16D805682A6BE1
:103B480003EB8303233B1F2404FA03F322EA030352
:103B58002B6305682A6B4B6803EB8303233B0C88B4
:103B680004FA03F313432B63C0E70568EA6A03EB1F
:103B78008303413B1F2404FA03F322EA0303EB62A5
:103B88000568EA6A4B6803EB8303413B0C8804FA37
:103B980003F31343EB62A9E70B68122BAAD1164A69
:103BA800536843F480035360A4E70B68103B012B70
:103BB800A4D8114A536843F4000353600B68102BD0
:103BC8009CD10E4B1B6802F1467202F52E3202F2AE
:103BD8008332A2FB03239B0C03EB83035B0001935B
:103BE80002E0019B013B0193019B002BF9D185E782
:103BF800022087E700200140002301400000002048
:103C0800002800F0A18038B5044690F82030D3B1E0
:103C18002268136843F001031360FFF72BFD054684
:103C280023685A6812F0010F10D1FFF723FD401BDB
:103C38000A28F5D9636A43F400336362052384F8DC
:103C48002030012038BDFEF703FCE1E71A6822F0B6
:103C580002021A60FFF70EFD054623685A6812F043
:103C6800020F0DD0FFF706FD401B0A28F5D9636A3D
:103C780043F400336362052384F820300120E1E730
:103C8800227E012A3DD01A6822F080021A60637EE3
:103C9800012B3BD02268136823F040031360A37EF6
:103CA800012B39D02268136823F020031360E37EC8
:103CB800012B37D02268136843F010031360237F69
:103CC800012B35D02268136823F008031360637F43
:103CD800012B33D02268136823F004031360A36810
:103CE800E268134322691343626913436268013A25
:103CF80021681343CB6100206062012384F82030DF
:103D0800A0E71A6842F080021A60C0E722681368C8
:103D180043F040031360C2E72268136843F02003AE
:103D28001360C4E72268136823F010031360C6E722
:103D38002268136843F008031360C8E72268136811
:103D480043F004031360CAE701207047074AD368A9
:103D580023F4E0631B041B0C000200F4E06003433F
:103D680043F0BF6343F40033D360704700ED00E0D5
:103D780000B5194BDB68C3F30223C3F1070CBCF190
:103D8800040F28BF4FF0040C03F1040EBEF1060F18
:103D980018D9033B4FF0FF3E0EFA0CFC21EA0C0148
:103DA80099400EFA03F322EA0303194300280BDBB8
:103DB8000901C9B200F1604000F5614080F80013C4
:103DC8005DF804FB0023E5E700F00F000901C9B224
:103DD800024B1954F4E700BF00ED00E014ED00E0D9
:103DE800002807DB00F01F02400901239340024A24
:103DF80042F82030704700BF00E100E00138B0F120
:103E0800807F0BD24FF0E0235861054AF02182F8F9
:103E180023100020986107221A617047012070471B
:103E280000ED00E030B405682C6824F480242C6090
:103E3800046863608368402B05D003689960036851
:103E4800DA6030BC704703689A600368D960F8E7A5
:103E580010B40368D9B210390B4AA2FB0142120907
:103E68000A4CA25CC2655F2908D923F47F7323F04A
:103E7800030304338365806D10BC704723F47F739C
:103E880023F003038365F6E7ABAAAAAA88650008AE
:103E9800836A826992B9012B0AD0022B02D00BB136
:103EA80000207047C36A13F0807F28D10020704734
:103EB800C36AB3F1C07F24D000207047B2F5005F19
:103EC80009D0022B25D9032B25D1C36A13F0807F93
:103ED80023D100207047032B03D8DFE803F0140434
:103EE800140A00207047C36A13F0807F0DD10020A8
:103EF8007047C36AB3F1C07F09D000207047012022
:103F08007047012070470120704701207047012049
:103F1800704701207047002070470120704700005B
:103F280070B50446FFF7A6FB002C5BD005460223BC
:103F380084F83530002384F834302268136823F07D
:103F48000103136023681A6812F0010F0AD0FFF703
:103F580091FB431B052BF5D920236365032084F8C7
:103F6800350070BD1A68204810406168A2680A438D
:103F7800E1680A4321690A4361690A43A1690A435E
:103F8800E1690A43216A0A430243616A04291ED08F
:103F98001A602668756925F00705636A1D43042BB6
:103FA80007D1A36A1D43E36A1BB12046FFF770FFE0
:103FB80090B975612046FFF74BFFE26D3F239340B0
:103FC800836000206065012384F83530C9E7E16A21
:103FD800206B01430A43DBE740236365012084F833
:103FE8003500BEE70120BCE73F8010F038B5044635
:103FF800856D90F8340001282BD0012084F8340016
:1040080094F83500C0B2012804D0002384F8343075
:10401800022038BD022084F8350000206065204663
:10402800FFF700FFE26D3F239340AB6022681368FF
:1040380043F016031360236C23B12268136843F01E
:10404800080313602268136843F00103136000201B
:10405800DFE70220DDE770B50446866DFFF70AFB4F
:1040680094F83530DBB2022B06D080236365002339
:1040780084F83430012070BD05462268136823F0A7
:10408800160313602268536923F080035361236C7D
:10409800E3B12268136823F00803136022681368E9
:1040A80023F00103136023681B6813F0010F11D07C
:1040B800FFF7E0FA431B052BF5D92023636503209E
:1040C80084F83500002384F83430D4E7A36C002B3F
:1040D800DFD1E3E7E26D3F239340B360012384F827
:1040E8003530002084F83400C5E790F83530DBB26D
:1040F800022B03D08023436501207047052380F8F5
:1041080035300268136823F00103136000207047FC
:10411800F0B583B0044600230193724B1D68724BBF
:10412800A3FB0535AD0A876D3E68C26D0823934031
:10413800334210D003681A6812F0040F0BD01A68C3
:1041480022F004021A60C26D08239340BB60436DDD
:1041580043F001034365E26D01239340334209D0E4
:104168002268526912F0800F04D0BB60636D43F07F
:1041780002036365E26D04239340334209D0226849
:10418800126812F0020F04D0BB60636D43F00403A1
:104198006365E26D10239340334224D0226812688D
:1041A80012F0080F1FD0BB6023681A6812F4802F22
:1041B8000DD01B6813F4002F04D1236C9BB120464B
:1041C800984710E0A36C73B1204698470BE01A6833
:1041D80012F4807F03D11A6822F008021A60236C57
:1041E8000BB120469847E26D20239340334255D0C7
:1041F8002268126812F0100F50D0BB6094F8353066
:10420800DBB2052B0ED023681A6812F4802F33D046
:104218001B6813F4002F2AD1636C002B3ED0204674
:1042280098473BE02268136823F01603136022685E
:10423800536923F080035361236CA3B12268136888
:1042480023F008031360E26D3F239340BB60012312
:1042580084F83530002384F83430236D002B3FD0A8
:10426800204698473CE0A36C002BE7D1EBE7E36BD3
:10427800A3B12046984711E01A6812F4807F09D14B
:104288001A6822F010021A60012384F835300023DE
:1042980084F83430E36B0BB120469847636DFBB16B
:1042A800636D13F0010F17D0052384F835302268A9
:1042B800136823F001031360019B01330193AB42A0
:1042C80004D823681B6813F0010FF5D1012384F883
:1042D8003530002384F83430E36C0BB1204698471E
:1042E80003B0F0BD00000020B5814E1B00230F2B4A
:1042F80000F2E48070B582B060E085685E00032457
:10430800B44025EA0405CC68B4402C438460456871
:1043180025EA02054C68C4F300129A402A43426019
:104328005AE0DC08083450F8246003F007029500CE
:104338000F22AA4026EA020E0A69AA4042EA0E02A1
:1043480040F824205CE0072200E0002202FA0EF286
:104358002A4302345A4D45F824205A4A94686FEA91
:104368000C0224EA0C054E6816F4801F01D04CEAB2
:104378000405544CA560E46802EA04054E6816F486
:10438800001F01D04CEA04054E4CE560646802EA5F
:1043980004054E6816F4003F01D04CEA0405494C68
:1043A8006560246822404D6815F4803F01D04CEACE
:1043B8000402444C226001330F2B7DD801229A401D
:1043C8000C6804EA020C32EA0404F4D14C6804F0E4
:1043D8000304013C012C90D94A6802F00302032A25
:1043E80009D0C4685D000322AA4024EA02048A684E
:1043F800AA402243C2604A6802F00302022A90D00F
:1044080004684FEA430E032202FA0EF224EA020479
:104418004A6802F0030202FA0EF2224302604A6876
:1044280012F4403FC7D000220192274A546C44F44A
:1044380080445464526C02F480420192019A9C08B0
:10444800A51C1F4A52F8255003F003024FEA820EBA
:104458000F2202FA0EF225EA02051C4A90423FF4A6
:1044680074AF02F5806290421AD002F580629042E1
:1044780018D002F58062904216D002F58062904210
:1044880014D002F58062904212D002F58062904208
:1044980010D002F5806290423FF455AF082255E7EC
:1044A800012253E7022251E703224FE704224DE796
:1044B80005224BE7062249E702B070BD704700BFEE
:1044C80000380140003C0140003802400000024032
:1044D8000AB181617047090481617047436901EA43
:1044E800030221EA030141EA0241816170470000A9
:1044F800002800F0CC8070B5044690F83D30002BC1
:1045080077D0242384F83D302268136823F0010310
:1045180013602268136843F4004313602268136829
:1045280023F40043136000F0DDFB62685A4B9A42A3
:1045380064D85A4B98428CBF00230123002B40F0CB
:10454800A8805749A1FB00318B0C25686A6822F0C6
:104558003F0242EA91426A6021680A6A22F03F02F9
:1045680066684D4DAE424FD8013313430B62216844
:10457800CA6922F44F4222F0FF026668464B9E4207
:104588004CD8431E7600B3FBF6F3013340F6FC70BB
:10459800034278D0C3F30B031343CB6121680B6844
:1045A80023F0C003E269206A024313430B602168C9
:1045B8008B6823F4034323F0FF032269E068024376
:1045C80013438B602168CB6823F0FF036269A069FD
:1045D80002431343CB602268136843F0010313605E
:1045E80000202064202384F83D30206384F83E00B6
:1045F80070BD80F83C30FEF79BF882E7294B984263
:104608008CBF0023012399E74FF4967505FB03F34C
:10461800254DA5FB03539B090133A6E7A368BBB946
:10462800451E06EB460CB5FBFCF50135C5F30B053D
:10463800B5FA85F56D0945BBC3B9013806EB4603E4
:10464800B0FBF3F30133C3F30B0343F40043A3E7D5
:10465800451E06EB860C0CEB8C0CB5FBFCF5013506
:10466800C5F30B05B5FA85F56D09E4E7013806EBE6
:10467800860303EB8303B0FBF3F30133C3F30B03AC
:1046880043F4404388E7042386E7012384E70120B5
:1046980070470120ACE700BFA08601007F841E00A0
:1046A80083DE1B43FF083D00D34D6210002800F055
:1046B800E08170B582B00446036813F0010F3BD067
:1046C8009F4B9B6803F00C03042B2CD09C4B9B68DE
:1046D80003F00C03082B21D06368B3F5803F4FD05B
:1046E800B3F5A02F52D0964B1A6822F480321A6084
:1046F8001A6822F480221A606368002B50D0FEF7F3
:10470800B9FF05468E4B1B6813F4003F14D1FEF722
:10471800B1FF401B6428F5D90320B1E1884B5B68E1
:1047280013F4800FD8D0864B1B6813F4003F03D0D6
:104738006368002B00F09F81236813F0020F54D0A8
:104748007F4B9B6813F00C0F3ED07D4B9B6803F0AA
:104758000C03082B33D0E368002B68D0794B012277
:104768001A60FEF787FF0546754B1B6813F0020FAA
:1047780054D1FEF77FFF401B0228F5D903207FE1C3
:104788006F4A136843F480331360B5E76C4B1A68BB
:1047980042F480221A601A6842F480321A60ABE749
:1047A800FEF768FF0546664B1B6813F4003FC3D04D
:1047B800FEF760FF401B6428F5D9032060E1604BD9
:1047C8005B6813F4800FC6D15D4B1B6813F0020FB2
:1047D80003D0E368012B40F05081594A136823F055
:1047E800F803216943EAC1031360236813F0080F33
:1047F80042D063696BB3534B0122C3F8802EFEF796
:1048080039FF05464E4B5B6F13F0020F34D1FEF7AC
:1048180031FF401B0228F5D9032031E1484A1368CB
:1048280023F0F803216943EAC1031360DDE7454B30
:1048380000221A60FEF71EFF0546414B1B6813F065
:10484800020FD2D0FEF716FF401B0228F5D903202D
:1048580016E13C4B0022C3F8802EFEF70BFF0546FD
:10486800374B5B6F13F0020F06D0FEF703FF401BB8
:104878000228F5D9032003E1236813F0040F77D049
:104888002F4B1B6C13F0805F33D1002301932C4B0B
:104898001A6C42F080521A641B6C03F08053019327
:1048A800019B0125284B1B6813F4807F23D0A36844
:1048B800012B34D0052B38D0214B1A6F22F001027E
:1048C8001A671A6F22F004021A67A368002B3DD0FA
:1048D800FEF7D0FE06461A4B1B6F13F0020F46D1A7
:1048E800FEF7C8FE801B41F288339842F3D90320B3
:1048F800C6E00025D6E7144A136843F480731360B2
:10490800FEF7B8FE0646104B1B6813F4807FCED125
:10491800FEF7B0FE801B0228F5D90320B0E0084A54
:10492800136F43F001031367CFE7054B1A6F42F08B
:1049380004021A671A6F42F001021A67C5E700BF3E
:10494800003802400000474200700040FEF792FE27
:104958000646524B1B6F13F0020F08D0FEF78AFE73
:10496800801B41F288339842F3D9032088E0EDB9DF
:10497800A369002B00F08380484A926802F00C0279
:10498800082A51D0022B17D0454B00221A66FEF791
:1049980071FE0446414B1B6813F0007F42D0FEF7BE
:1049A80069FE001B0228F5D9032069E03B4A136C15
:1049B80023F080531364DBE7394B00221A66FEF7B5
:1049C80059FE0546354B1B6813F0007F06D0FEF7ED
:1049D80051FE401B0228F5D9032051E0E369226A01
:1049E8001343626A43EA8213A26A5208013A43EA0D
:1049F8000243E26A43EA0263284A5360284B0122D1
:104A08001A66FEF737FE0446244B1B6813F0007F36
:104A180006D1FEF72FFE001B0228F5D903202FE050
:104A280000202DE000202BE0012B2BD01B4B5B68D6
:104A380003F48001E269914226D103F03F02216A22
:104A48008A4223D1616A47F6C0721A40B2EB811FCD
:104A58001ED103F44031A26A5208013AB1EB024F69
:104A680018D103F07063E26AB3EB026F14D100202F
:104A780006E001207047012002E0012000E000204C
:104A880002B070BD0120FBE70120F9E70120F7E73C
:104A98000120F5E70120F3E70120F1E700380240A3
:104AA8000000474208B5314B9B6803F00C03042B08
:104AB80057D0082B57D12D4B5A6802F03F025B683C
:104AC80013F4800F2AD0294B5968C1F3881C4FEA88
:104AD8004C11B1EB0C006EEB0E0E4FEA8E1343EA4D
:104AE80090638101091A63EB0E03DB0043EA5173FB
:104AF800C90011EB0C0C43F10003590200234FEAE3
:104B08004C2041EADC51FCF78BF9184B5B68C3F386
:104B1800014301335B00B0FBF3F025E0134B596808
:104B2800C1F3881C4FEA4C11B1EB0C006EEB0E0E72
:104B38004FEA8E1343EA90638101091A63EB0E036F
:104B4800DB0043EA5173C90011EB0C0C43F100037D
:104B5800990200234FEA8C2041EA9C51FCF760F946
:104B6800D3E7034800E0034808BD00BF003802400F
:104B780000127A000024F400002800F09B8070B531
:104B88000D4604464F4B1B6803F007038B4208D2BF
:104B9800CBB24C4A1370136803F007038B4240F002
:104BA8008B80236813F0020F17D013F0040F04D082
:104BB800454A936843F4E0539360236813F0080F61
:104BC80004D0414A936843F4604393603E4A936833
:104BD80023F0F003A1680B439360236813F0010FDF
:104BE80032D06368012B21D09A1E012A25D9364A72
:104BF800126812F0020F61D033498A6822F003026A
:104C080013438B60FEF736FD06462F4B9B6803F077
:104C18000C036268B3EB820F16D0FEF72BFD801BE6
:104C280041F288339842F0D9032042E0264A1268BC
:104C380012F4003FE0D101203BE0234A126812F051
:104C4800007FD9D1012034E01E4B1B6803F0070315
:104C5800AB4207D9EAB21B4B1A701B6803F0070373
:104C6800AB422DD1236813F0040F06D0164A93687F
:104C780023F4E053E1680B439360236813F0080FB3
:104C880007D0114A936823F46043216943EAC103BA
:104C98009360FFF707FF0C4B9B68C3F303130B4AA2
:104CA800D35CD8400A4B18600A4B1868FEF796FC8C
:104CB800002070BD012070470120FAE70120F8E7C5
:104CC8000120F6E7003C0240003802407065000809
:104CD8000000002008000020014B1868704700BF42
:104CE8000000002008B5FFF7F7FF044B9B68C3F3EB
:104CF8008223034AD35CD84008BD00BF0038024075
:104D08008065000808B5FFF7E7FF044B9B68C3F30D
:104D18004233034AD35CD84008BD00BF0038024084
:104D28008065000800285AD010B50446436A33B994
:104D38004368B3F5827F05D00023C36102E00023F6
:104D4800036143610023A36294F85130002B40D0E3
:104D5800022384F851302268136823F0400313605B
:104D6800636803F48273A26802F404421343E2689E
:104D780002F400621343226902F0020213436269DB
:104D880002F001021343A26902F400721343E269BC
:104D980002F038021343226A02F080021343A26A27
:104DA80002F40052216813430B60638B03F0040381
:104DB800626A02F01002216813434B602268D369CB
:104DC80023F40063D36100206065012384F8513027
:104DD80010BD84F850302046FDF7B6FDB8E7012035
:104DE8007047000030B4036A23F001030362036ACA
:104DF8004268846924F073040D682C4323F0020C84
:104E08008B6843EA0C03104DA84203D005F5806572
:104E1800A84205D123F00803CD682B4323F00403EF
:104E2800094DA84203D005F58065A84205D122F4B2
:104E380040724D692A438D692A43426084614A68F9
:104E48004263036230BC70470000014030B4036A1B
:104E580023F480730362036A4268C46924F0730C04
:104E68000C6844EA0C0523F400738C6843EA0423B5
:104E7800114CA04203D004F58064A04206D123F46B
:104E88000063CC6843EA042323F480630A4CA042FD
:104E980003D004F58064A04207D122F440524C6943
:104EA80042EA04128C6942EA04124260C5614A6807
:104EB800C263036230BC70470000014030B4036A2B
:104EC80023F480530362036A4468C26922F4E64209
:104ED8000D6842EA052223F400538D6843EA05333E
:104EE800094DA84203D005F58065A84204D124F4F1
:104EF80080444D6944EA85144460C2614A6802648A
:104F0800036230BC704700BF0000014010B4036A60
:104F1800046A24F001040462846924F0F00C4CEA69
:104F2800021223F00A030B438261036210BC70472C
:104F380010B4046A24F0100404628469036A24F437
:104F4800704C4CEA023223F0A00343EA0113826159
:104F5800036210BC7047836823F070030B4343F06F
:104F6800070383607047000090F83D30DBB2012BE7
:104F780037D1022380F83D300268D36843F001033B
:104F8800D3600368194A934220D0B3F1804F1DD0F3
:104F9800A2F57C42934219D002F58062934215D063
:104FA80002F58062934211D002F5784293420DD007
:104FB80002F57052934209D0A2F59432934205D07B
:104FC8001A6842F001021A60002070479A6802F0DD
:104FD8000702062A07D01A6842F001021A60002068
:104FE8007047012070470020704700BF0000014053
:104FF800704770477047704710B5044603681A69D0
:1050080012F0020F11D0DA6812F0020F0DD06FF013
:1050180002021A610123037703689B6913F0030FE7
:1050280070D0FFF7E7FF0023237723681A6912F08F
:10503800040F12D0DA6812F0040F0ED06FF00402D9
:105048001A610223237723689B6913F4407F5FD09A
:105058002046FFF7CFFF0023237723681A6912F051
:10506800080F12D0DA6812F0080F0ED06FF008029D
:105078001A61042323772368DB6913F0030F4ED0EA
:105088002046FFF7B7FF0023237723681A6912F039
:10509800100F12D0DA6812F0100F0ED06FF0100255
:1050A8001A61082323772368DB6913F4407F3DD016
:1050B8002046FFF79FFF0023237723681A6912F021
:1050C800010F03D0DA6812F0010F36D123681A698C
:1050D80012F0800F03D0DA6812F0800F34D1236801
:1050E8001A6912F0400F03D0DA6812F0400F32D17B
:1050F80023681A6912F0200F03D0DA6812F0200F23
:1051080030D110BDFFF775FF204601F0AFF88AE7F0
:105118002046FFF76EFF204601F0A8F89BE72046DF
:10512800FFF767FF204601F0A1F8ACE72046FFF73C
:1051380060FF204601F09AF8BDE76FF001021A619E
:10514800204601F07BF8C1E76FF080021A61204623
:1051580000F0C0FBC3E76FF040021A612046FFF77A
:105168004AFFC5E76FF020021A61204600F0B1FB44
:10517800C7E700000368304A904212D0B0F1804F70
:105188000FD0A2F57C4290420BD002F5806290428B
:1051980007D002F58062904203D002F5784290422F
:1051A80003D123F070034A681343234A90422AD05C
:1051B800B0F1804F27D0A2F57C42904223D002F56F
:1051C800806290421FD002F5806290421BD002F5A7
:1051D8007842904217D002F57052904213D002F5EF
:1051E800806290420FD002F5806290420BD0A2F507
:1051F8009832904207D002F58062904203D002F5BF
:105208008062904203D123F44073CA68134323F0A9
:1052180080034A69134303608B68C3620B68836227
:10522800054B984203D003F58063984201D10B697E
:1052380003630123436170470000014040B310B588
:10524800044690F83D30F3B1022384F83D302146FE
:1052580051F8040BFFF78EFF012384F8463084F8D9
:105268003E3084F83F3084F8403084F8413084F888
:10527800423084F8433084F8443084F8453084F868
:105288003D30002010BD80F83C30FDF7B5FCDBE771
:105298000120704740B310B5044690F83D30F3B193
:1052A800022384F83D30214651F8040BFFF762FFD2
:1052B800012384F8463084F83E3084F83F3084F87F
:1052C800403084F8413084F8423084F8433084F820
:1052D800443084F8453084F83D30002010BD80F813
:1052E8003C30FFF785FEDBE701207047002857D0E8
:1052F80070B50D46044690F83D30002B4BD0022384
:1053080084F83D302268936823F4804323F0070330
:105318009360214651F8040BFFF72CFF21688A6837
:105328008B690E6A2868104323F4407C2CF0030C28
:10533800AA68AB6942EA032343EA0C0323F47C43DB
:1053480023F0FC03EA69D5F80CC04CEA022C4CEABD
:10535800030C2A6A13032A6943EA021343EA0C037B
:1053680026F0AA066A686D6942EA05123243886027
:1053780021688B6123681A62012384F8463084F817
:105388003E3084F83F3084F8423084F8433084F863
:105398003D30002070BD80F83C30FDF79DFCAEE745
:1053A8000120704730B4036A23F010030362036AD4
:1053B8004468826922F4E6420D6842EA052223F035
:1053C80020038D6843EA0513114DA84203D005F563
:1053D8008065A84206D123F08003CD6843EA05130F
:1053E80023F040030A4DA84203D005F58065A84282
:1053F80007D124F440644D6944EA85048D6944EA80
:105408008504446082614A688263036230BC7047E5
:105418000000014038B590F83C30012B66D00446B6
:105428000D46012380F83C300C2A5AD8DFE802F0F8
:10543800075959591B595959305959594400006845
:10544800FFF7D0FC2268936943F008039361226850
:10545800936923F0040393612268936929690B43D4
:10546800936100203EE00068FFF79CFF2268936983
:1054780043F4006393612268936923F48063936122
:1054880022689369296943EA01239361002029E08E
:105498000068FFF7DBFC2268D36943F00803D36197
:1054A8002268D36923F00403D3612268D369296988
:1054B8000B43D361002015E00068FFF7FFFC22686A
:1054C800D36943F40063D3612268D36923F480630A
:1054D800D3612268D369296943EA0123D361002093
:1054E80000E00120002384F83C3038BD0220FCE7AE
:1054F80010B4846824F47F4C42EA03220A4342EA47
:105508000C02826010BC704790F83C30012B78D0B8
:1055180010B50446012380F83C30022380F83D3062
:105528000268936823F47F4323F0770393600B6842
:10553800602B4CD029D8402B54D00CD9502B22D1D9
:10554800CA6849680068FFF7E1FC50212068FFF746
:1055580002FD002005E0202B0DD009D9302B0AD000
:105568000120012384F83D30002384F83C3010BD2D
:105578000BB1102B05D119462068FFF7ECFC002071
:10558800EFE70120EDE70120EBE7B3F5805F34D0CA
:10559800B3F5005F0CD1CB684A6889680068FFF7EB
:1055A800A7FF2268936843F4804393600020D8E7FC
:1055B800702B24D1CB684A6889680068FFF798FF88
:1055C8002268936843F0770393600020C9E7CA68AC
:1055D80049680068FFF7ACFC60212068FFF7BBFC56
:1055E8000020BEE7CA6849680068FFF78FFC4021C1
:1055F8002068FFF7B0FC0020B3E70020B1E70120E6
:10560800AFE70220704701F01F01012303FA01FCF4
:10561800036A23EA0C030362036A02FA01F10B43EB
:105628000362704710B504460846002942D194F831
:105638003E30DBB2013B18BF0123002B6ED100289E
:1056480051D1022384F83E30012201462068FFF739
:10565800DAFF2368334A934203D002F5806293420B
:1056680003D15A6C42F400425A6423682D4A93428B
:1056780049D0B3F1804F46D0A2F57C42934242D044
:1056880002F5806293423ED002F5806293423AD09E
:1056980002F57842934236D002F57052934232D0E6
:1056A800A2F5943293422ED01A6842F001021A6091
:1056B800002032E0042908D008290DD094F84130A0
:1056C800DBB2013B18BF0123B7E794F83F30DBB2E8
:1056D800013B18BF0123B0E794F84030DBB2013B2F
:1056E80018BF0123A9E7042805D0082807D00223FA
:1056F80084F84130A8E7022384F83F30A4E7022366
:1057080084F84030A0E79A6802F00702062A07D01A
:105718001A6842F001021A60002010BD0120FCE75F
:105728000020FAE70000014038B5044690F83E0032
:10573800C0B294F83F3094F84220D2B294F843C0F3
:105748000D46B1B9012849D1012A48D1022384F86C
:105758003E3084F842307DB3042D39D00122002137
:105768002068FFF750FF012204212068FFF74BFF54
:1057780027E0DBB25FFA8CFC042912D0012833D170
:10578800012B2CD1012A31D1BCF1010F30D10223D8
:1057980084F83E3084F83F3084F8423084F843304F
:1057A800D9E7012B1CD1BCF1010F1BD1022384F8CE
:1057B8003F3084F84330CEE7012200212068FFF70C
:1057C80022FF2268136843F001031360002006E0FB
:1057D800012204212068FFF716FFF2E7012038BDF7
:1057E8000120FCE71846FAE70120F8E71846F6E733
:1057F8001046F4E790F83C30012B3CD010B401235C
:1058080080F83C30022380F83D3003685A689C6871
:1058180022F0700C0A6842EA0C025A600368174AC0
:1058280093421AD0B3F1804F17D0A2F57C4293422D
:1058380013D002F5806293420FD002F58062934242
:105848000BD002F57842934207D002F5705293428A
:1058580003D0A2F59432934204D124F080044A681C
:1058680014439C60012380F83D30002380F83C30CD
:10587800184610BC70470220704700BF0000014066
:1058880090F83C30012B22D0012380F83C30CB68C3
:1058980023F440738A68134323F480634A681343EC
:1058A80023F400630A68134323F480530A691343FB
:1058B80023F400534A69134323F48043CA6913430A
:1058C80002685364002380F83C3018467047022071
:1058D800704770477047026802F10C0353E8003FB5
:1058E80023F490730C3242E800310029F3D10268A6
:1058F80002F1140353E8003F23F00103143242E895
:1059080000310029F3D1036B012B05D0202380F847
:105918003E30002303637047026802F10C0353E82A
:10592800003F23F010030C3242E800310029F3D184
:10593800ECE790F83D30DBB2212B01D00220704714
:105948008368B3F5805F17D0036A5A1C02621A781D
:1059580003685A60C38C9BB2013B9BB2C3844BB9AA
:105968000268D36823F08003D3600268D36843F0E9
:105978004003D360002070470369002BE4D1036A19
:105988001B880268C3F308035360036A0233036287
:10599800E0E7000038B504460268136923F4405371
:1059A800C1680B4313618368026913434269134357
:1059B800C2691A430168CB6823F4164323F00C0329
:1059C8001343CB600268536923F4407381690B4326
:1059D80053610368314A934206D002F580629342CC
:1059E80002D0FFF77FF901E0FFF78CF9E369B3F51F
:1059F800004F29D00021031849411B1841F100012B
:105A0800C90041EA5371DB00181863684FEA830242
:105A18004FEA937341F10001FBF702FA204DA5FB11
:105A280000325109642303FB11031B013233A5FB28
:105A380003235B0903F0F00202EB011203F00F03EA
:105A4800216813448B6038BD0023021843EB03011F
:105A5800121841F10001C90041EA5271D200101830
:105A680041F10001626892185B41FBF7D9F90C4DCE
:105A7800A5FB00325109642303FB1103DB00323319
:105A8800A5FB03235B095A0002F4F87202EB01122A
:105A980003F00703216813448B60D4E7001001402A
:105AA8001F85EB5158B310B5044690F83D300BB341
:105AB800242384F83D302268D36823F40053D3604C
:105AC8002046FFF767FF2268136923F490431361A8
